{
  "_format": "hh-sol-artifact-1",
  "contractName": "Marketplace",
  "sourceName": "src/backend/contracts/Marketplace.sol",
  "abi": [
    {
      "inputs": [
        {
          "internalType": "uint256",
          "name": "_feePercent",
          "type": "uint256"
        },
        {
          "internalType": "contract PIRATE",
          "name": "_pirate",
          "type": "address"
        }
      ],
      "stateMutability": "nonpayable",
      "type": "constructor"
    },
    {
      "anonymous": false,
      "inputs": [
        {
          "indexed": false,
          "internalType": "uint256",
          "name": "itemId",
          "type": "uint256"
        },
        {
          "indexed": true,
          "internalType": "address",
          "name": "nft",
          "type": "address"
        },
        {
          "indexed": false,
          "internalType": "uint256",
          "name": "tokenId",
          "type": "uint256"
        },
        {
          "indexed": false,
          "internalType": "uint256",
          "name": "price",
          "type": "uint256"
        },
        {
          "indexed": true,
          "internalType": "address",
          "name": "seller",
          "type": "address"
        },
        {
          "indexed": true,
          "internalType": "address",
          "name": "buyer",
          "type": "address"
        }
      ],
      "name": "Bought",
      "type": "event"
    },
    {
      "anonymous": false,
      "inputs": [
        {
          "indexed": false,
          "internalType": "uint256",
          "name": "itemId",
          "type": "uint256"
        },
        {
          "indexed": true,
          "internalType": "address",
          "name": "nft",
          "type": "address"
        },
        {
          "indexed": false,
          "internalType": "uint256",
          "name": "tokenId",
          "type": "uint256"
        },
        {
          "indexed": false,
          "internalType": "uint256",
          "name": "price",
          "type": "uint256"
        },
        {
          "indexed": true,
          "internalType": "address",
          "name": "seller",
          "type": "address"
        }
      ],
      "name": "Offered",
      "type": "event"
    },
    {
      "inputs": [
        {
          "internalType": "uint256",
          "name": "_itemId",
          "type": "uint256"
        },
        {
          "internalType": "address payable",
          "name": "_seller",
          "type": "address"
        }
      ],
      "name": "changeNFTHolder",
      "outputs": [],
      "stateMutability": "nonpayable",
      "type": "function"
    },
    {
      "inputs": [],
      "name": "feeAccount",
      "outputs": [
        {
          "internalType": "address payable",
          "name": "",
          "type": "address"
        }
      ],
      "stateMutability": "view",
      "type": "function"
    },
    {
      "inputs": [],
      "name": "feePercent",
      "outputs": [
        {
          "internalType": "uint256",
          "name": "",
          "type": "uint256"
        }
      ],
      "stateMutability": "view",
      "type": "function"
    },
    {
      "inputs": [
        {
          "internalType": "uint256",
          "name": "_itemId",
          "type": "uint256"
        }
      ],
      "name": "getNFTSeller",
      "outputs": [
        {
          "internalType": "address",
          "name": "",
          "type": "address"
        }
      ],
      "stateMutability": "view",
      "type": "function"
    },
    {
      "inputs": [
        {
          "internalType": "uint256",
          "name": "_itemId",
          "type": "uint256"
        }
      ],
      "name": "getTotalPrice",
      "outputs": [
        {
          "internalType": "uint256",
          "name": "",
          "type": "uint256"
        }
      ],
      "stateMutability": "view",
      "type": "function"
    },
    {
      "inputs": [],
      "name": "itemCount",
      "outputs": [
        {
          "internalType": "uint256",
          "name": "",
          "type": "uint256"
        }
      ],
      "stateMutability": "view",
      "type": "function"
    },
    {
      "inputs": [
        {
          "internalType": "uint256",
          "name": "",
          "type": "uint256"
        }
      ],
      "name": "items",
      "outputs": [
        {
          "internalType": "uint256",
          "name": "itemId",
          "type": "uint256"
        },
        {
          "internalType": "contract IERC721",
          "name": "nft",
          "type": "address"
        },
        {
          "internalType": "uint256",
          "name": "tokenId",
          "type": "uint256"
        },
        {
          "internalType": "uint256",
          "name": "price",
          "type": "uint256"
        },
        {
          "internalType": "address payable",
          "name": "seller",
          "type": "address"
        },
        {
          "internalType": "address payable",
          "name": "owner",
          "type": "address"
        },
        {
          "internalType": "bool",
          "name": "forSale",
          "type": "bool"
        }
      ],
      "stateMutability": "view",
      "type": "function"
    },
    {
      "inputs": [],
      "name": "mainAccount",
      "outputs": [
        {
          "internalType": "address payable",
          "name": "",
          "type": "address"
        }
      ],
      "stateMutability": "view",
      "type": "function"
    },
    {
      "inputs": [
        {
          "internalType": "contract IERC721",
          "name": "_nft",
          "type": "address"
        },
        {
          "internalType": "uint256",
          "name": "_tokenId",
          "type": "uint256"
        },
        {
          "internalType": "uint256",
          "name": "_price",
          "type": "uint256"
        }
      ],
      "name": "makeItem",
      "outputs": [],
      "stateMutability": "nonpayable",
      "type": "function"
    },
    {
      "inputs": [],
      "name": "pirateToken",
      "outputs": [
        {
          "internalType": "contract PIRATE",
          "name": "",
          "type": "address"
        }
      ],
      "stateMutability": "view",
      "type": "function"
    },
    {
      "inputs": [
        {
          "internalType": "uint256",
          "name": "_itemId",
          "type": "uint256"
        }
      ],
      "name": "purchaseItem",
      "outputs": [
        {
          "internalType": "address",
          "name": "",
          "type": "address"
        }
      ],
      "stateMutability": "payable",
      "type": "function"
    },
    {
      "inputs": [
        {
          "internalType": "uint256",
          "name": "_itemId",
          "type": "uint256"
        }
      ],
      "name": "removeFromSale",
      "outputs": [],
      "stateMutability": "nonpayable",
      "type": "function"
    },
    {
      "inputs": [
        {
          "internalType": "uint256",
          "name": "_itemId",
          "type": "uint256"
        },
        {
          "internalType": "uint256",
          "name": "_price",
          "type": "uint256"
        }
      ],
      "name": "setPrice",
      "outputs": [],
      "stateMutability": "nonpayable",
      "type": "function"
    }
  ],
  "bytecode": "0x60e060405273f39fd6e51aad88f6f4ce6ab8827279cfffb9226673ffffffffffffffffffffffffffffffffffffffff1660c09073ffffffffffffffffffffffffffffffffffffffff1660601b8152503480156200005b57600080fd5b50604051620027f6380380620027f6833981810160405281019062000081919062000420565b60016000819055503373ffffffffffffffffffffffffffffffffffffffff1660808173ffffffffffffffffffffffffffffffffffffffff1660601b815250508160a0818152505080600260006101000a81548173ffffffffffffffffffffffffffffffffffffffff021916908373ffffffffffffffffffffffffffffffffffffffff160217905550600260009054906101000a900473ffffffffffffffffffffffffffffffffffffffff1673ffffffffffffffffffffffffffffffffffffffff16631249c58b6040518163ffffffff1660e01b8152600401602060405180830381600087803b1580156200017457600080fd5b505af115801562000189573d6000803e3d6000fd5b505050506040513d601f19601f82011682018060405250810190620001af9190620003c8565b50620002ac6040518060400160405280601381526020017f616d6f756e74206f6620746f6b656e73203a2000000000000000000000000000815250600260009054906101000a900473ffffffffffffffffffffffffffffffffffffffff1673ffffffffffffffffffffffffffffffffffffffff166370a08231306040518263ffffffff1660e01b8152600401620002479190620004c4565b60206040518083038186803b1580156200026057600080fd5b505afa15801562000275573d6000803e3d6000fd5b505050506040513d601f19601f820116820180604052508101906200029b9190620003f4565b620002b460201b620015d61760201c565b505062000624565b620003568282604051602401620002cd929190620004e1565b6040516020818303038152906040527f9710a9d0000000000000000000000000000000000000000000000000000000007bffffffffffffffffffffffffffffffffffffffffffffffffffffffff19166020820180517bffffffffffffffffffffffffffffffffffffffffffffffffffffffff83818316178352505050506200035a60201b60201c565b5050565b60008151905060006a636f6e736f6c652e6c6f679050602083016000808483855afa5050505050565b6000815190506200039481620005d6565b92915050565b600081519050620003ab81620005f0565b92915050565b600081519050620003c2816200060a565b92915050565b600060208284031215620003db57600080fd5b6000620003eb8482850162000383565b91505092915050565b6000602082840312156200040757600080fd5b60006200041784828501620003b1565b91505092915050565b600080604083850312156200043457600080fd5b60006200044485828601620003b1565b925050602062000457858286016200039a565b9150509250929050565b6200046c8162000531565b82525050565b60006200047f8262000515565b6200048b818562000520565b93506200049d8185602086016200058f565b620004a881620005c5565b840191505092915050565b620004be8162000585565b82525050565b6000602082019050620004db600083018462000461565b92915050565b60006040820190508181036000830152620004fd818562000472565b90506200050e6020830184620004b3565b9392505050565b600081519050919050565b600082825260208201905092915050565b60006200053e8262000565565b9050919050565b60008115159050919050565b60006200055e8262000531565b9050919050565b600073ffffffffffffffffffffffffffffffffffffffff82169050919050565b6000819050919050565b60005b83811015620005af57808201518184015260208101905062000592565b83811115620005bf576000848401525b50505050565b6000601f19601f8301169050919050565b620005e18162000545565b8114620005ed57600080fd5b50565b620005fb8162000551565b81146200060757600080fd5b50565b620006158162000585565b81146200062157600080fd5b50565b60805160601c60a05160c05160601c61218e62000668600039600061033101526000818161043a01526105700152600081816103d00152610b35015261218e6000f3fe6080604052600436106100c25760003560e01c80638f5715b51161007f578063d02a5ac211610059578063d02a5ac214610282578063d38ea5bf146102ad578063f7d97577146102dd578063fa00afc714610306576100c2565b80638f5715b5146101d9578063bfb231d214610202578063ca7dd37514610245576100c2565b80631123cfe0146100c75780631361a3b6146100f257806365e17c9d1461011b57806366b4d7ec146101465780636bfb0d01146101835780637fd6f15c146101ae575b600080fd5b3480156100d357600080fd5b506100dc61032f565b6040516100e99190611ac4565b60405180910390f35b3480156100fe57600080fd5b50610119600480360381019061011491906118b1565b610353565b005b34801561012757600080fd5b506101306103ce565b60405161013d9190611ac4565b60405180910390f35b34801561015257600080fd5b5061016d600480360381019061016891906118b1565b6103f2565b60405161017a9190611aa9565b60405180910390f35b34801561018f57600080fd5b50610198610432565b6040516101a59190611c6a565b60405180910390f35b3480156101ba57600080fd5b506101c3610438565b6040516101d09190611c6a565b60405180910390f35b3480156101e557600080fd5b5061020060048036038101906101fb9190611903565b61045c565b005b34801561020e57600080fd5b50610229600480360381019061022491906118b1565b6104bb565b60405161023c9796959493929190611c85565b60405180910390f35b34801561025157600080fd5b5061026c600480360381019061026791906118b1565b61056a565b6040516102799190611c6a565b60405180910390f35b34801561028e57600080fd5b506102976105cd565b6040516102a49190611b4d565b60405180910390f35b6102c760048036038101906102c291906118b1565b6105f3565b6040516102d49190611aa9565b60405180910390f35b3480156102e957600080fd5b5061030460048036038101906102ff919061193f565b611061565b005b34801561031257600080fd5b5061032d60048036038101906103289190611862565b6110e6565b005b7f000000000000000000000000000000000000000000000000000000000000000081565b600060036000838152602001908152602001600020905060008160050160146101000a81548160ff021916908315150217905550338160050160006101000a81548173ffffffffffffffffffffffffffffffffffffffff021916908373ffffffffffffffffffffffffffffffffffffffff1602179055505050565b7f000000000000000000000000000000000000000000000000000000000000000081565b60006003600083815260200190815260200160002060040160009054906101000a900473ffffffffffffffffffffffffffffffffffffffff169050919050565b60015481565b7f000000000000000000000000000000000000000000000000000000000000000081565b6000600360008481526020019081526020016000209050818160040160006101000a81548173ffffffffffffffffffffffffffffffffffffffff021916908373ffffffffffffffffffffffffffffffffffffffff160217905550505050565b60036020528060005260406000206000915090508060000154908060010160009054906101000a900473ffffffffffffffffffffffffffffffffffffffff16908060020154908060030154908060040160009054906101000a900473ffffffffffffffffffffffffffffffffffffffff16908060050160009054906101000a900473ffffffffffffffffffffffffffffffffffffffff16908060050160149054906101000a900460ff16905087565b600060647f0000000000000000000000000000000000000000000000000000000000000000606461059b9190611d47565b60036000858152602001908152602001600020600301546105bc9190611dce565b6105c69190611d9d565b9050919050565b600260009054906101000a900473ffffffffffffffffffffffffffffffffffffffff1681565b60006002600054141561063b576040517f08c379a000000000000000000000000000000000000000000000000000000000815260040161063290611c4a565b60405180910390fd5b6002600081905550600061064e8361056a565b9050600060036000858152602001908152602001600020905060008411801561067957506001548411155b6106b8576040517f08c379a00000000000000000000000000000000000000000000000000000000081526004016106af90611c2a565b60405180910390fd5b81600260009054906101000a900473ffffffffffffffffffffffffffffffffffffffff1673ffffffffffffffffffffffffffffffffffffffff166370a08231336040518263ffffffff1660e01b81526004016107149190611aa9565b60206040518083038186803b15801561072c57600080fd5b505afa158015610740573d6000803e3d6000fd5b505050506040513d601f19601f8201168201806040525081019061076491906118da565b10156107a5576040517f08c379a000000000000000000000000000000000000000000000000000000000815260040161079c90611c0a565b60405180910390fd5b61088e6040518060400160405280601c81526020017f706972617465546f6b656e2062616c616e6365206275796572203a2000000000815250600260009054906101000a900473ffffffffffffffffffffffffffffffffffffffff1673ffffffffffffffffffffffffffffffffffffffff166370a08231336040518263ffffffff1660e01b81526004016108399190611aa9565b60206040518083038186803b15801561085157600080fd5b505afa158015610865573d6000803e3d6000fd5b505050506040513d601f19601f8201168201806040525081019061088991906118da565b6115d6565b61095a60405180606001604052806027815260200161213260279139600260009054906101000a900473ffffffffffffffffffffffffffffffffffffffff1673ffffffffffffffffffffffffffffffffffffffff166370a08231306040518263ffffffff1660e01b81526004016109059190611aa9565b60206040518083038186803b15801561091d57600080fd5b505afa158015610931573d6000803e3d6000fd5b505050506040513d601f19601f8201168201806040525081019061095591906118da565b6115d6565b6109996040518060400160405280601f81526020017f746869732069732074686520636f6e74726163742061646472657373203a200081525030611672565b6109dc6040518060400160405280600d81526020017f77616e7420746f20706179203a0000000000000000000000000000000000000081525082600301546115d6565b600260009054906101000a900473ffffffffffffffffffffffffffffffffffffffff1673ffffffffffffffffffffffffffffffffffffffff166323b872dd338360040160009054906101000a900473ffffffffffffffffffffffffffffffffffffffff1684600301546040518463ffffffff1660e01b8152600401610a6393929190611adf565b602060405180830381600087803b158015610a7d57600080fd5b505af1158015610a91573d6000803e3d6000fd5b505050506040513d601f19601f82011682018060405250810190610ab59190611839565b50610af46040518060400160405280600281526020017f663200000000000000000000000000000000000000000000000000000000000081525061170e565b600260009054906101000a900473ffffffffffffffffffffffffffffffffffffffff1673ffffffffffffffffffffffffffffffffffffffff166323b872dd337f0000000000000000000000000000000000000000000000000000000000000000846003015486610b649190611e28565b6040518463ffffffff1660e01b8152600401610b8293929190611adf565b602060405180830381600087803b158015610b9c57600080fd5b505af1158015610bb0573d6000803e3d6000fd5b505050506040513d601f19601f82011682018060405250810190610bd49190611839565b50610c136040518060400160405280600281526020017f663300000000000000000000000000000000000000000000000000000000000081525061170e565b60008160050160146101000a81548160ff0219169083151502179055508060010160009054906101000a900473ffffffffffffffffffffffffffffffffffffffff1673ffffffffffffffffffffffffffffffffffffffff166323b872dd303384600201546040518463ffffffff1660e01b8152600401610c9593929190611b16565b600060405180830381600087803b158015610caf57600080fd5b505af1158015610cc3573d6000803e3d6000fd5b50505050610d056040518060400160405280600281526020017f663400000000000000000000000000000000000000000000000000000000000081525061170e565b610dee6040518060400160405280601c81526020017f706972617465546f6b656e2062616c616e6365206275796572203a2000000000815250600260009054906101000a900473ffffffffffffffffffffffffffffffffffffffff1673ffffffffffffffffffffffffffffffffffffffff166370a08231336040518263ffffffff1660e01b8152600401610d999190611aa9565b60206040518083038186803b158015610db157600080fd5b505afa158015610dc5573d6000803e3d6000fd5b505050506040513d601f19601f82011682018060405250810190610de991906118da565b6115d6565b610eba60405180606001604052806027815260200161213260279139600260009054906101000a900473ffffffffffffffffffffffffffffffffffffffff1673ffffffffffffffffffffffffffffffffffffffff166370a08231306040518263ffffffff1660e01b8152600401610e659190611aa9565b60206040518083038186803b158015610e7d57600080fd5b505afa158015610e91573d6000803e3d6000fd5b505050506040513d601f19601f82011682018060405250810190610eb591906118da565b6115d6565b610ef96040518060400160405280601f81526020017f746869732069732074686520636f6e74726163742061646472657373203a200081525030611672565b610f3c6040518060400160405280600d81526020017f77616e7420746f20706179203a0000000000000000000000000000000000000081525082600301546115d6565b3373ffffffffffffffffffffffffffffffffffffffff168160040160009054906101000a900473ffffffffffffffffffffffffffffffffffffffff1673ffffffffffffffffffffffffffffffffffffffff168260010160009054906101000a900473ffffffffffffffffffffffffffffffffffffffff1673ffffffffffffffffffffffffffffffffffffffff167f8b4c9c8a607d67b321582dd8461041b1dc2ceeca70c8b7f37f8e02095cf2e76d878560020154866003015460405161100493929190611cf4565b60405180910390a4338160050160006101000a81548173ffffffffffffffffffffffffffffffffffffffff021916908373ffffffffffffffffffffffffffffffffffffffff16021790555033925050506001600081905550919050565b6000600360008481526020019081526020016000209050818160030181905550338160050160006101000a81548173ffffffffffffffffffffffffffffffffffffffff021916908373ffffffffffffffffffffffffffffffffffffffff16021790555060018160050160146101000a81548160ff021916908315150217905550505050565b6002600054141561112c576040517f08c379a000000000000000000000000000000000000000000000000000000000815260040161112390611c4a565b60405180910390fd5b60026000819055506000811015611178576040517f08c379a000000000000000000000000000000000000000000000000000000000815260040161116f90611bea565b60405180910390fd5b6001600081548092919061118b90611f79565b9190505550600081141561133f576040518060e0016040528060015481526020018473ffffffffffffffffffffffffffffffffffffffff1681526020018381526020018281526020013373ffffffffffffffffffffffffffffffffffffffff1681526020013373ffffffffffffffffffffffffffffffffffffffff168152602001600015158152506003600060015481526020019081526020016000206000820151816000015560208201518160010160006101000a81548173ffffffffffffffffffffffffffffffffffffffff021916908373ffffffffffffffffffffffffffffffffffffffff160217905550604082015181600201556060820151816003015560808201518160040160006101000a81548173ffffffffffffffffffffffffffffffffffffffff021916908373ffffffffffffffffffffffffffffffffffffffff16021790555060a08201518160050160006101000a81548173ffffffffffffffffffffffffffffffffffffffff021916908373ffffffffffffffffffffffffffffffffffffffff16021790555060c08201518160050160146101000a81548160ff0219169083151502179055509050505b60008111156115c9578273ffffffffffffffffffffffffffffffffffffffff166323b872dd3330856040518463ffffffff1660e01b815260040161138593929190611b16565b600060405180830381600087803b15801561139f57600080fd5b505af11580156113b3573d6000803e3d6000fd5b505050506040518060e0016040528060015481526020018473ffffffffffffffffffffffffffffffffffffffff1681526020018381526020018281526020013373ffffffffffffffffffffffffffffffffffffffff168152602001600073ffffffffffffffffffffffffffffffffffffffff168152602001600115158152506003600060015481526020019081526020016000206000820151816000015560208201518160010160006101000a81548173ffffffffffffffffffffffffffffffffffffffff021916908373ffffffffffffffffffffffffffffffffffffffff160217905550604082015181600201556060820151816003015560808201518160040160006101000a81548173ffffffffffffffffffffffffffffffffffffffff021916908373ffffffffffffffffffffffffffffffffffffffff16021790555060a08201518160050160006101000a81548173ffffffffffffffffffffffffffffffffffffffff021916908373ffffffffffffffffffffffffffffffffffffffff16021790555060c08201518160050160146101000a81548160ff0219169083151502179055509050503373ffffffffffffffffffffffffffffffffffffffff168373ffffffffffffffffffffffffffffffffffffffff167f655a0cf9c8db81512be9a76dc1c5ae5380b8816ce6ad659cd61b715e2999d59a60015485856040516115c093929190611cf4565b60405180910390a35b6001600081905550505050565b61166e82826040516024016115ec929190611bba565b6040516020818303038152906040527f9710a9d0000000000000000000000000000000000000000000000000000000007bffffffffffffffffffffffffffffffffffffffffffffffffffffffff19166020820180517bffffffffffffffffffffffffffffffffffffffffffffffffffffffff83818316178352505050506117a7565b5050565b61170a8282604051602401611688929190611b8a565b6040516020818303038152906040527f319af333000000000000000000000000000000000000000000000000000000007bffffffffffffffffffffffffffffffffffffffffffffffffffffffff19166020820180517bffffffffffffffffffffffffffffffffffffffffffffffffffffffff83818316178352505050506117a7565b5050565b6117a4816040516024016117229190611b68565b6040516020818303038152906040527f41304fac000000000000000000000000000000000000000000000000000000007bffffffffffffffffffffffffffffffffffffffffffffffffffffffff19166020820180517bffffffffffffffffffffffffffffffffffffffffffffffffffffffff83818316178352505050506117a7565b50565b60008151905060006a636f6e736f6c652e6c6f679050602083016000808483855afa5050505050565b6000813590506117df816120d5565b92915050565b6000815190506117f4816120ec565b92915050565b60008135905061180981612103565b92915050565b60008135905061181e8161211a565b92915050565b6000815190506118338161211a565b92915050565b60006020828403121561184b57600080fd5b6000611859848285016117e5565b91505092915050565b60008060006060848603121561187757600080fd5b6000611885868287016117fa565b93505060206118968682870161180f565b92505060406118a78682870161180f565b9150509250925092565b6000602082840312156118c357600080fd5b60006118d18482850161180f565b91505092915050565b6000602082840312156118ec57600080fd5b60006118fa84828501611824565b91505092915050565b6000806040838503121561191657600080fd5b60006119248582860161180f565b9250506020611935858286016117d0565b9150509250929050565b6000806040838503121561195257600080fd5b60006119608582860161180f565b92505060206119718582860161180f565b9150509250929050565b61198481611ec8565b82525050565b61199381611e6e565b82525050565b6119a281611e5c565b82525050565b6119b181611e80565b82525050565b6119c081611eda565b82525050565b6119cf81611efe565b82525050565b60006119e082611d2b565b6119ea8185611d36565b93506119fa818560208601611f46565b611a0381612020565b840191505092915050565b6000611a1b601783611d36565b9150611a2682612031565b602082019050919050565b6000611a3e600e83611d36565b9150611a498261205a565b602082019050919050565b6000611a61601283611d36565b9150611a6c82612083565b602082019050919050565b6000611a84601f83611d36565b9150611a8f826120ac565b602082019050919050565b611aa381611ebe565b82525050565b6000602082019050611abe6000830184611999565b92915050565b6000602082019050611ad9600083018461198a565b92915050565b6000606082019050611af46000830186611999565b611b01602083018561197b565b611b0e6040830184611a9a565b949350505050565b6000606082019050611b2b6000830186611999565b611b386020830185611999565b611b456040830184611a9a565b949350505050565b6000602082019050611b6260008301846119c6565b92915050565b60006020820190508181036000830152611b8281846119d5565b905092915050565b60006040820190508181036000830152611ba481856119d5565b9050611bb36020830184611999565b9392505050565b60006040820190508181036000830152611bd481856119d5565b9050611be36020830184611a9a565b9392505050565b60006020820190508181036000830152611c0381611a0e565b9050919050565b60006020820190508181036000830152611c2381611a31565b9050919050565b60006020820190508181036000830152611c4381611a54565b9050919050565b60006020820190508181036000830152611c6381611a77565b9050919050565b6000602082019050611c7f6000830184611a9a565b92915050565b600060e082019050611c9a600083018a611a9a565b611ca760208301896119b7565b611cb46040830188611a9a565b611cc16060830187611a9a565b611cce608083018661198a565b611cdb60a083018561198a565b611ce860c08301846119a8565b98975050505050505050565b6000606082019050611d096000830186611a9a565b611d166020830185611a9a565b611d236040830184611a9a565b949350505050565b600081519050919050565b600082825260208201905092915050565b6000611d5282611ebe565b9150611d5d83611ebe565b9250827fffffffffffffffffffffffffffffffffffffffffffffffffffffffffffffffff03821115611d9257611d91611fc2565b5b828201905092915050565b6000611da882611ebe565b9150611db383611ebe565b925082611dc357611dc2611ff1565b5b828204905092915050565b6000611dd982611ebe565b9150611de483611ebe565b9250817fffffffffffffffffffffffffffffffffffffffffffffffffffffffffffffffff0483118215151615611e1d57611e1c611fc2565b5b828202905092915050565b6000611e3382611ebe565b9150611e3e83611ebe565b925082821015611e5157611e50611fc2565b5b828203905092915050565b6000611e6782611e9e565b9050919050565b6000611e7982611e9e565b9050919050565b60008115159050919050565b6000611e9782611e5c565b9050919050565b600073ffffffffffffffffffffffffffffffffffffffff82169050919050565b6000819050919050565b6000611ed382611f22565b9050919050565b6000611ee582611eec565b9050919050565b6000611ef782611e9e565b9050919050565b6000611f0982611f10565b9050919050565b6000611f1b82611e9e565b9050919050565b6000611f2d82611f34565b9050919050565b6000611f3f82611e9e565b9050919050565b60005b83811015611f64578082015181840152602081019050611f49565b83811115611f73576000848401525b50505050565b6000611f8482611ebe565b91507fffffffffffffffffffffffffffffffffffffffffffffffffffffffffffffffff821415611fb757611fb6611fc2565b5b600182019050919050565b7f4e487b7100000000000000000000000000000000000000000000000000000000600052601160045260246000fd5b7f4e487b7100000000000000000000000000000000000000000000000000000000600052601260045260246000fd5b6000601f19601f8301169050919050565b7f50726963652063616e2774206265206e65676174697665000000000000000000600082015250565b7f6e6f7420656e6f7567682e2e2e2e000000000000000000000000000000000000600082015250565b7f6974656d20646f65736e27742065786973740000000000000000000000000000600082015250565b7f5265656e7472616e637947756172643a207265656e7472616e742063616c6c00600082015250565b6120de81611e6e565b81146120e957600080fd5b50565b6120f581611e80565b811461210057600080fd5b50565b61210c81611e8c565b811461211757600080fd5b50565b61212381611ebe565b811461212e57600080fd5b5056fe706972617465546f6b656e2062616c616e6365206f66207468697320636f6e7472616374203a20a264697066735822122056cac4e0bcbd39a8768a79196b96b8dedae64a0a271e515c46f50dc2b53c85d464736f6c63430008040033",
  "linkReferences": {},
  "deployedLinkReferences": {}
}