{
  "_format": "hh-sol-artifact-1",
  "contractName": "Marketplace",
  "sourceName": "src/backend/contracts/Marketplace.sol",
  "abi": [
    {
      "inputs": [
        {
          "internalType": "uint256",
          "name": "_feePercent",
          "type": "uint256"
        },
        {
          "internalType": "contract PIRATE",
          "name": "_pirate",
          "type": "address"
        }
      ],
      "stateMutability": "nonpayable",
      "type": "constructor"
    },
    {
      "anonymous": false,
      "inputs": [
        {
          "indexed": false,
          "internalType": "uint256",
          "name": "itemId",
          "type": "uint256"
        },
        {
          "indexed": true,
          "internalType": "address",
          "name": "nft",
          "type": "address"
        },
        {
          "indexed": false,
          "internalType": "uint256",
          "name": "tokenId",
          "type": "uint256"
        },
        {
          "indexed": false,
          "internalType": "uint256",
          "name": "price",
          "type": "uint256"
        },
        {
          "indexed": true,
          "internalType": "address",
          "name": "seller",
          "type": "address"
        },
        {
          "indexed": true,
          "internalType": "address",
          "name": "buyer",
          "type": "address"
        }
      ],
      "name": "Bought",
      "type": "event"
    },
    {
      "anonymous": false,
      "inputs": [
        {
          "indexed": false,
          "internalType": "uint256",
          "name": "itemId",
          "type": "uint256"
        },
        {
          "indexed": true,
          "internalType": "address",
          "name": "nft",
          "type": "address"
        },
        {
          "indexed": false,
          "internalType": "uint256",
          "name": "tokenId",
          "type": "uint256"
        },
        {
          "indexed": false,
          "internalType": "uint256",
          "name": "price",
          "type": "uint256"
        },
        {
          "indexed": true,
          "internalType": "address",
          "name": "seller",
          "type": "address"
        }
      ],
      "name": "Offered",
      "type": "event"
    },
    {
      "inputs": [
        {
          "internalType": "uint256",
          "name": "_itemId",
          "type": "uint256"
        },
        {
          "internalType": "address payable",
          "name": "_seller",
          "type": "address"
        }
      ],
      "name": "changeNFTHolder",
      "outputs": [],
      "stateMutability": "nonpayable",
      "type": "function"
    },
    {
      "inputs": [],
      "name": "feeAccount",
      "outputs": [
        {
          "internalType": "address payable",
          "name": "",
          "type": "address"
        }
      ],
      "stateMutability": "view",
      "type": "function"
    },
    {
      "inputs": [],
      "name": "feePercent",
      "outputs": [
        {
          "internalType": "uint256",
          "name": "",
          "type": "uint256"
        }
      ],
      "stateMutability": "view",
      "type": "function"
    },
    {
      "inputs": [
        {
          "internalType": "uint256",
          "name": "_itemId",
          "type": "uint256"
        }
      ],
      "name": "getNFTSeller",
      "outputs": [
        {
          "internalType": "address",
          "name": "",
          "type": "address"
        }
      ],
      "stateMutability": "view",
      "type": "function"
    },
    {
      "inputs": [
        {
          "internalType": "uint256",
          "name": "_itemId",
          "type": "uint256"
        }
      ],
      "name": "getTotalPrice",
      "outputs": [
        {
          "internalType": "uint256",
          "name": "",
          "type": "uint256"
        }
      ],
      "stateMutability": "view",
      "type": "function"
    },
    {
      "inputs": [],
      "name": "itemCount",
      "outputs": [
        {
          "internalType": "uint256",
          "name": "",
          "type": "uint256"
        }
      ],
      "stateMutability": "view",
      "type": "function"
    },
    {
      "inputs": [
        {
          "internalType": "uint256",
          "name": "",
          "type": "uint256"
        }
      ],
      "name": "items",
      "outputs": [
        {
          "internalType": "uint256",
          "name": "itemId",
          "type": "uint256"
        },
        {
          "internalType": "contract IERC721",
          "name": "nft",
          "type": "address"
        },
        {
          "internalType": "uint256",
          "name": "tokenId",
          "type": "uint256"
        },
        {
          "internalType": "uint256",
          "name": "price",
          "type": "uint256"
        },
        {
          "internalType": "address payable",
          "name": "seller",
          "type": "address"
        },
        {
          "internalType": "address payable",
          "name": "owner",
          "type": "address"
        },
        {
          "internalType": "bool",
          "name": "forSale",
          "type": "bool"
        }
      ],
      "stateMutability": "view",
      "type": "function"
    },
    {
      "inputs": [
        {
          "internalType": "contract IERC721",
          "name": "_nft",
          "type": "address"
        },
        {
          "internalType": "uint256",
          "name": "_tokenId",
          "type": "uint256"
        },
        {
          "internalType": "uint256",
          "name": "_price",
          "type": "uint256"
        }
      ],
      "name": "makeItem",
      "outputs": [],
      "stateMutability": "nonpayable",
      "type": "function"
    },
    {
      "inputs": [],
      "name": "pirateToken",
      "outputs": [
        {
          "internalType": "contract PIRATE",
          "name": "",
          "type": "address"
        }
      ],
      "stateMutability": "view",
      "type": "function"
    },
    {
      "inputs": [
        {
          "internalType": "uint256",
          "name": "_itemId",
          "type": "uint256"
        }
      ],
      "name": "purchaseItem",
      "outputs": [
        {
          "internalType": "address",
          "name": "",
          "type": "address"
        }
      ],
      "stateMutability": "payable",
      "type": "function"
    },
    {
      "inputs": [
        {
          "internalType": "uint256",
          "name": "_itemId",
          "type": "uint256"
        }
      ],
      "name": "removeFromSale",
      "outputs": [],
      "stateMutability": "nonpayable",
      "type": "function"
    },
    {
      "inputs": [
        {
          "internalType": "uint256",
          "name": "_itemId",
          "type": "uint256"
        },
        {
          "internalType": "uint256",
          "name": "_price",
          "type": "uint256"
        }
      ],
      "name": "setPrice",
      "outputs": [],
      "stateMutability": "nonpayable",
      "type": "function"
    }
  ],
  "bytecode": "0x60c06040523480156200001157600080fd5b5060405162001b8138038062001b818339818101604052810190620000379190620000f5565b60016000819055503373ffffffffffffffffffffffffffffffffffffffff1660808173ffffffffffffffffffffffffffffffffffffffff1660601b815250508160a0818152505080600260006101000a81548173ffffffffffffffffffffffffffffffffffffffff021916908373ffffffffffffffffffffffffffffffffffffffff1602179055505050620001bc565b600081519050620000d88162000188565b92915050565b600081519050620000ef81620001a2565b92915050565b600080604083850312156200010957600080fd5b60006200011985828601620000de565b92505060206200012c85828601620000c7565b9150509250929050565b600062000143826200015e565b9050919050565b6000620001578262000136565b9050919050565b600073ffffffffffffffffffffffffffffffffffffffff82169050919050565b6000819050919050565b62000193816200014a565b81146200019f57600080fd5b50565b620001ad816200017e565b8114620001b957600080fd5b50565b60805160601c60a05161198e620001f3600039600081816103d001526105060152600081816103660152610828015261198e6000f3fe6080604052600436106100a75760003560e01c8063bfb231d211610064578063bfb231d2146101bc578063ca7dd375146101ff578063d02a5ac21461023c578063d38ea5bf14610267578063f7d9757714610297578063fa00afc7146102c0576100a7565b80631361a3b6146100ac57806365e17c9d146100d557806366b4d7ec146101005780636bfb0d011461013d5780637fd6f15c146101685780638f5715b514610193575b600080fd5b3480156100b857600080fd5b506100d360048036038101906100ce91906111cb565b6102e9565b005b3480156100e157600080fd5b506100ea610364565b6040516100f791906113cf565b60405180910390f35b34801561010c57600080fd5b50610127600480360381019061012291906111cb565b610388565b60405161013491906113b4565b60405180910390f35b34801561014957600080fd5b506101526103c8565b60405161015f91906114de565b60405180910390f35b34801561017457600080fd5b5061017d6103ce565b60405161018a91906114de565b60405180910390f35b34801561019f57600080fd5b506101ba60048036038101906101b5919061121d565b6103f2565b005b3480156101c857600080fd5b506101e360048036038101906101de91906111cb565b610451565b6040516101f697969594939291906114f9565b60405180910390f35b34801561020b57600080fd5b50610226600480360381019061022191906111cb565b610500565b60405161023391906114de565b60405180910390f35b34801561024857600080fd5b50610251610563565b60405161025e9190611421565b60405180910390f35b610281600480360381019061027c91906111cb565b610589565b60405161028e91906113b4565b60405180910390f35b3480156102a357600080fd5b506102be60048036038101906102b99190611259565b610af1565b005b3480156102cc57600080fd5b506102e760048036038101906102e2919061117c565b610b76565b005b600060036000838152602001908152602001600020905060008160050160146101000a81548160ff021916908315150217905550338160050160006101000a81548173ffffffffffffffffffffffffffffffffffffffff021916908373ffffffffffffffffffffffffffffffffffffffff1602179055505050565b7f000000000000000000000000000000000000000000000000000000000000000081565b60006003600083815260200190815260200160002060040160009054906101000a900473ffffffffffffffffffffffffffffffffffffffff169050919050565b60015481565b7f000000000000000000000000000000000000000000000000000000000000000081565b6000600360008481526020019081526020016000209050818160040160006101000a81548173ffffffffffffffffffffffffffffffffffffffff021916908373ffffffffffffffffffffffffffffffffffffffff160217905550505050565b60036020528060005260406000206000915090508060000154908060010160009054906101000a900473ffffffffffffffffffffffffffffffffffffffff16908060020154908060030154908060040160009054906101000a900473ffffffffffffffffffffffffffffffffffffffff16908060050160009054906101000a900473ffffffffffffffffffffffffffffffffffffffff16908060050160149054906101000a900460ff16905087565b600060647f0000000000000000000000000000000000000000000000000000000000000000606461053191906115bb565b60036000858152602001908152602001600020600301546105529190611642565b61055c9190611611565b9050919050565b600260009054906101000a900473ffffffffffffffffffffffffffffffffffffffff1681565b6000600260005414156105d1576040517f08c379a00000000000000000000000000000000000000000000000000000000081526004016105c8906114be565b60405180910390fd5b600260008190555060006105e483610500565b9050600060036000858152602001908152602001600020905060008411801561060f57506001548411155b61064e576040517f08c379a00000000000000000000000000000000000000000000000000000000081526004016106459061149e565b60405180910390fd5b81600260009054906101000a900473ffffffffffffffffffffffffffffffffffffffff1673ffffffffffffffffffffffffffffffffffffffff166370a08231336040518263ffffffff1660e01b81526004016106aa91906113b4565b60206040518083038186803b1580156106c257600080fd5b505afa1580156106d6573d6000803e3d6000fd5b505050506040513d601f19601f820116820180604052508101906106fa91906111f4565b101561073b576040517f08c379a00000000000000000000000000000000000000000000000000000000081526004016107329061147e565b60405180910390fd5b6107796040518060400160405280600281526020017f6631000000000000000000000000000000000000000000000000000000000000815250611066565b6107b76040518060400160405280600281526020017f6632000000000000000000000000000000000000000000000000000000000000815250611066565b8060040160009054906101000a900473ffffffffffffffffffffffffffffffffffffffff1673ffffffffffffffffffffffffffffffffffffffff166108fc82600301549081150290604051600060405180830381858888f19350505050158015610825573d6000803e3d6000fd5b507f000000000000000000000000000000000000000000000000000000000000000073ffffffffffffffffffffffffffffffffffffffff166108fc826003015484610870919061169c565b9081150290604051600060405180830381858888f1935050505015801561089b573d6000803e3d6000fd5b506108da6040518060400160405280600281526020017f6633000000000000000000000000000000000000000000000000000000000000815250611066565b60008160050160146101000a81548160ff0219169083151502179055508060010160009054906101000a900473ffffffffffffffffffffffffffffffffffffffff1673ffffffffffffffffffffffffffffffffffffffff166323b872dd303384600201546040518463ffffffff1660e01b815260040161095c939291906113ea565b600060405180830381600087803b15801561097657600080fd5b505af115801561098a573d6000803e3d6000fd5b505050506109cc6040518060400160405280600281526020017f6634000000000000000000000000000000000000000000000000000000000000815250611066565b3373ffffffffffffffffffffffffffffffffffffffff168160040160009054906101000a900473ffffffffffffffffffffffffffffffffffffffff1673ffffffffffffffffffffffffffffffffffffffff168260010160009054906101000a900473ffffffffffffffffffffffffffffffffffffffff1673ffffffffffffffffffffffffffffffffffffffff167f8b4c9c8a607d67b321582dd8461041b1dc2ceeca70c8b7f37f8e02095cf2e76d8785600201548660030154604051610a9493929190611568565b60405180910390a4338160050160006101000a81548173ffffffffffffffffffffffffffffffffffffffff021916908373ffffffffffffffffffffffffffffffffffffffff16021790555033925050506001600081905550919050565b6000600360008481526020019081526020016000209050818160030181905550338160050160006101000a81548173ffffffffffffffffffffffffffffffffffffffff021916908373ffffffffffffffffffffffffffffffffffffffff16021790555060018160050160146101000a81548160ff021916908315150217905550505050565b60026000541415610bbc576040517f08c379a0000000000000000000000000000000000000000000000000000000008152600401610bb3906114be565b60405180910390fd5b60026000819055506000811015610c08576040517f08c379a0000000000000000000000000000000000000000000000000000000008152600401610bff9061145e565b60405180910390fd5b60016000815480929190610c1b906117b7565b91905055506000811415610dcf576040518060e0016040528060015481526020018473ffffffffffffffffffffffffffffffffffffffff1681526020018381526020018281526020013373ffffffffffffffffffffffffffffffffffffffff1681526020013373ffffffffffffffffffffffffffffffffffffffff168152602001600015158152506003600060015481526020019081526020016000206000820151816000015560208201518160010160006101000a81548173ffffffffffffffffffffffffffffffffffffffff021916908373ffffffffffffffffffffffffffffffffffffffff160217905550604082015181600201556060820151816003015560808201518160040160006101000a81548173ffffffffffffffffffffffffffffffffffffffff021916908373ffffffffffffffffffffffffffffffffffffffff16021790555060a08201518160050160006101000a81548173ffffffffffffffffffffffffffffffffffffffff021916908373ffffffffffffffffffffffffffffffffffffffff16021790555060c08201518160050160146101000a81548160ff0219169083151502179055509050505b6000811115611059578273ffffffffffffffffffffffffffffffffffffffff166323b872dd3330856040518463ffffffff1660e01b8152600401610e15939291906113ea565b600060405180830381600087803b158015610e2f57600080fd5b505af1158015610e43573d6000803e3d6000fd5b505050506040518060e0016040528060015481526020018473ffffffffffffffffffffffffffffffffffffffff1681526020018381526020018281526020013373ffffffffffffffffffffffffffffffffffffffff168152602001600073ffffffffffffffffffffffffffffffffffffffff168152602001600115158152506003600060015481526020019081526020016000206000820151816000015560208201518160010160006101000a81548173ffffffffffffffffffffffffffffffffffffffff021916908373ffffffffffffffffffffffffffffffffffffffff160217905550604082015181600201556060820151816003015560808201518160040160006101000a81548173ffffffffffffffffffffffffffffffffffffffff021916908373ffffffffffffffffffffffffffffffffffffffff16021790555060a08201518160050160006101000a81548173ffffffffffffffffffffffffffffffffffffffff021916908373ffffffffffffffffffffffffffffffffffffffff16021790555060c08201518160050160146101000a81548160ff0219169083151502179055509050503373ffffffffffffffffffffffffffffffffffffffff168373ffffffffffffffffffffffffffffffffffffffff167f655a0cf9c8db81512be9a76dc1c5ae5380b8816ce6ad659cd61b715e2999d59a600154858560405161105093929190611568565b60405180910390a35b6001600081905550505050565b6110fc8160405160240161107a919061143c565b6040516020818303038152906040527f41304fac000000000000000000000000000000000000000000000000000000007bffffffffffffffffffffffffffffffffffffffffffffffffffffffff19166020820180517bffffffffffffffffffffffffffffffffffffffffffffffffffffffff83818316178352505050506110ff565b50565b60008151905060006a636f6e736f6c652e6c6f679050602083016000808483855afa5050505050565b60008135905061113781611913565b92915050565b60008135905061114c8161192a565b92915050565b60008135905061116181611941565b92915050565b60008151905061117681611941565b92915050565b60008060006060848603121561119157600080fd5b600061119f8682870161113d565b93505060206111b086828701611152565b92505060406111c186828701611152565b9150509250925092565b6000602082840312156111dd57600080fd5b60006111eb84828501611152565b91505092915050565b60006020828403121561120657600080fd5b600061121484828501611167565b91505092915050565b6000806040838503121561123057600080fd5b600061123e85828601611152565b925050602061124f85828601611128565b9150509250929050565b6000806040838503121561126c57600080fd5b600061127a85828601611152565b925050602061128b85828601611152565b9150509250929050565b61129e816116e2565b82525050565b6112ad816116d0565b82525050565b6112bc816116f4565b82525050565b6112cb8161173c565b82525050565b6112da81611760565b82525050565b60006112eb8261159f565b6112f581856115aa565b9350611305818560208601611784565b61130e8161185e565b840191505092915050565b60006113266017836115aa565b91506113318261186f565b602082019050919050565b6000611349600e836115aa565b915061135482611898565b602082019050919050565b600061136c6012836115aa565b9150611377826118c1565b602082019050919050565b600061138f601f836115aa565b915061139a826118ea565b602082019050919050565b6113ae81611732565b82525050565b60006020820190506113c960008301846112a4565b92915050565b60006020820190506113e46000830184611295565b92915050565b60006060820190506113ff60008301866112a4565b61140c60208301856112a4565b61141960408301846113a5565b949350505050565b600060208201905061143660008301846112d1565b92915050565b6000602082019050818103600083015261145681846112e0565b905092915050565b6000602082019050818103600083015261147781611319565b9050919050565b600060208201905081810360008301526114978161133c565b9050919050565b600060208201905081810360008301526114b78161135f565b9050919050565b600060208201905081810360008301526114d781611382565b9050919050565b60006020820190506114f360008301846113a5565b92915050565b600060e08201905061150e600083018a6113a5565b61151b60208301896112c2565b61152860408301886113a5565b61153560608301876113a5565b6115426080830186611295565b61154f60a0830185611295565b61155c60c08301846112b3565b98975050505050505050565b600060608201905061157d60008301866113a5565b61158a60208301856113a5565b61159760408301846113a5565b949350505050565b600081519050919050565b600082825260208201905092915050565b60006115c682611732565b91506115d183611732565b9250827fffffffffffffffffffffffffffffffffffffffffffffffffffffffffffffffff0382111561160657611605611800565b5b828201905092915050565b600061161c82611732565b915061162783611732565b9250826116375761163661182f565b5b828204905092915050565b600061164d82611732565b915061165883611732565b9250817fffffffffffffffffffffffffffffffffffffffffffffffffffffffffffffffff048311821515161561169157611690611800565b5b828202905092915050565b60006116a782611732565b91506116b283611732565b9250828210156116c5576116c4611800565b5b828203905092915050565b60006116db82611712565b9050919050565b60006116ed82611712565b9050919050565b60008115159050919050565b600061170b826116d0565b9050919050565b600073ffffffffffffffffffffffffffffffffffffffff82169050919050565b6000819050919050565b60006117478261174e565b9050919050565b600061175982611712565b9050919050565b600061176b82611772565b9050919050565b600061177d82611712565b9050919050565b60005b838110156117a2578082015181840152602081019050611787565b838111156117b1576000848401525b50505050565b60006117c282611732565b91507fffffffffffffffffffffffffffffffffffffffffffffffffffffffffffffffff8214156117f5576117f4611800565b5b600182019050919050565b7f4e487b7100000000000000000000000000000000000000000000000000000000600052601160045260246000fd5b7f4e487b7100000000000000000000000000000000000000000000000000000000600052601260045260246000fd5b6000601f19601f8301169050919050565b7f50726963652063616e2774206265206e65676174697665000000000000000000600082015250565b7f6e6f7420656e6f7567682e2e2e2e000000000000000000000000000000000000600082015250565b7f6974656d20646f65736e27742065786973740000000000000000000000000000600082015250565b7f5265656e7472616e637947756172643a207265656e7472616e742063616c6c00600082015250565b61191c816116e2565b811461192757600080fd5b50565b61193381611700565b811461193e57600080fd5b50565b61194a81611732565b811461195557600080fd5b5056fea2646970667358221220aa44c0ac1e078049de340e2d051ed0342c8f50ca26c5e9ce10703f93559e1a5764736f6c63430008040033",
  "linkReferences": {},
  "deployedLinkReferences": {}
}