{
  "_format": "hh-sol-artifact-1",
  "contractName": "Marketplace",
  "sourceName": "src/backend/contracts/Marketplace.sol",
  "abi": [
    {
      "inputs": [
        {
          "internalType": "uint256",
          "name": "_feePercent",
          "type": "uint256"
        }
      ],
      "stateMutability": "nonpayable",
      "type": "constructor"
    },
    {
      "anonymous": false,
      "inputs": [
        {
          "indexed": false,
          "internalType": "uint256",
          "name": "itemId",
          "type": "uint256"
        },
        {
          "indexed": true,
          "internalType": "address",
          "name": "nft",
          "type": "address"
        },
        {
          "indexed": false,
          "internalType": "uint256",
          "name": "tokenId",
          "type": "uint256"
        },
        {
          "indexed": false,
          "internalType": "uint256",
          "name": "price",
          "type": "uint256"
        },
        {
          "indexed": true,
          "internalType": "address",
          "name": "seller",
          "type": "address"
        },
        {
          "indexed": true,
          "internalType": "address",
          "name": "buyer",
          "type": "address"
        }
      ],
      "name": "Bought",
      "type": "event"
    },
    {
      "anonymous": false,
      "inputs": [
        {
          "indexed": false,
          "internalType": "uint256",
          "name": "itemId",
          "type": "uint256"
        },
        {
          "indexed": true,
          "internalType": "address",
          "name": "nft",
          "type": "address"
        },
        {
          "indexed": false,
          "internalType": "uint256",
          "name": "tokenId",
          "type": "uint256"
        },
        {
          "indexed": false,
          "internalType": "uint256",
          "name": "price",
          "type": "uint256"
        },
        {
          "indexed": true,
          "internalType": "address",
          "name": "seller",
          "type": "address"
        }
      ],
      "name": "Offered",
      "type": "event"
    },
    {
      "inputs": [],
      "name": "feeAccount",
      "outputs": [
        {
          "internalType": "address payable",
          "name": "",
          "type": "address"
        }
      ],
      "stateMutability": "view",
      "type": "function"
    },
    {
      "inputs": [],
      "name": "feePercent",
      "outputs": [
        {
          "internalType": "uint256",
          "name": "",
          "type": "uint256"
        }
      ],
      "stateMutability": "view",
      "type": "function"
    },
    {
      "inputs": [
        {
          "internalType": "uint256",
          "name": "_itemId",
          "type": "uint256"
        }
      ],
      "name": "getNFTSeller",
      "outputs": [
        {
          "internalType": "address",
          "name": "",
          "type": "address"
        }
      ],
      "stateMutability": "view",
      "type": "function"
    },
    {
      "inputs": [
        {
          "internalType": "uint256",
          "name": "_itemId",
          "type": "uint256"
        }
      ],
      "name": "getTotalPrice",
      "outputs": [
        {
          "internalType": "uint256",
          "name": "",
          "type": "uint256"
        }
      ],
      "stateMutability": "view",
      "type": "function"
    },
    {
      "inputs": [],
      "name": "itemCount",
      "outputs": [
        {
          "internalType": "uint256",
          "name": "",
          "type": "uint256"
        }
      ],
      "stateMutability": "view",
      "type": "function"
    },
    {
      "inputs": [
        {
          "internalType": "uint256",
          "name": "",
          "type": "uint256"
        }
      ],
      "name": "items",
      "outputs": [
        {
          "internalType": "uint256",
          "name": "itemId",
          "type": "uint256"
        },
        {
          "internalType": "contract IERC721",
          "name": "nft",
          "type": "address"
        },
        {
          "internalType": "uint256",
          "name": "tokenId",
          "type": "uint256"
        },
        {
          "internalType": "uint256",
          "name": "price",
          "type": "uint256"
        },
        {
          "internalType": "address payable",
          "name": "seller",
          "type": "address"
        },
        {
          "internalType": "bool",
          "name": "forSale",
          "type": "bool"
        }
      ],
      "stateMutability": "view",
      "type": "function"
    },
    {
      "inputs": [
        {
          "internalType": "contract IERC721",
          "name": "_nft",
          "type": "address"
        },
        {
          "internalType": "uint256",
          "name": "_tokenId",
          "type": "uint256"
        },
        {
          "internalType": "uint256",
          "name": "_price",
          "type": "uint256"
        }
      ],
      "name": "makeItem",
      "outputs": [],
      "stateMutability": "nonpayable",
      "type": "function"
    },
    {
      "inputs": [
        {
          "internalType": "uint256",
          "name": "_itemId",
          "type": "uint256"
        }
      ],
      "name": "purchaseItem",
      "outputs": [
        {
          "internalType": "address",
          "name": "",
          "type": "address"
        }
      ],
      "stateMutability": "payable",
      "type": "function"
    }
  ],
  "bytecode": "0x60c060405234801561001057600080fd5b5060405161119d38038061119d83398181016040528101906100329190610094565b60016000819055503373ffffffffffffffffffffffffffffffffffffffff1660808173ffffffffffffffffffffffffffffffffffffffff1660601b815250508060a08181525050506100de565b60008151905061008e816100c7565b92915050565b6000602082840312156100a657600080fd5b60006100b48482850161007f565b91505092915050565b6000819050919050565b6100d0816100bd565b81146100db57600080fd5b50565b60805160601c60a051611089610114600039600081816102820152610333015260008181610218015261050901526110896000f3fe60806040526004361061007b5760003560e01c8063bfb231d21161004e578063bfb231d21461013e578063ca7dd37514610180578063d38ea5bf146101bd578063fa00afc7146101ed5761007b565b806365e17c9d1461008057806366b4d7ec146100ab5780636bfb0d01146100e85780637fd6f15c14610113575b600080fd5b34801561008c57600080fd5b50610095610216565b6040516100a29190610b79565b60405180910390f35b3480156100b757600080fd5b506100d260048036038101906100cd9190610a5e565b61023a565b6040516100df9190610b5e565b60405180910390f35b3480156100f457600080fd5b506100fd61027a565b60405161010a9190610c4b565b60405180910390f35b34801561011f57600080fd5b50610128610280565b6040516101359190610c4b565b60405180910390f35b34801561014a57600080fd5b5061016560048036038101906101609190610a5e565b6102a4565b60405161017796959493929190610c66565b60405180910390f35b34801561018c57600080fd5b506101a760048036038101906101a29190610a5e565b61032d565b6040516101b49190610c4b565b60405180910390f35b6101d760048036038101906101d29190610a5e565b610390565b6040516101e49190610b5e565b60405180910390f35b3480156101f957600080fd5b50610214600480360381019061020f9190610a0f565b610713565b005b7f000000000000000000000000000000000000000000000000000000000000000081565b60006002600083815260200190815260200160002060040160009054906101000a900473ffffffffffffffffffffffffffffffffffffffff169050919050565b60015481565b7f000000000000000000000000000000000000000000000000000000000000000081565b60026020528060005260406000206000915090508060000154908060010160009054906101000a900473ffffffffffffffffffffffffffffffffffffffff16908060020154908060030154908060040160009054906101000a900473ffffffffffffffffffffffffffffffffffffffff16908060040160149054906101000a900460ff16905086565b600060647f0000000000000000000000000000000000000000000000000000000000000000606461035e9190610d0f565b600260008581526020019081526020016000206003015461037f9190610d96565b6103899190610d65565b9050919050565b6000600260005414156103d8576040517f08c379a00000000000000000000000000000000000000000000000000000000081526004016103cf90610c2b565b60405180910390fd5b600260008190555060006103eb8361032d565b9050600060026000858152602001908152602001600020905060008411801561041657506001548411155b610455576040517f08c379a000000000000000000000000000000000000000000000000000000000815260040161044c90610c0b565b60405180910390fd5b81341015610498576040517f08c379a000000000000000000000000000000000000000000000000000000000815260040161048f90610beb565b60405180910390fd5b8060040160009054906101000a900473ffffffffffffffffffffffffffffffffffffffff1673ffffffffffffffffffffffffffffffffffffffff166108fc82600301549081150290604051600060405180830381858888f19350505050158015610506573d6000803e3d6000fd5b507f000000000000000000000000000000000000000000000000000000000000000073ffffffffffffffffffffffffffffffffffffffff166108fc8260030154846105519190610df0565b9081150290604051600060405180830381858888f1935050505015801561057c573d6000803e3d6000fd5b5060008160040160146101000a81548160ff0219169083151502179055508060010160009054906101000a900473ffffffffffffffffffffffffffffffffffffffff1673ffffffffffffffffffffffffffffffffffffffff166323b872dd303384600201546040518463ffffffff1660e01b81526004016105ff93929190610b94565b600060405180830381600087803b15801561061957600080fd5b505af115801561062d573d6000803e3d6000fd5b505050503373ffffffffffffffffffffffffffffffffffffffff168160040160009054906101000a900473ffffffffffffffffffffffffffffffffffffffff1673ffffffffffffffffffffffffffffffffffffffff168260010160009054906101000a900473ffffffffffffffffffffffffffffffffffffffff1673ffffffffffffffffffffffffffffffffffffffff167f8b4c9c8a607d67b321582dd8461041b1dc2ceeca70c8b7f37f8e02095cf2e76d87856002015486600301546040516106f993929190610cc7565b60405180910390a433925050506001600081905550919050565b60026000541415610759576040517f08c379a000000000000000000000000000000000000000000000000000000000815260040161075090610c2b565b60405180910390fd5b6002600081905550600081116107a4576040517f08c379a000000000000000000000000000000000000000000000000000000000815260040161079b90610bcb565b60405180910390fd5b600160008154809291906107b790610eb4565b91905055508273ffffffffffffffffffffffffffffffffffffffff166323b872dd3330856040518463ffffffff1660e01b81526004016107f993929190610b94565b600060405180830381600087803b15801561081357600080fd5b505af1158015610827573d6000803e3d6000fd5b505050506040518060c0016040528060015481526020018473ffffffffffffffffffffffffffffffffffffffff1681526020018381526020018281526020013373ffffffffffffffffffffffffffffffffffffffff168152602001600115158152506002600060015481526020019081526020016000206000820151816000015560208201518160010160006101000a81548173ffffffffffffffffffffffffffffffffffffffff021916908373ffffffffffffffffffffffffffffffffffffffff160217905550604082015181600201556060820151816003015560808201518160040160006101000a81548173ffffffffffffffffffffffffffffffffffffffff021916908373ffffffffffffffffffffffffffffffffffffffff16021790555060a08201518160040160146101000a81548160ff0219169083151502179055509050503373ffffffffffffffffffffffffffffffffffffffff168373ffffffffffffffffffffffffffffffffffffffff167f655a0cf9c8db81512be9a76dc1c5ae5380b8816ce6ad659cd61b715e2999d59a60015485856040516109d093929190610cc7565b60405180910390a36001600081905550505050565b6000813590506109f481611025565b92915050565b600081359050610a098161103c565b92915050565b600080600060608486031215610a2457600080fd5b6000610a32868287016109e5565b9350506020610a43868287016109fa565b9250506040610a54868287016109fa565b9150509250925092565b600060208284031215610a7057600080fd5b6000610a7e848285016109fa565b91505092915050565b610a9081610e36565b82525050565b610a9f81610e24565b82525050565b610aae81610e48565b82525050565b610abd81610e90565b82525050565b6000610ad0601f83610cfe565b9150610adb82610f5b565b602082019050919050565b6000610af3603383610cfe565b9150610afe82610f84565b604082019050919050565b6000610b16601283610cfe565b9150610b2182610fd3565b602082019050919050565b6000610b39601f83610cfe565b9150610b4482610ffc565b602082019050919050565b610b5881610e86565b82525050565b6000602082019050610b736000830184610a96565b92915050565b6000602082019050610b8e6000830184610a87565b92915050565b6000606082019050610ba96000830186610a96565b610bb66020830185610a96565b610bc36040830184610b4f565b949350505050565b60006020820190508181036000830152610be481610ac3565b9050919050565b60006020820190508181036000830152610c0481610ae6565b9050919050565b60006020820190508181036000830152610c2481610b09565b9050919050565b60006020820190508181036000830152610c4481610b2c565b9050919050565b6000602082019050610c606000830184610b4f565b92915050565b600060c082019050610c7b6000830189610b4f565b610c886020830188610ab4565b610c956040830187610b4f565b610ca26060830186610b4f565b610caf6080830185610a87565b610cbc60a0830184610aa5565b979650505050505050565b6000606082019050610cdc6000830186610b4f565b610ce96020830185610b4f565b610cf66040830184610b4f565b949350505050565b600082825260208201905092915050565b6000610d1a82610e86565b9150610d2583610e86565b9250827fffffffffffffffffffffffffffffffffffffffffffffffffffffffffffffffff03821115610d5a57610d59610efd565b5b828201905092915050565b6000610d7082610e86565b9150610d7b83610e86565b925082610d8b57610d8a610f2c565b5b828204905092915050565b6000610da182610e86565b9150610dac83610e86565b9250817fffffffffffffffffffffffffffffffffffffffffffffffffffffffffffffffff0483118215151615610de557610de4610efd565b5b828202905092915050565b6000610dfb82610e86565b9150610e0683610e86565b925082821015610e1957610e18610efd565b5b828203905092915050565b6000610e2f82610e66565b9050919050565b6000610e4182610e66565b9050919050565b60008115159050919050565b6000610e5f82610e24565b9050919050565b600073ffffffffffffffffffffffffffffffffffffffff82169050919050565b6000819050919050565b6000610e9b82610ea2565b9050919050565b6000610ead82610e66565b9050919050565b6000610ebf82610e86565b91507fffffffffffffffffffffffffffffffffffffffffffffffffffffffffffffffff821415610ef257610ef1610efd565b5b600182019050919050565b7f4e487b7100000000000000000000000000000000000000000000000000000000600052601160045260246000fd5b7f4e487b7100000000000000000000000000000000000000000000000000000000600052601260045260246000fd5b7f5072696365206d7573742062652067726561746572207468616e207a65726f00600082015250565b7f6e6f7420656e6f75676820657468657220746f20636f766572206974656d207060008201527f7269636520616e64206d61726b65742066656500000000000000000000000000602082015250565b7f6974656d20646f65736e27742065786973740000000000000000000000000000600082015250565b7f5265656e7472616e637947756172643a207265656e7472616e742063616c6c00600082015250565b61102e81610e54565b811461103957600080fd5b50565b61104581610e86565b811461105057600080fd5b5056fea2646970667358221220503d9a55b3771f3f4846b832eedd9e768d382e5c1fc86d4d5f2eb4994bbe2dc164736f6c63430008040033",
  "linkReferences": {},
  "deployedLinkReferences": {}
}