{
  "_format": "hh-sol-artifact-1",
  "contractName": "Marketplace",
  "sourceName": "src/backend/contracts/Marketplace.sol",
  "abi": [
    {
      "inputs": [
        {
          "internalType": "uint256",
          "name": "_feePercent",
          "type": "uint256"
        }
      ],
      "stateMutability": "nonpayable",
      "type": "constructor"
    },
    {
      "anonymous": false,
      "inputs": [
        {
          "indexed": false,
          "internalType": "uint256",
          "name": "itemId",
          "type": "uint256"
        },
        {
          "indexed": true,
          "internalType": "address",
          "name": "nft",
          "type": "address"
        },
        {
          "indexed": false,
          "internalType": "uint256",
          "name": "tokenId",
          "type": "uint256"
        },
        {
          "indexed": false,
          "internalType": "uint256",
          "name": "price",
          "type": "uint256"
        },
        {
          "indexed": true,
          "internalType": "address",
          "name": "seller",
          "type": "address"
        },
        {
          "indexed": true,
          "internalType": "address",
          "name": "buyer",
          "type": "address"
        }
      ],
      "name": "Bought",
      "type": "event"
    },
    {
      "anonymous": false,
      "inputs": [
        {
          "indexed": false,
          "internalType": "uint256",
          "name": "itemId",
          "type": "uint256"
        },
        {
          "indexed": true,
          "internalType": "address",
          "name": "nft",
          "type": "address"
        },
        {
          "indexed": false,
          "internalType": "uint256",
          "name": "tokenId",
          "type": "uint256"
        },
        {
          "indexed": false,
          "internalType": "uint256",
          "name": "price",
          "type": "uint256"
        },
        {
          "indexed": true,
          "internalType": "address",
          "name": "seller",
          "type": "address"
        }
      ],
      "name": "Offered",
      "type": "event"
    },
    {
      "inputs": [],
      "name": "feeAccount",
      "outputs": [
        {
          "internalType": "address payable",
          "name": "",
          "type": "address"
        }
      ],
      "stateMutability": "view",
      "type": "function"
    },
    {
      "inputs": [],
      "name": "feePercent",
      "outputs": [
        {
          "internalType": "uint256",
          "name": "",
          "type": "uint256"
        }
      ],
      "stateMutability": "view",
      "type": "function"
    },
    {
      "inputs": [
        {
          "internalType": "uint256",
          "name": "_itemId",
          "type": "uint256"
        }
      ],
      "name": "getNFTSeller",
      "outputs": [
        {
          "internalType": "address",
          "name": "",
          "type": "address"
        }
      ],
      "stateMutability": "view",
      "type": "function"
    },
    {
      "inputs": [
        {
          "internalType": "uint256",
          "name": "_itemId",
          "type": "uint256"
        }
      ],
      "name": "getTotalPrice",
      "outputs": [
        {
          "internalType": "uint256",
          "name": "",
          "type": "uint256"
        }
      ],
      "stateMutability": "view",
      "type": "function"
    },
    {
      "inputs": [],
      "name": "itemCount",
      "outputs": [
        {
          "internalType": "uint256",
          "name": "",
          "type": "uint256"
        }
      ],
      "stateMutability": "view",
      "type": "function"
    },
    {
      "inputs": [
        {
          "internalType": "uint256",
          "name": "",
          "type": "uint256"
        }
      ],
      "name": "items",
      "outputs": [
        {
          "internalType": "uint256",
          "name": "itemId",
          "type": "uint256"
        },
        {
          "internalType": "contract IERC721",
          "name": "nft",
          "type": "address"
        },
        {
          "internalType": "uint256",
          "name": "tokenId",
          "type": "uint256"
        },
        {
          "internalType": "uint256",
          "name": "price",
          "type": "uint256"
        },
        {
          "internalType": "address payable",
          "name": "seller",
          "type": "address"
        },
        {
          "internalType": "bool",
          "name": "forSale",
          "type": "bool"
        }
      ],
      "stateMutability": "view",
      "type": "function"
    },
    {
      "inputs": [
        {
          "internalType": "contract IERC721",
          "name": "_nft",
          "type": "address"
        },
        {
          "internalType": "uint256",
          "name": "_tokenId",
          "type": "uint256"
        },
        {
          "internalType": "uint256",
          "name": "_price",
          "type": "uint256"
        }
      ],
      "name": "makeItem",
      "outputs": [],
      "stateMutability": "nonpayable",
      "type": "function"
    },
    {
      "inputs": [
        {
          "internalType": "uint256",
          "name": "_itemId",
          "type": "uint256"
        }
      ],
      "name": "purchaseItem",
      "outputs": [
        {
          "internalType": "address",
          "name": "",
          "type": "address"
        }
      ],
      "stateMutability": "payable",
      "type": "function"
    },
    {
      "inputs": [
        {
          "internalType": "uint256",
          "name": "_itemId",
          "type": "uint256"
        },
        {
          "internalType": "uint256",
          "name": "_price",
          "type": "uint256"
        }
      ],
      "name": "setPrice",
      "outputs": [],
      "stateMutability": "nonpayable",
      "type": "function"
    }
  ],
  "bytecode": "0x60c060405234801561001057600080fd5b5060405161123238038061123283398181016040528101906100329190610094565b60016000819055503373ffffffffffffffffffffffffffffffffffffffff1660808173ffffffffffffffffffffffffffffffffffffffff1660601b815250508060a08181525050506100de565b60008151905061008e816100c7565b92915050565b6000602082840312156100a657600080fd5b60006100b48482850161007f565b91505092915050565b6000819050919050565b6100d0816100bd565b81146100db57600080fd5b50565b60805160601c60a05161111e610114600039600081816102b6015261036701526000818161024c015261053d015261111e6000f3fe6080604052600436106100865760003560e01c8063bfb231d211610059578063bfb231d214610149578063ca7dd3751461018b578063d38ea5bf146101c8578063f7d97577146101f8578063fa00afc71461022157610086565b806365e17c9d1461008b57806366b4d7ec146100b65780636bfb0d01146100f35780637fd6f15c1461011e575b600080fd5b34801561009757600080fd5b506100a061024a565b6040516100ad9190610c0e565b60405180910390f35b3480156100c257600080fd5b506100dd60048036038101906100d89190610ab7565b61026e565b6040516100ea9190610bf3565b60405180910390f35b3480156100ff57600080fd5b506101086102ae565b6040516101159190610ce0565b60405180910390f35b34801561012a57600080fd5b506101336102b4565b6040516101409190610ce0565b60405180910390f35b34801561015557600080fd5b50610170600480360381019061016b9190610ab7565b6102d8565b60405161018296959493929190610cfb565b60405180910390f35b34801561019757600080fd5b506101b260048036038101906101ad9190610ab7565b610361565b6040516101bf9190610ce0565b60405180910390f35b6101e260048036038101906101dd9190610ab7565b6103c4565b6040516101ef9190610bf3565b60405180910390f35b34801561020457600080fd5b5061021f600480360381019061021a9190610ae0565b610747565b005b34801561022d57600080fd5b5061024860048036038101906102439190610a68565b61076c565b005b7f000000000000000000000000000000000000000000000000000000000000000081565b60006002600083815260200190815260200160002060040160009054906101000a900473ffffffffffffffffffffffffffffffffffffffff169050919050565b60015481565b7f000000000000000000000000000000000000000000000000000000000000000081565b60026020528060005260406000206000915090508060000154908060010160009054906101000a900473ffffffffffffffffffffffffffffffffffffffff16908060020154908060030154908060040160009054906101000a900473ffffffffffffffffffffffffffffffffffffffff16908060040160149054906101000a900460ff16905086565b600060647f000000000000000000000000000000000000000000000000000000000000000060646103929190610da4565b60026000858152602001908152602001600020600301546103b39190610e2b565b6103bd9190610dfa565b9050919050565b60006002600054141561040c576040517f08c379a000000000000000000000000000000000000000000000000000000000815260040161040390610cc0565b60405180910390fd5b6002600081905550600061041f83610361565b9050600060026000858152602001908152602001600020905060008411801561044a57506001548411155b610489576040517f08c379a000000000000000000000000000000000000000000000000000000000815260040161048090610ca0565b60405180910390fd5b813410156104cc576040517f08c379a00000000000000000000000000000000000000000000000000000000081526004016104c390610c80565b60405180910390fd5b8060040160009054906101000a900473ffffffffffffffffffffffffffffffffffffffff1673ffffffffffffffffffffffffffffffffffffffff166108fc82600301549081150290604051600060405180830381858888f1935050505015801561053a573d6000803e3d6000fd5b507f000000000000000000000000000000000000000000000000000000000000000073ffffffffffffffffffffffffffffffffffffffff166108fc8260030154846105859190610e85565b9081150290604051600060405180830381858888f193505050501580156105b0573d6000803e3d6000fd5b5060008160040160146101000a81548160ff0219169083151502179055508060010160009054906101000a900473ffffffffffffffffffffffffffffffffffffffff1673ffffffffffffffffffffffffffffffffffffffff166323b872dd303384600201546040518463ffffffff1660e01b815260040161063393929190610c29565b600060405180830381600087803b15801561064d57600080fd5b505af1158015610661573d6000803e3d6000fd5b505050503373ffffffffffffffffffffffffffffffffffffffff168160040160009054906101000a900473ffffffffffffffffffffffffffffffffffffffff1673ffffffffffffffffffffffffffffffffffffffff168260010160009054906101000a900473ffffffffffffffffffffffffffffffffffffffff1673ffffffffffffffffffffffffffffffffffffffff167f8b4c9c8a607d67b321582dd8461041b1dc2ceeca70c8b7f37f8e02095cf2e76d878560020154866003015460405161072d93929190610d5c565b60405180910390a433925050506001600081905550919050565b6000600260008481526020019081526020016000209050818160030181905550505050565b600260005414156107b2576040517f08c379a00000000000000000000000000000000000000000000000000000000081526004016107a990610cc0565b60405180910390fd5b6002600081905550600081116107fd576040517f08c379a00000000000000000000000000000000000000000000000000000000081526004016107f490610c60565b60405180910390fd5b6001600081548092919061081090610f49565b91905055508273ffffffffffffffffffffffffffffffffffffffff166323b872dd3330856040518463ffffffff1660e01b815260040161085293929190610c29565b600060405180830381600087803b15801561086c57600080fd5b505af1158015610880573d6000803e3d6000fd5b505050506040518060c0016040528060015481526020018473ffffffffffffffffffffffffffffffffffffffff1681526020018381526020018281526020013373ffffffffffffffffffffffffffffffffffffffff168152602001600115158152506002600060015481526020019081526020016000206000820151816000015560208201518160010160006101000a81548173ffffffffffffffffffffffffffffffffffffffff021916908373ffffffffffffffffffffffffffffffffffffffff160217905550604082015181600201556060820151816003015560808201518160040160006101000a81548173ffffffffffffffffffffffffffffffffffffffff021916908373ffffffffffffffffffffffffffffffffffffffff16021790555060a08201518160040160146101000a81548160ff0219169083151502179055509050503373ffffffffffffffffffffffffffffffffffffffff168373ffffffffffffffffffffffffffffffffffffffff167f655a0cf9c8db81512be9a76dc1c5ae5380b8816ce6ad659cd61b715e2999d59a6001548585604051610a2993929190610d5c565b60405180910390a36001600081905550505050565b600081359050610a4d816110ba565b92915050565b600081359050610a62816110d1565b92915050565b600080600060608486031215610a7d57600080fd5b6000610a8b86828701610a3e565b9350506020610a9c86828701610a53565b9250506040610aad86828701610a53565b9150509250925092565b600060208284031215610ac957600080fd5b6000610ad784828501610a53565b91505092915050565b60008060408385031215610af357600080fd5b6000610b0185828601610a53565b9250506020610b1285828601610a53565b9150509250929050565b610b2581610ecb565b82525050565b610b3481610eb9565b82525050565b610b4381610edd565b82525050565b610b5281610f25565b82525050565b6000610b65601f83610d93565b9150610b7082610ff0565b602082019050919050565b6000610b88603383610d93565b9150610b9382611019565b604082019050919050565b6000610bab601283610d93565b9150610bb682611068565b602082019050919050565b6000610bce601f83610d93565b9150610bd982611091565b602082019050919050565b610bed81610f1b565b82525050565b6000602082019050610c086000830184610b2b565b92915050565b6000602082019050610c236000830184610b1c565b92915050565b6000606082019050610c3e6000830186610b2b565b610c4b6020830185610b2b565b610c586040830184610be4565b949350505050565b60006020820190508181036000830152610c7981610b58565b9050919050565b60006020820190508181036000830152610c9981610b7b565b9050919050565b60006020820190508181036000830152610cb981610b9e565b9050919050565b60006020820190508181036000830152610cd981610bc1565b9050919050565b6000602082019050610cf56000830184610be4565b92915050565b600060c082019050610d106000830189610be4565b610d1d6020830188610b49565b610d2a6040830187610be4565b610d376060830186610be4565b610d446080830185610b1c565b610d5160a0830184610b3a565b979650505050505050565b6000606082019050610d716000830186610be4565b610d7e6020830185610be4565b610d8b6040830184610be4565b949350505050565b600082825260208201905092915050565b6000610daf82610f1b565b9150610dba83610f1b565b9250827fffffffffffffffffffffffffffffffffffffffffffffffffffffffffffffffff03821115610def57610dee610f92565b5b828201905092915050565b6000610e0582610f1b565b9150610e1083610f1b565b925082610e2057610e1f610fc1565b5b828204905092915050565b6000610e3682610f1b565b9150610e4183610f1b565b9250817fffffffffffffffffffffffffffffffffffffffffffffffffffffffffffffffff0483118215151615610e7a57610e79610f92565b5b828202905092915050565b6000610e9082610f1b565b9150610e9b83610f1b565b925082821015610eae57610ead610f92565b5b828203905092915050565b6000610ec482610efb565b9050919050565b6000610ed682610efb565b9050919050565b60008115159050919050565b6000610ef482610eb9565b9050919050565b600073ffffffffffffffffffffffffffffffffffffffff82169050919050565b6000819050919050565b6000610f3082610f37565b9050919050565b6000610f4282610efb565b9050919050565b6000610f5482610f1b565b91507fffffffffffffffffffffffffffffffffffffffffffffffffffffffffffffffff821415610f8757610f86610f92565b5b600182019050919050565b7f4e487b7100000000000000000000000000000000000000000000000000000000600052601160045260246000fd5b7f4e487b7100000000000000000000000000000000000000000000000000000000600052601260045260246000fd5b7f5072696365206d7573742062652067726561746572207468616e207a65726f00600082015250565b7f6e6f7420656e6f75676820657468657220746f20636f766572206974656d207060008201527f7269636520616e64206d61726b65742066656500000000000000000000000000602082015250565b7f6974656d20646f65736e27742065786973740000000000000000000000000000600082015250565b7f5265656e7472616e637947756172643a207265656e7472616e742063616c6c00600082015250565b6110c381610ee9565b81146110ce57600080fd5b50565b6110da81610f1b565b81146110e557600080fd5b5056fea2646970667358221220e151172193441f414dba28c7b8e5bc0fab990211bb7cde25f651666df3cc651b64736f6c63430008040033",
  "linkReferences": {},
  "deployedLinkReferences": {}
}