{
  "_format": "hh-sol-artifact-1",
  "contractName": "Marketplace",
  "sourceName": "src/backend/contracts/Marketplace.sol",
  "abi": [
    {
      "inputs": [
        {
          "internalType": "uint256",
          "name": "_feePercent",
          "type": "uint256"
        },
        {
          "internalType": "contract PIRATE",
          "name": "_pirate",
          "type": "address"
        }
      ],
      "stateMutability": "nonpayable",
      "type": "constructor"
    },
    {
      "anonymous": false,
      "inputs": [
        {
          "indexed": false,
          "internalType": "uint256",
          "name": "itemId",
          "type": "uint256"
        },
        {
          "indexed": true,
          "internalType": "address",
          "name": "nft",
          "type": "address"
        },
        {
          "indexed": false,
          "internalType": "uint256",
          "name": "tokenId",
          "type": "uint256"
        },
        {
          "indexed": false,
          "internalType": "uint256",
          "name": "price",
          "type": "uint256"
        },
        {
          "indexed": true,
          "internalType": "address",
          "name": "seller",
          "type": "address"
        },
        {
          "indexed": true,
          "internalType": "address",
          "name": "buyer",
          "type": "address"
        }
      ],
      "name": "Bought",
      "type": "event"
    },
    {
      "anonymous": false,
      "inputs": [
        {
          "indexed": false,
          "internalType": "uint256",
          "name": "itemId",
          "type": "uint256"
        },
        {
          "indexed": true,
          "internalType": "address",
          "name": "nft",
          "type": "address"
        },
        {
          "indexed": false,
          "internalType": "uint256",
          "name": "tokenId",
          "type": "uint256"
        },
        {
          "indexed": false,
          "internalType": "uint256",
          "name": "price",
          "type": "uint256"
        },
        {
          "indexed": true,
          "internalType": "address",
          "name": "seller",
          "type": "address"
        }
      ],
      "name": "Offered",
      "type": "event"
    },
    {
      "inputs": [
        {
          "internalType": "uint256",
          "name": "_itemId",
          "type": "uint256"
        },
        {
          "internalType": "address payable",
          "name": "_seller",
          "type": "address"
        }
      ],
      "name": "changeNFTHolder",
      "outputs": [],
      "stateMutability": "nonpayable",
      "type": "function"
    },
    {
      "inputs": [],
      "name": "feeAccount",
      "outputs": [
        {
          "internalType": "address payable",
          "name": "",
          "type": "address"
        }
      ],
      "stateMutability": "view",
      "type": "function"
    },
    {
      "inputs": [],
      "name": "feePercent",
      "outputs": [
        {
          "internalType": "uint256",
          "name": "",
          "type": "uint256"
        }
      ],
      "stateMutability": "view",
      "type": "function"
    },
    {
      "inputs": [
        {
          "internalType": "uint256",
          "name": "_itemId",
          "type": "uint256"
        }
      ],
      "name": "getNFTSeller",
      "outputs": [
        {
          "internalType": "address",
          "name": "",
          "type": "address"
        }
      ],
      "stateMutability": "view",
      "type": "function"
    },
    {
      "inputs": [
        {
          "internalType": "uint256",
          "name": "_itemId",
          "type": "uint256"
        }
      ],
      "name": "getTotalPrice",
      "outputs": [
        {
          "internalType": "uint256",
          "name": "",
          "type": "uint256"
        }
      ],
      "stateMutability": "view",
      "type": "function"
    },
    {
      "inputs": [],
      "name": "itemCount",
      "outputs": [
        {
          "internalType": "uint256",
          "name": "",
          "type": "uint256"
        }
      ],
      "stateMutability": "view",
      "type": "function"
    },
    {
      "inputs": [
        {
          "internalType": "uint256",
          "name": "",
          "type": "uint256"
        }
      ],
      "name": "items",
      "outputs": [
        {
          "internalType": "uint256",
          "name": "itemId",
          "type": "uint256"
        },
        {
          "internalType": "contract IERC721",
          "name": "nft",
          "type": "address"
        },
        {
          "internalType": "uint256",
          "name": "tokenId",
          "type": "uint256"
        },
        {
          "internalType": "uint256",
          "name": "price",
          "type": "uint256"
        },
        {
          "internalType": "address payable",
          "name": "seller",
          "type": "address"
        },
        {
          "internalType": "address payable",
          "name": "owner",
          "type": "address"
        },
        {
          "internalType": "bool",
          "name": "forSale",
          "type": "bool"
        }
      ],
      "stateMutability": "view",
      "type": "function"
    },
    {
      "inputs": [],
      "name": "mainAccount",
      "outputs": [
        {
          "internalType": "address payable",
          "name": "",
          "type": "address"
        }
      ],
      "stateMutability": "view",
      "type": "function"
    },
    {
      "inputs": [
        {
          "internalType": "contract IERC721",
          "name": "_nft",
          "type": "address"
        },
        {
          "internalType": "uint256",
          "name": "_tokenId",
          "type": "uint256"
        },
        {
          "internalType": "uint256",
          "name": "_price",
          "type": "uint256"
        }
      ],
      "name": "makeItem",
      "outputs": [],
      "stateMutability": "nonpayable",
      "type": "function"
    },
    {
      "inputs": [],
      "name": "pirateToken",
      "outputs": [
        {
          "internalType": "contract PIRATE",
          "name": "",
          "type": "address"
        }
      ],
      "stateMutability": "view",
      "type": "function"
    },
    {
      "inputs": [
        {
          "internalType": "uint256",
          "name": "_itemId",
          "type": "uint256"
        }
      ],
      "name": "purchaseItem",
      "outputs": [
        {
          "internalType": "address",
          "name": "",
          "type": "address"
        }
      ],
      "stateMutability": "payable",
      "type": "function"
    },
    {
      "inputs": [
        {
          "internalType": "uint256",
          "name": "_itemId",
          "type": "uint256"
        }
      ],
      "name": "removeFromSale",
      "outputs": [],
      "stateMutability": "nonpayable",
      "type": "function"
    },
    {
      "inputs": [
        {
          "internalType": "uint256",
          "name": "_itemId",
          "type": "uint256"
        },
        {
          "internalType": "uint256",
          "name": "_price",
          "type": "uint256"
        }
      ],
      "name": "setPrice",
      "outputs": [],
      "stateMutability": "nonpayable",
      "type": "function"
    }
  ],
  "bytecode": "0x60e060405273f39fd6e51aad88f6f4ce6ab8827279cfffb9226673ffffffffffffffffffffffffffffffffffffffff1660c09073ffffffffffffffffffffffffffffffffffffffff1660601b8152503480156200005b57600080fd5b50604051620027e4380380620027e4833981810160405281019062000081919062000420565b60016000819055503373ffffffffffffffffffffffffffffffffffffffff1660808173ffffffffffffffffffffffffffffffffffffffff1660601b815250508160a0818152505080600260006101000a81548173ffffffffffffffffffffffffffffffffffffffff021916908373ffffffffffffffffffffffffffffffffffffffff160217905550600260009054906101000a900473ffffffffffffffffffffffffffffffffffffffff1673ffffffffffffffffffffffffffffffffffffffff16631249c58b6040518163ffffffff1660e01b8152600401602060405180830381600087803b1580156200017457600080fd5b505af115801562000189573d6000803e3d6000fd5b505050506040513d601f19601f82011682018060405250810190620001af9190620003c8565b50620002ac6040518060400160405280601381526020017f616d6f756e74206f6620746f6b656e73203a2000000000000000000000000000815250600260009054906101000a900473ffffffffffffffffffffffffffffffffffffffff1673ffffffffffffffffffffffffffffffffffffffff166370a08231306040518263ffffffff1660e01b8152600401620002479190620004c4565b60206040518083038186803b1580156200026057600080fd5b505afa15801562000275573d6000803e3d6000fd5b505050506040513d601f19601f820116820180604052508101906200029b9190620003f4565b620002b460201b620015d21760201c565b505062000624565b620003568282604051602401620002cd929190620004e1565b6040516020818303038152906040527f9710a9d0000000000000000000000000000000000000000000000000000000007bffffffffffffffffffffffffffffffffffffffffffffffffffffffff19166020820180517bffffffffffffffffffffffffffffffffffffffffffffffffffffffff83818316178352505050506200035a60201b60201c565b5050565b60008151905060006a636f6e736f6c652e6c6f679050602083016000808483855afa5050505050565b6000815190506200039481620005d6565b92915050565b600081519050620003ab81620005f0565b92915050565b600081519050620003c2816200060a565b92915050565b600060208284031215620003db57600080fd5b6000620003eb8482850162000383565b91505092915050565b6000602082840312156200040757600080fd5b60006200041784828501620003b1565b91505092915050565b600080604083850312156200043457600080fd5b60006200044485828601620003b1565b925050602062000457858286016200039a565b9150509250929050565b6200046c8162000531565b82525050565b60006200047f8262000515565b6200048b818562000520565b93506200049d8185602086016200058f565b620004a881620005c5565b840191505092915050565b620004be8162000585565b82525050565b6000602082019050620004db600083018462000461565b92915050565b60006040820190508181036000830152620004fd818562000472565b90506200050e6020830184620004b3565b9392505050565b600081519050919050565b600082825260208201905092915050565b60006200053e8262000565565b9050919050565b60008115159050919050565b60006200055e8262000531565b9050919050565b600073ffffffffffffffffffffffffffffffffffffffff82169050919050565b6000819050919050565b60005b83811015620005af57808201518184015260208101905062000592565b83811115620005bf576000848401525b50505050565b6000601f19601f8301169050919050565b620005e18162000545565b8114620005ed57600080fd5b50565b620005fb8162000551565b81146200060757600080fd5b50565b620006158162000585565b81146200062157600080fd5b50565b60805160601c60a05160c05160601c61217c62000668600039600061033101526000818161043a01526105700152600081816103d00152610b32015261217c6000f3fe6080604052600436106100c25760003560e01c80638f5715b51161007f578063d02a5ac211610059578063d02a5ac214610282578063d38ea5bf146102ad578063f7d97577146102dd578063fa00afc714610306576100c2565b80638f5715b5146101d9578063bfb231d214610202578063ca7dd37514610245576100c2565b80631123cfe0146100c75780631361a3b6146100f257806365e17c9d1461011b57806366b4d7ec146101465780636bfb0d01146101835780637fd6f15c146101ae575b600080fd5b3480156100d357600080fd5b506100dc61032f565b6040516100e99190611ac0565b60405180910390f35b3480156100fe57600080fd5b50610119600480360381019061011491906118ad565b610353565b005b34801561012757600080fd5b506101306103ce565b60405161013d9190611ac0565b60405180910390f35b34801561015257600080fd5b5061016d600480360381019061016891906118ad565b6103f2565b60405161017a9190611aa5565b60405180910390f35b34801561018f57600080fd5b50610198610432565b6040516101a59190611c58565b60405180910390f35b3480156101ba57600080fd5b506101c3610438565b6040516101d09190611c58565b60405180910390f35b3480156101e557600080fd5b5061020060048036038101906101fb91906118ff565b61045c565b005b34801561020e57600080fd5b50610229600480360381019061022491906118ad565b6104bb565b60405161023c9796959493929190611c73565b60405180910390f35b34801561025157600080fd5b5061026c600480360381019061026791906118ad565b61056a565b6040516102799190611c58565b60405180910390f35b34801561028e57600080fd5b506102976105cd565b6040516102a49190611b3b565b60405180910390f35b6102c760048036038101906102c291906118ad565b6105f3565b6040516102d49190611aa5565b60405180910390f35b3480156102e957600080fd5b5061030460048036038101906102ff919061193b565b61105d565b005b34801561031257600080fd5b5061032d6004803603810190610328919061185e565b6110e2565b005b7f000000000000000000000000000000000000000000000000000000000000000081565b600060036000838152602001908152602001600020905060008160050160146101000a81548160ff021916908315150217905550338160050160006101000a81548173ffffffffffffffffffffffffffffffffffffffff021916908373ffffffffffffffffffffffffffffffffffffffff1602179055505050565b7f000000000000000000000000000000000000000000000000000000000000000081565b60006003600083815260200190815260200160002060040160009054906101000a900473ffffffffffffffffffffffffffffffffffffffff169050919050565b60015481565b7f000000000000000000000000000000000000000000000000000000000000000081565b6000600360008481526020019081526020016000209050818160040160006101000a81548173ffffffffffffffffffffffffffffffffffffffff021916908373ffffffffffffffffffffffffffffffffffffffff160217905550505050565b60036020528060005260406000206000915090508060000154908060010160009054906101000a900473ffffffffffffffffffffffffffffffffffffffff16908060020154908060030154908060040160009054906101000a900473ffffffffffffffffffffffffffffffffffffffff16908060050160009054906101000a900473ffffffffffffffffffffffffffffffffffffffff16908060050160149054906101000a900460ff16905087565b600060647f0000000000000000000000000000000000000000000000000000000000000000606461059b9190611d35565b60036000858152602001908152602001600020600301546105bc9190611dbc565b6105c69190611d8b565b9050919050565b600260009054906101000a900473ffffffffffffffffffffffffffffffffffffffff1681565b60006002600054141561063b576040517f08c379a000000000000000000000000000000000000000000000000000000000815260040161063290611c38565b60405180910390fd5b6002600081905550600061064e8361056a565b9050600060036000858152602001908152602001600020905060008411801561067957506001548411155b6106b8576040517f08c379a00000000000000000000000000000000000000000000000000000000081526004016106af90611c18565b60405180910390fd5b81600260009054906101000a900473ffffffffffffffffffffffffffffffffffffffff1673ffffffffffffffffffffffffffffffffffffffff166370a08231336040518263ffffffff1660e01b81526004016107149190611aa5565b60206040518083038186803b15801561072c57600080fd5b505afa158015610740573d6000803e3d6000fd5b505050506040513d601f19601f8201168201806040525081019061076491906118d6565b10156107a5576040517f08c379a000000000000000000000000000000000000000000000000000000000815260040161079c90611bf8565b60405180910390fd5b61088e6040518060400160405280601c81526020017f706972617465546f6b656e2062616c616e6365206275796572203a2000000000815250600260009054906101000a900473ffffffffffffffffffffffffffffffffffffffff1673ffffffffffffffffffffffffffffffffffffffff166370a08231336040518263ffffffff1660e01b81526004016108399190611aa5565b60206040518083038186803b15801561085157600080fd5b505afa158015610865573d6000803e3d6000fd5b505050506040513d601f19601f8201168201806040525081019061088991906118d6565b6115d2565b61095a60405180606001604052806027815260200161212060279139600260009054906101000a900473ffffffffffffffffffffffffffffffffffffffff1673ffffffffffffffffffffffffffffffffffffffff166370a08231306040518263ffffffff1660e01b81526004016109059190611aa5565b60206040518083038186803b15801561091d57600080fd5b505afa158015610931573d6000803e3d6000fd5b505050506040513d601f19601f8201168201806040525081019061095591906118d6565b6115d2565b6109996040518060400160405280601f81526020017f746869732069732074686520636f6e74726163742061646472657373203a20008152503061166e565b6109dc6040518060400160405280600d81526020017f77616e7420746f20706179203a0000000000000000000000000000000000000081525082600301546115d2565b600260009054906101000a900473ffffffffffffffffffffffffffffffffffffffff1673ffffffffffffffffffffffffffffffffffffffff1663a9059cbb8260040160009054906101000a900473ffffffffffffffffffffffffffffffffffffffff1683600301546040518363ffffffff1660e01b8152600401610a61929190611adb565b602060405180830381600087803b158015610a7b57600080fd5b505af1158015610a8f573d6000803e3d6000fd5b505050506040513d601f19601f82011682018060405250810190610ab39190611835565b50610af26040518060400160405280600281526020017f663200000000000000000000000000000000000000000000000000000000000081525061170a565b600260009054906101000a900473ffffffffffffffffffffffffffffffffffffffff1673ffffffffffffffffffffffffffffffffffffffff1663a9059cbb7f0000000000000000000000000000000000000000000000000000000000000000836003015485610b619190611e16565b6040518363ffffffff1660e01b8152600401610b7e929190611adb565b602060405180830381600087803b158015610b9857600080fd5b505af1158015610bac573d6000803e3d6000fd5b505050506040513d601f19601f82011682018060405250810190610bd09190611835565b50610c0f6040518060400160405280600281526020017f663300000000000000000000000000000000000000000000000000000000000081525061170a565b60008160050160146101000a81548160ff0219169083151502179055508060010160009054906101000a900473ffffffffffffffffffffffffffffffffffffffff1673ffffffffffffffffffffffffffffffffffffffff166323b872dd303384600201546040518463ffffffff1660e01b8152600401610c9193929190611b04565b600060405180830381600087803b158015610cab57600080fd5b505af1158015610cbf573d6000803e3d6000fd5b50505050610d016040518060400160405280600281526020017f663400000000000000000000000000000000000000000000000000000000000081525061170a565b610dea6040518060400160405280601c81526020017f706972617465546f6b656e2062616c616e6365206275796572203a2000000000815250600260009054906101000a900473ffffffffffffffffffffffffffffffffffffffff1673ffffffffffffffffffffffffffffffffffffffff166370a08231336040518263ffffffff1660e01b8152600401610d959190611aa5565b60206040518083038186803b158015610dad57600080fd5b505afa158015610dc1573d6000803e3d6000fd5b505050506040513d601f19601f82011682018060405250810190610de591906118d6565b6115d2565b610eb660405180606001604052806027815260200161212060279139600260009054906101000a900473ffffffffffffffffffffffffffffffffffffffff1673ffffffffffffffffffffffffffffffffffffffff166370a08231306040518263ffffffff1660e01b8152600401610e619190611aa5565b60206040518083038186803b158015610e7957600080fd5b505afa158015610e8d573d6000803e3d6000fd5b505050506040513d601f19601f82011682018060405250810190610eb191906118d6565b6115d2565b610ef56040518060400160405280601f81526020017f746869732069732074686520636f6e74726163742061646472657373203a20008152503061166e565b610f386040518060400160405280600d81526020017f77616e7420746f20706179203a0000000000000000000000000000000000000081525082600301546115d2565b3373ffffffffffffffffffffffffffffffffffffffff168160040160009054906101000a900473ffffffffffffffffffffffffffffffffffffffff1673ffffffffffffffffffffffffffffffffffffffff168260010160009054906101000a900473ffffffffffffffffffffffffffffffffffffffff1673ffffffffffffffffffffffffffffffffffffffff167f8b4c9c8a607d67b321582dd8461041b1dc2ceeca70c8b7f37f8e02095cf2e76d878560020154866003015460405161100093929190611ce2565b60405180910390a4338160050160006101000a81548173ffffffffffffffffffffffffffffffffffffffff021916908373ffffffffffffffffffffffffffffffffffffffff16021790555033925050506001600081905550919050565b6000600360008481526020019081526020016000209050818160030181905550338160050160006101000a81548173ffffffffffffffffffffffffffffffffffffffff021916908373ffffffffffffffffffffffffffffffffffffffff16021790555060018160050160146101000a81548160ff021916908315150217905550505050565b60026000541415611128576040517f08c379a000000000000000000000000000000000000000000000000000000000815260040161111f90611c38565b60405180910390fd5b60026000819055506000811015611174576040517f08c379a000000000000000000000000000000000000000000000000000000000815260040161116b90611bd8565b60405180910390fd5b6001600081548092919061118790611f67565b9190505550600081141561133b576040518060e0016040528060015481526020018473ffffffffffffffffffffffffffffffffffffffff1681526020018381526020018281526020013373ffffffffffffffffffffffffffffffffffffffff1681526020013373ffffffffffffffffffffffffffffffffffffffff168152602001600015158152506003600060015481526020019081526020016000206000820151816000015560208201518160010160006101000a81548173ffffffffffffffffffffffffffffffffffffffff021916908373ffffffffffffffffffffffffffffffffffffffff160217905550604082015181600201556060820151816003015560808201518160040160006101000a81548173ffffffffffffffffffffffffffffffffffffffff021916908373ffffffffffffffffffffffffffffffffffffffff16021790555060a08201518160050160006101000a81548173ffffffffffffffffffffffffffffffffffffffff021916908373ffffffffffffffffffffffffffffffffffffffff16021790555060c08201518160050160146101000a81548160ff0219169083151502179055509050505b60008111156115c5578273ffffffffffffffffffffffffffffffffffffffff166323b872dd3330856040518463ffffffff1660e01b815260040161138193929190611b04565b600060405180830381600087803b15801561139b57600080fd5b505af11580156113af573d6000803e3d6000fd5b505050506040518060e0016040528060015481526020018473ffffffffffffffffffffffffffffffffffffffff1681526020018381526020018281526020013373ffffffffffffffffffffffffffffffffffffffff168152602001600073ffffffffffffffffffffffffffffffffffffffff168152602001600115158152506003600060015481526020019081526020016000206000820151816000015560208201518160010160006101000a81548173ffffffffffffffffffffffffffffffffffffffff021916908373ffffffffffffffffffffffffffffffffffffffff160217905550604082015181600201556060820151816003015560808201518160040160006101000a81548173ffffffffffffffffffffffffffffffffffffffff021916908373ffffffffffffffffffffffffffffffffffffffff16021790555060a08201518160050160006101000a81548173ffffffffffffffffffffffffffffffffffffffff021916908373ffffffffffffffffffffffffffffffffffffffff16021790555060c08201518160050160146101000a81548160ff0219169083151502179055509050503373ffffffffffffffffffffffffffffffffffffffff168373ffffffffffffffffffffffffffffffffffffffff167f655a0cf9c8db81512be9a76dc1c5ae5380b8816ce6ad659cd61b715e2999d59a60015485856040516115bc93929190611ce2565b60405180910390a35b6001600081905550505050565b61166a82826040516024016115e8929190611ba8565b6040516020818303038152906040527f9710a9d0000000000000000000000000000000000000000000000000000000007bffffffffffffffffffffffffffffffffffffffffffffffffffffffff19166020820180517bffffffffffffffffffffffffffffffffffffffffffffffffffffffff83818316178352505050506117a3565b5050565b6117068282604051602401611684929190611b78565b6040516020818303038152906040527f319af333000000000000000000000000000000000000000000000000000000007bffffffffffffffffffffffffffffffffffffffffffffffffffffffff19166020820180517bffffffffffffffffffffffffffffffffffffffffffffffffffffffff83818316178352505050506117a3565b5050565b6117a08160405160240161171e9190611b56565b6040516020818303038152906040527f41304fac000000000000000000000000000000000000000000000000000000007bffffffffffffffffffffffffffffffffffffffffffffffffffffffff19166020820180517bffffffffffffffffffffffffffffffffffffffffffffffffffffffff83818316178352505050506117a3565b50565b60008151905060006a636f6e736f6c652e6c6f679050602083016000808483855afa5050505050565b6000813590506117db816120c3565b92915050565b6000815190506117f0816120da565b92915050565b600081359050611805816120f1565b92915050565b60008135905061181a81612108565b92915050565b60008151905061182f81612108565b92915050565b60006020828403121561184757600080fd5b6000611855848285016117e1565b91505092915050565b60008060006060848603121561187357600080fd5b6000611881868287016117f6565b93505060206118928682870161180b565b92505060406118a38682870161180b565b9150509250925092565b6000602082840312156118bf57600080fd5b60006118cd8482850161180b565b91505092915050565b6000602082840312156118e857600080fd5b60006118f684828501611820565b91505092915050565b6000806040838503121561191257600080fd5b60006119208582860161180b565b9250506020611931858286016117cc565b9150509250929050565b6000806040838503121561194e57600080fd5b600061195c8582860161180b565b925050602061196d8582860161180b565b9150509250929050565b61198081611eb6565b82525050565b61198f81611e5c565b82525050565b61199e81611e4a565b82525050565b6119ad81611e6e565b82525050565b6119bc81611ec8565b82525050565b6119cb81611eec565b82525050565b60006119dc82611d19565b6119e68185611d24565b93506119f6818560208601611f34565b6119ff8161200e565b840191505092915050565b6000611a17601783611d24565b9150611a228261201f565b602082019050919050565b6000611a3a600e83611d24565b9150611a4582612048565b602082019050919050565b6000611a5d601283611d24565b9150611a6882612071565b602082019050919050565b6000611a80601f83611d24565b9150611a8b8261209a565b602082019050919050565b611a9f81611eac565b82525050565b6000602082019050611aba6000830184611995565b92915050565b6000602082019050611ad56000830184611986565b92915050565b6000604082019050611af06000830185611977565b611afd6020830184611a96565b9392505050565b6000606082019050611b196000830186611995565b611b266020830185611995565b611b336040830184611a96565b949350505050565b6000602082019050611b5060008301846119c2565b92915050565b60006020820190508181036000830152611b7081846119d1565b905092915050565b60006040820190508181036000830152611b9281856119d1565b9050611ba16020830184611995565b9392505050565b60006040820190508181036000830152611bc281856119d1565b9050611bd16020830184611a96565b9392505050565b60006020820190508181036000830152611bf181611a0a565b9050919050565b60006020820190508181036000830152611c1181611a2d565b9050919050565b60006020820190508181036000830152611c3181611a50565b9050919050565b60006020820190508181036000830152611c5181611a73565b9050919050565b6000602082019050611c6d6000830184611a96565b92915050565b600060e082019050611c88600083018a611a96565b611c9560208301896119b3565b611ca26040830188611a96565b611caf6060830187611a96565b611cbc6080830186611986565b611cc960a0830185611986565b611cd660c08301846119a4565b98975050505050505050565b6000606082019050611cf76000830186611a96565b611d046020830185611a96565b611d116040830184611a96565b949350505050565b600081519050919050565b600082825260208201905092915050565b6000611d4082611eac565b9150611d4b83611eac565b9250827fffffffffffffffffffffffffffffffffffffffffffffffffffffffffffffffff03821115611d8057611d7f611fb0565b5b828201905092915050565b6000611d9682611eac565b9150611da183611eac565b925082611db157611db0611fdf565b5b828204905092915050565b6000611dc782611eac565b9150611dd283611eac565b9250817fffffffffffffffffffffffffffffffffffffffffffffffffffffffffffffffff0483118215151615611e0b57611e0a611fb0565b5b828202905092915050565b6000611e2182611eac565b9150611e2c83611eac565b925082821015611e3f57611e3e611fb0565b5b828203905092915050565b6000611e5582611e8c565b9050919050565b6000611e6782611e8c565b9050919050565b60008115159050919050565b6000611e8582611e4a565b9050919050565b600073ffffffffffffffffffffffffffffffffffffffff82169050919050565b6000819050919050565b6000611ec182611f10565b9050919050565b6000611ed382611eda565b9050919050565b6000611ee582611e8c565b9050919050565b6000611ef782611efe565b9050919050565b6000611f0982611e8c565b9050919050565b6000611f1b82611f22565b9050919050565b6000611f2d82611e8c565b9050919050565b60005b83811015611f52578082015181840152602081019050611f37565b83811115611f61576000848401525b50505050565b6000611f7282611eac565b91507fffffffffffffffffffffffffffffffffffffffffffffffffffffffffffffffff821415611fa557611fa4611fb0565b5b600182019050919050565b7f4e487b7100000000000000000000000000000000000000000000000000000000600052601160045260246000fd5b7f4e487b7100000000000000000000000000000000000000000000000000000000600052601260045260246000fd5b6000601f19601f8301169050919050565b7f50726963652063616e2774206265206e65676174697665000000000000000000600082015250565b7f6e6f7420656e6f7567682e2e2e2e000000000000000000000000000000000000600082015250565b7f6974656d20646f65736e27742065786973740000000000000000000000000000600082015250565b7f5265656e7472616e637947756172643a207265656e7472616e742063616c6c00600082015250565b6120cc81611e5c565b81146120d757600080fd5b50565b6120e381611e6e565b81146120ee57600080fd5b50565b6120fa81611e7a565b811461210557600080fd5b50565b61211181611eac565b811461211c57600080fd5b5056fe706972617465546f6b656e2062616c616e6365206f66207468697320636f6e7472616374203a20a26469706673582212208ec11bfd6d4d1238a7a7d3f8da96e9032d0ce0773871cd1b70988a2076759a7164736f6c63430008040033",
  "linkReferences": {},
  "deployedLinkReferences": {}
}