{
  "_format": "hh-sol-artifact-1",
  "contractName": "Marketplace",
  "sourceName": "src/backend/contracts/Marketplace.sol",
  "abi": [
    {
      "inputs": [
        {
          "internalType": "uint256",
          "name": "_feePercent",
          "type": "uint256"
        },
        {
          "internalType": "contract PIRATE",
          "name": "_pirate",
          "type": "address"
        }
      ],
      "stateMutability": "nonpayable",
      "type": "constructor"
    },
    {
      "anonymous": false,
      "inputs": [
        {
          "indexed": false,
          "internalType": "uint256",
          "name": "itemId",
          "type": "uint256"
        },
        {
          "indexed": true,
          "internalType": "address",
          "name": "nft",
          "type": "address"
        },
        {
          "indexed": false,
          "internalType": "uint256",
          "name": "tokenId",
          "type": "uint256"
        },
        {
          "indexed": false,
          "internalType": "uint256",
          "name": "price",
          "type": "uint256"
        },
        {
          "indexed": true,
          "internalType": "address",
          "name": "seller",
          "type": "address"
        },
        {
          "indexed": true,
          "internalType": "address",
          "name": "buyer",
          "type": "address"
        }
      ],
      "name": "Bought",
      "type": "event"
    },
    {
      "anonymous": false,
      "inputs": [
        {
          "indexed": false,
          "internalType": "uint256",
          "name": "itemId",
          "type": "uint256"
        },
        {
          "indexed": true,
          "internalType": "address",
          "name": "nft",
          "type": "address"
        },
        {
          "indexed": false,
          "internalType": "uint256",
          "name": "tokenId",
          "type": "uint256"
        },
        {
          "indexed": false,
          "internalType": "uint256",
          "name": "price",
          "type": "uint256"
        },
        {
          "indexed": true,
          "internalType": "address",
          "name": "seller",
          "type": "address"
        }
      ],
      "name": "Offered",
      "type": "event"
    },
    {
      "inputs": [
        {
          "internalType": "uint256",
          "name": "_itemId",
          "type": "uint256"
        },
        {
          "internalType": "address payable",
          "name": "_seller",
          "type": "address"
        }
      ],
      "name": "changeNFTHolder",
      "outputs": [],
      "stateMutability": "nonpayable",
      "type": "function"
    },
    {
      "inputs": [],
      "name": "feeAccount",
      "outputs": [
        {
          "internalType": "address payable",
          "name": "",
          "type": "address"
        }
      ],
      "stateMutability": "view",
      "type": "function"
    },
    {
      "inputs": [],
      "name": "feePercent",
      "outputs": [
        {
          "internalType": "uint256",
          "name": "",
          "type": "uint256"
        }
      ],
      "stateMutability": "view",
      "type": "function"
    },
    {
      "inputs": [
        {
          "internalType": "uint256",
          "name": "_itemId",
          "type": "uint256"
        }
      ],
      "name": "getNFTSeller",
      "outputs": [
        {
          "internalType": "address",
          "name": "",
          "type": "address"
        }
      ],
      "stateMutability": "view",
      "type": "function"
    },
    {
      "inputs": [
        {
          "internalType": "uint256",
          "name": "_itemId",
          "type": "uint256"
        }
      ],
      "name": "getTotalPrice",
      "outputs": [
        {
          "internalType": "uint256",
          "name": "",
          "type": "uint256"
        }
      ],
      "stateMutability": "view",
      "type": "function"
    },
    {
      "inputs": [],
      "name": "itemCount",
      "outputs": [
        {
          "internalType": "uint256",
          "name": "",
          "type": "uint256"
        }
      ],
      "stateMutability": "view",
      "type": "function"
    },
    {
      "inputs": [
        {
          "internalType": "uint256",
          "name": "",
          "type": "uint256"
        }
      ],
      "name": "items",
      "outputs": [
        {
          "internalType": "uint256",
          "name": "itemId",
          "type": "uint256"
        },
        {
          "internalType": "contract IERC721",
          "name": "nft",
          "type": "address"
        },
        {
          "internalType": "uint256",
          "name": "tokenId",
          "type": "uint256"
        },
        {
          "internalType": "uint256",
          "name": "price",
          "type": "uint256"
        },
        {
          "internalType": "address payable",
          "name": "seller",
          "type": "address"
        },
        {
          "internalType": "address payable",
          "name": "owner",
          "type": "address"
        },
        {
          "internalType": "bool",
          "name": "forSale",
          "type": "bool"
        }
      ],
      "stateMutability": "view",
      "type": "function"
    },
    {
      "inputs": [
        {
          "internalType": "contract IERC721",
          "name": "_nft",
          "type": "address"
        },
        {
          "internalType": "uint256",
          "name": "_tokenId",
          "type": "uint256"
        },
        {
          "internalType": "uint256",
          "name": "_price",
          "type": "uint256"
        }
      ],
      "name": "makeItem",
      "outputs": [],
      "stateMutability": "nonpayable",
      "type": "function"
    },
    {
      "inputs": [],
      "name": "pirateToken",
      "outputs": [
        {
          "internalType": "contract PIRATE",
          "name": "",
          "type": "address"
        }
      ],
      "stateMutability": "view",
      "type": "function"
    },
    {
      "inputs": [
        {
          "internalType": "uint256",
          "name": "_itemId",
          "type": "uint256"
        }
      ],
      "name": "purchaseItem",
      "outputs": [
        {
          "internalType": "address",
          "name": "",
          "type": "address"
        }
      ],
      "stateMutability": "payable",
      "type": "function"
    },
    {
      "inputs": [
        {
          "internalType": "uint256",
          "name": "_itemId",
          "type": "uint256"
        }
      ],
      "name": "removeFromSale",
      "outputs": [],
      "stateMutability": "nonpayable",
      "type": "function"
    },
    {
      "inputs": [
        {
          "internalType": "uint256",
          "name": "_itemId",
          "type": "uint256"
        },
        {
          "internalType": "uint256",
          "name": "_price",
          "type": "uint256"
        }
      ],
      "name": "setPrice",
      "outputs": [],
      "stateMutability": "nonpayable",
      "type": "function"
    }
  ],
  "bytecode": "0x60c06040523480156200001157600080fd5b5060405162001dfc38038062001dfc8339818101604052810190620000379190620000f5565b60016000819055503373ffffffffffffffffffffffffffffffffffffffff1660808173ffffffffffffffffffffffffffffffffffffffff1660601b815250508160a0818152505080600260006101000a81548173ffffffffffffffffffffffffffffffffffffffff021916908373ffffffffffffffffffffffffffffffffffffffff1602179055505050620001bc565b600081519050620000d88162000188565b92915050565b600081519050620000ef81620001a2565b92915050565b600080604083850312156200010957600080fd5b60006200011985828601620000de565b92505060206200012c85828601620000c7565b9150509250929050565b600062000143826200015e565b9050919050565b6000620001578262000136565b9050919050565b600073ffffffffffffffffffffffffffffffffffffffff82169050919050565b6000819050919050565b62000193816200014a565b81146200019f57600080fd5b50565b620001ad816200017e565b8114620001b957600080fd5b50565b60805160601c60a051611c02620001fa600039600081816103d00152610506015260008181610366015281816107b901526109ae0152611c026000f3fe6080604052600436106100a75760003560e01c8063bfb231d211610064578063bfb231d2146101bc578063ca7dd375146101ff578063d02a5ac21461023c578063d38ea5bf14610267578063f7d9757714610297578063fa00afc7146102c0576100a7565b80631361a3b6146100ac57806365e17c9d146100d557806366b4d7ec146101005780636bfb0d011461013d5780637fd6f15c146101685780638f5715b514610193575b600080fd5b3480156100b857600080fd5b506100d360048036038101906100ce91906113ba565b6102e9565b005b3480156100e157600080fd5b506100ea610364565b6040516100f791906115cd565b60405180910390f35b34801561010c57600080fd5b50610127600480360381019061012291906113ba565b610388565b60405161013491906115b2565b60405180910390f35b34801561014957600080fd5b506101526103c8565b60405161015f9190611705565b60405180910390f35b34801561017457600080fd5b5061017d6103ce565b60405161018a9190611705565b60405180910390f35b34801561019f57600080fd5b506101ba60048036038101906101b5919061140c565b6103f2565b005b3480156101c857600080fd5b506101e360048036038101906101de91906113ba565b610451565b6040516101f69796959493929190611720565b60405180910390f35b34801561020b57600080fd5b50610226600480360381019061022191906113ba565b610500565b6040516102339190611705565b60405180910390f35b34801561024857600080fd5b50610251610563565b60405161025e9190611648565b60405180910390f35b610281600480360381019061027c91906113ba565b610589565b60405161028e91906115b2565b60405180910390f35b3480156102a357600080fd5b506102be60048036038101906102b99190611448565b610ca2565b005b3480156102cc57600080fd5b506102e760048036038101906102e2919061136b565b610d27565b005b600060036000838152602001908152602001600020905060008160050160146101000a81548160ff021916908315150217905550338160050160006101000a81548173ffffffffffffffffffffffffffffffffffffffff021916908373ffffffffffffffffffffffffffffffffffffffff1602179055505050565b7f000000000000000000000000000000000000000000000000000000000000000081565b60006003600083815260200190815260200160002060040160009054906101000a900473ffffffffffffffffffffffffffffffffffffffff169050919050565b60015481565b7f000000000000000000000000000000000000000000000000000000000000000081565b6000600360008481526020019081526020016000209050818160040160006101000a81548173ffffffffffffffffffffffffffffffffffffffff021916908373ffffffffffffffffffffffffffffffffffffffff160217905550505050565b60036020528060005260406000206000915090508060000154908060010160009054906101000a900473ffffffffffffffffffffffffffffffffffffffff16908060020154908060030154908060040160009054906101000a900473ffffffffffffffffffffffffffffffffffffffff16908060050160009054906101000a900473ffffffffffffffffffffffffffffffffffffffff16908060050160149054906101000a900460ff16905087565b600060647f0000000000000000000000000000000000000000000000000000000000000000606461053191906117e2565b60036000858152602001908152602001600020600301546105529190611869565b61055c9190611838565b9050919050565b600260009054906101000a900473ffffffffffffffffffffffffffffffffffffffff1681565b6000600260005414156105d1576040517f08c379a00000000000000000000000000000000000000000000000000000000081526004016105c8906116e5565b60405180910390fd5b600260008190555060006105e483610500565b9050600060036000858152602001908152602001600020905060008411801561060f57506001548411155b61064e576040517f08c379a0000000000000000000000000000000000000000000000000000000008152600401610645906116c5565b60405180910390fd5b81600260009054906101000a900473ffffffffffffffffffffffffffffffffffffffff1673ffffffffffffffffffffffffffffffffffffffff166370a08231336040518263ffffffff1660e01b81526004016106aa91906115b2565b60206040518083038186803b1580156106c257600080fd5b505afa1580156106d6573d6000803e3d6000fd5b505050506040513d601f19601f820116820180604052508101906106fa91906113e3565b101561073b576040517f08c379a0000000000000000000000000000000000000000000000000000000008152600401610732906116a5565b60405180910390fd5b6107796040518060400160405280600281526020017f6631000000000000000000000000000000000000000000000000000000000000815250611217565b600260009054906101000a900473ffffffffffffffffffffffffffffffffffffffff1673ffffffffffffffffffffffffffffffffffffffff1663a9059cbb7f00000000000000000000000000000000000000000000000000000000000000008360030154856107e891906118c3565b6040518363ffffffff1660e01b81526004016108059291906115e8565b602060405180830381600087803b15801561081f57600080fd5b505af1158015610833573d6000803e3d6000fd5b505050506040513d601f19601f820116820180604052508101906108579190611342565b50600260009054906101000a900473ffffffffffffffffffffffffffffffffffffffff1673ffffffffffffffffffffffffffffffffffffffff1663a9059cbb8260040160009054906101000a900473ffffffffffffffffffffffffffffffffffffffff1683600301546040518363ffffffff1660e01b81526004016108dd9291906115e8565b602060405180830381600087803b1580156108f757600080fd5b505af115801561090b573d6000803e3d6000fd5b505050506040513d601f19601f8201168201806040525081019061092f9190611342565b5061096e6040518060400160405280600281526020017f6632000000000000000000000000000000000000000000000000000000000000815250611217565b600260009054906101000a900473ffffffffffffffffffffffffffffffffffffffff1673ffffffffffffffffffffffffffffffffffffffff1663a9059cbb7f00000000000000000000000000000000000000000000000000000000000000008360030154856109dd91906118c3565b6040518363ffffffff1660e01b81526004016109fa9291906115e8565b602060405180830381600087803b158015610a1457600080fd5b505af1158015610a28573d6000803e3d6000fd5b505050506040513d601f19601f82011682018060405250810190610a4c9190611342565b50610a8b6040518060400160405280600281526020017f6633000000000000000000000000000000000000000000000000000000000000815250611217565b60008160050160146101000a81548160ff0219169083151502179055508060010160009054906101000a900473ffffffffffffffffffffffffffffffffffffffff1673ffffffffffffffffffffffffffffffffffffffff166323b872dd303384600201546040518463ffffffff1660e01b8152600401610b0d93929190611611565b600060405180830381600087803b158015610b2757600080fd5b505af1158015610b3b573d6000803e3d6000fd5b50505050610b7d6040518060400160405280600281526020017f6634000000000000000000000000000000000000000000000000000000000000815250611217565b3373ffffffffffffffffffffffffffffffffffffffff168160040160009054906101000a900473ffffffffffffffffffffffffffffffffffffffff1673ffffffffffffffffffffffffffffffffffffffff168260010160009054906101000a900473ffffffffffffffffffffffffffffffffffffffff1673ffffffffffffffffffffffffffffffffffffffff167f8b4c9c8a607d67b321582dd8461041b1dc2ceeca70c8b7f37f8e02095cf2e76d8785600201548660030154604051610c459392919061178f565b60405180910390a4338160050160006101000a81548173ffffffffffffffffffffffffffffffffffffffff021916908373ffffffffffffffffffffffffffffffffffffffff16021790555033925050506001600081905550919050565b6000600360008481526020019081526020016000209050818160030181905550338160050160006101000a81548173ffffffffffffffffffffffffffffffffffffffff021916908373ffffffffffffffffffffffffffffffffffffffff16021790555060018160050160146101000a81548160ff021916908315150217905550505050565b60026000541415610d6d576040517f08c379a0000000000000000000000000000000000000000000000000000000008152600401610d64906116e5565b60405180910390fd5b60026000819055506000811015610db9576040517f08c379a0000000000000000000000000000000000000000000000000000000008152600401610db090611685565b60405180910390fd5b60016000815480929190610dcc90611a14565b91905055506000811415610f80576040518060e0016040528060015481526020018473ffffffffffffffffffffffffffffffffffffffff1681526020018381526020018281526020013373ffffffffffffffffffffffffffffffffffffffff1681526020013373ffffffffffffffffffffffffffffffffffffffff168152602001600015158152506003600060015481526020019081526020016000206000820151816000015560208201518160010160006101000a81548173ffffffffffffffffffffffffffffffffffffffff021916908373ffffffffffffffffffffffffffffffffffffffff160217905550604082015181600201556060820151816003015560808201518160040160006101000a81548173ffffffffffffffffffffffffffffffffffffffff021916908373ffffffffffffffffffffffffffffffffffffffff16021790555060a08201518160050160006101000a81548173ffffffffffffffffffffffffffffffffffffffff021916908373ffffffffffffffffffffffffffffffffffffffff16021790555060c08201518160050160146101000a81548160ff0219169083151502179055509050505b600081111561120a578273ffffffffffffffffffffffffffffffffffffffff166323b872dd3330856040518463ffffffff1660e01b8152600401610fc693929190611611565b600060405180830381600087803b158015610fe057600080fd5b505af1158015610ff4573d6000803e3d6000fd5b505050506040518060e0016040528060015481526020018473ffffffffffffffffffffffffffffffffffffffff1681526020018381526020018281526020013373ffffffffffffffffffffffffffffffffffffffff168152602001600073ffffffffffffffffffffffffffffffffffffffff168152602001600115158152506003600060015481526020019081526020016000206000820151816000015560208201518160010160006101000a81548173ffffffffffffffffffffffffffffffffffffffff021916908373ffffffffffffffffffffffffffffffffffffffff160217905550604082015181600201556060820151816003015560808201518160040160006101000a81548173ffffffffffffffffffffffffffffffffffffffff021916908373ffffffffffffffffffffffffffffffffffffffff16021790555060a08201518160050160006101000a81548173ffffffffffffffffffffffffffffffffffffffff021916908373ffffffffffffffffffffffffffffffffffffffff16021790555060c08201518160050160146101000a81548160ff0219169083151502179055509050503373ffffffffffffffffffffffffffffffffffffffff168373ffffffffffffffffffffffffffffffffffffffff167f655a0cf9c8db81512be9a76dc1c5ae5380b8816ce6ad659cd61b715e2999d59a60015485856040516112019392919061178f565b60405180910390a35b6001600081905550505050565b6112ad8160405160240161122b9190611663565b6040516020818303038152906040527f41304fac000000000000000000000000000000000000000000000000000000007bffffffffffffffffffffffffffffffffffffffffffffffffffffffff19166020820180517bffffffffffffffffffffffffffffffffffffffffffffffffffffffff83818316178352505050506112b0565b50565b60008151905060006a636f6e736f6c652e6c6f679050602083016000808483855afa5050505050565b6000813590506112e881611b70565b92915050565b6000815190506112fd81611b87565b92915050565b60008135905061131281611b9e565b92915050565b60008135905061132781611bb5565b92915050565b60008151905061133c81611bb5565b92915050565b60006020828403121561135457600080fd5b6000611362848285016112ee565b91505092915050565b60008060006060848603121561138057600080fd5b600061138e86828701611303565b935050602061139f86828701611318565b92505060406113b086828701611318565b9150509250925092565b6000602082840312156113cc57600080fd5b60006113da84828501611318565b91505092915050565b6000602082840312156113f557600080fd5b60006114038482850161132d565b91505092915050565b6000806040838503121561141f57600080fd5b600061142d85828601611318565b925050602061143e858286016112d9565b9150509250929050565b6000806040838503121561145b57600080fd5b600061146985828601611318565b925050602061147a85828601611318565b9150509250929050565b61148d81611963565b82525050565b61149c81611909565b82525050565b6114ab816118f7565b82525050565b6114ba8161191b565b82525050565b6114c981611975565b82525050565b6114d881611999565b82525050565b60006114e9826117c6565b6114f381856117d1565b93506115038185602086016119e1565b61150c81611abb565b840191505092915050565b60006115246017836117d1565b915061152f82611acc565b602082019050919050565b6000611547600e836117d1565b915061155282611af5565b602082019050919050565b600061156a6012836117d1565b915061157582611b1e565b602082019050919050565b600061158d601f836117d1565b915061159882611b47565b602082019050919050565b6115ac81611959565b82525050565b60006020820190506115c760008301846114a2565b92915050565b60006020820190506115e26000830184611493565b92915050565b60006040820190506115fd6000830185611484565b61160a60208301846115a3565b9392505050565b600060608201905061162660008301866114a2565b61163360208301856114a2565b61164060408301846115a3565b949350505050565b600060208201905061165d60008301846114cf565b92915050565b6000602082019050818103600083015261167d81846114de565b905092915050565b6000602082019050818103600083015261169e81611517565b9050919050565b600060208201905081810360008301526116be8161153a565b9050919050565b600060208201905081810360008301526116de8161155d565b9050919050565b600060208201905081810360008301526116fe81611580565b9050919050565b600060208201905061171a60008301846115a3565b92915050565b600060e082019050611735600083018a6115a3565b61174260208301896114c0565b61174f60408301886115a3565b61175c60608301876115a3565b6117696080830186611493565b61177660a0830185611493565b61178360c08301846114b1565b98975050505050505050565b60006060820190506117a460008301866115a3565b6117b160208301856115a3565b6117be60408301846115a3565b949350505050565b600081519050919050565b600082825260208201905092915050565b60006117ed82611959565b91506117f883611959565b9250827fffffffffffffffffffffffffffffffffffffffffffffffffffffffffffffffff0382111561182d5761182c611a5d565b5b828201905092915050565b600061184382611959565b915061184e83611959565b92508261185e5761185d611a8c565b5b828204905092915050565b600061187482611959565b915061187f83611959565b9250817fffffffffffffffffffffffffffffffffffffffffffffffffffffffffffffffff04831182151516156118b8576118b7611a5d565b5b828202905092915050565b60006118ce82611959565b91506118d983611959565b9250828210156118ec576118eb611a5d565b5b828203905092915050565b600061190282611939565b9050919050565b600061191482611939565b9050919050565b60008115159050919050565b6000611932826118f7565b9050919050565b600073ffffffffffffffffffffffffffffffffffffffff82169050919050565b6000819050919050565b600061196e826119bd565b9050919050565b600061198082611987565b9050919050565b600061199282611939565b9050919050565b60006119a4826119ab565b9050919050565b60006119b682611939565b9050919050565b60006119c8826119cf565b9050919050565b60006119da82611939565b9050919050565b60005b838110156119ff5780820151818401526020810190506119e4565b83811115611a0e576000848401525b50505050565b6000611a1f82611959565b91507fffffffffffffffffffffffffffffffffffffffffffffffffffffffffffffffff821415611a5257611a51611a5d565b5b600182019050919050565b7f4e487b7100000000000000000000000000000000000000000000000000000000600052601160045260246000fd5b7f4e487b7100000000000000000000000000000000000000000000000000000000600052601260045260246000fd5b6000601f19601f8301169050919050565b7f50726963652063616e2774206265206e65676174697665000000000000000000600082015250565b7f6e6f7420656e6f7567682e2e2e2e000000000000000000000000000000000000600082015250565b7f6974656d20646f65736e27742065786973740000000000000000000000000000600082015250565b7f5265656e7472616e637947756172643a207265656e7472616e742063616c6c00600082015250565b611b7981611909565b8114611b8457600080fd5b50565b611b908161191b565b8114611b9b57600080fd5b50565b611ba781611927565b8114611bb257600080fd5b50565b611bbe81611959565b8114611bc957600080fd5b5056fea2646970667358221220fc0905dfbc5e4dafd3114d4cb1858446d2a0e6d374ebe4147e9bd763042900db64736f6c63430008040033",
  "linkReferences": {},
  "deployedLinkReferences": {}
}