{
  "_format": "hh-sol-artifact-1",
  "contractName": "Marketplace",
  "sourceName": "src/backend/contracts/Marketplace.sol",
  "abi": [
    {
      "inputs": [
        {
          "internalType": "uint256",
          "name": "_feePercent",
          "type": "uint256"
        }
      ],
      "stateMutability": "nonpayable",
      "type": "constructor"
    },
    {
      "anonymous": false,
      "inputs": [
        {
          "indexed": false,
          "internalType": "uint256",
          "name": "itemId",
          "type": "uint256"
        },
        {
          "indexed": true,
          "internalType": "address",
          "name": "nft",
          "type": "address"
        },
        {
          "indexed": false,
          "internalType": "uint256",
          "name": "tokenId",
          "type": "uint256"
        },
        {
          "indexed": false,
          "internalType": "uint256",
          "name": "price",
          "type": "uint256"
        },
        {
          "indexed": true,
          "internalType": "address",
          "name": "seller",
          "type": "address"
        },
        {
          "indexed": true,
          "internalType": "address",
          "name": "buyer",
          "type": "address"
        }
      ],
      "name": "Bought",
      "type": "event"
    },
    {
      "anonymous": false,
      "inputs": [
        {
          "indexed": false,
          "internalType": "uint256",
          "name": "itemId",
          "type": "uint256"
        },
        {
          "indexed": true,
          "internalType": "address",
          "name": "nft",
          "type": "address"
        },
        {
          "indexed": false,
          "internalType": "uint256",
          "name": "tokenId",
          "type": "uint256"
        },
        {
          "indexed": false,
          "internalType": "uint256",
          "name": "price",
          "type": "uint256"
        },
        {
          "indexed": true,
          "internalType": "address",
          "name": "seller",
          "type": "address"
        }
      ],
      "name": "Offered",
      "type": "event"
    },
    {
      "inputs": [
        {
          "internalType": "uint256",
          "name": "_itemId",
          "type": "uint256"
        },
        {
          "internalType": "address payable",
          "name": "_seller",
          "type": "address"
        }
      ],
      "name": "changeNFTHolder",
      "outputs": [],
      "stateMutability": "nonpayable",
      "type": "function"
    },
    {
      "inputs": [],
      "name": "feeAccount",
      "outputs": [
        {
          "internalType": "address payable",
          "name": "",
          "type": "address"
        }
      ],
      "stateMutability": "view",
      "type": "function"
    },
    {
      "inputs": [],
      "name": "feePercent",
      "outputs": [
        {
          "internalType": "uint256",
          "name": "",
          "type": "uint256"
        }
      ],
      "stateMutability": "view",
      "type": "function"
    },
    {
      "inputs": [
        {
          "internalType": "uint256",
          "name": "_itemId",
          "type": "uint256"
        }
      ],
      "name": "getNFTSeller",
      "outputs": [
        {
          "internalType": "address",
          "name": "",
          "type": "address"
        }
      ],
      "stateMutability": "view",
      "type": "function"
    },
    {
      "inputs": [
        {
          "internalType": "uint256",
          "name": "_itemId",
          "type": "uint256"
        }
      ],
      "name": "getTotalPrice",
      "outputs": [
        {
          "internalType": "uint256",
          "name": "",
          "type": "uint256"
        }
      ],
      "stateMutability": "view",
      "type": "function"
    },
    {
      "inputs": [],
      "name": "itemCount",
      "outputs": [
        {
          "internalType": "uint256",
          "name": "",
          "type": "uint256"
        }
      ],
      "stateMutability": "view",
      "type": "function"
    },
    {
      "inputs": [
        {
          "internalType": "uint256",
          "name": "",
          "type": "uint256"
        }
      ],
      "name": "items",
      "outputs": [
        {
          "internalType": "uint256",
          "name": "itemId",
          "type": "uint256"
        },
        {
          "internalType": "contract IERC721",
          "name": "nft",
          "type": "address"
        },
        {
          "internalType": "uint256",
          "name": "tokenId",
          "type": "uint256"
        },
        {
          "internalType": "uint256",
          "name": "price",
          "type": "uint256"
        },
        {
          "internalType": "address payable",
          "name": "seller",
          "type": "address"
        },
        {
          "internalType": "address payable",
          "name": "owner",
          "type": "address"
        },
        {
          "internalType": "bool",
          "name": "forSale",
          "type": "bool"
        }
      ],
      "stateMutability": "view",
      "type": "function"
    },
    {
      "inputs": [
        {
          "internalType": "contract IERC721",
          "name": "_nft",
          "type": "address"
        },
        {
          "internalType": "uint256",
          "name": "_tokenId",
          "type": "uint256"
        },
        {
          "internalType": "uint256",
          "name": "_price",
          "type": "uint256"
        }
      ],
      "name": "makeItem",
      "outputs": [],
      "stateMutability": "nonpayable",
      "type": "function"
    },
    {
      "inputs": [
        {
          "internalType": "uint256",
          "name": "_itemId",
          "type": "uint256"
        }
      ],
      "name": "purchaseItem",
      "outputs": [
        {
          "internalType": "address",
          "name": "",
          "type": "address"
        }
      ],
      "stateMutability": "payable",
      "type": "function"
    },
    {
      "inputs": [
        {
          "internalType": "uint256",
          "name": "_itemId",
          "type": "uint256"
        },
        {
          "internalType": "bool",
          "name": "_forSale",
          "type": "bool"
        }
      ],
      "name": "setForSale",
      "outputs": [],
      "stateMutability": "nonpayable",
      "type": "function"
    },
    {
      "inputs": [
        {
          "internalType": "uint256",
          "name": "_itemId",
          "type": "uint256"
        },
        {
          "internalType": "uint256",
          "name": "_price",
          "type": "uint256"
        }
      ],
      "name": "setPrice",
      "outputs": [],
      "stateMutability": "nonpayable",
      "type": "function"
    }
  ],
  "bytecode": "0x60c060405234801561001057600080fd5b50604051620014e0380380620014e083398181016040528101906100349190610096565b60016000819055503373ffffffffffffffffffffffffffffffffffffffff1660808173ffffffffffffffffffffffffffffffffffffffff1660601b815250508060a08181525050506100e0565b600081519050610090816100c9565b92915050565b6000602082840312156100a857600080fd5b60006100b684828501610081565b91505092915050565b6000819050919050565b6100d2816100bf565b81146100dd57600080fd5b50565b60805160601c60a0516113c9620001176000396000818161031f01526104550152600081816102b5015261062b01526113c96000f3fe60806040526004361061009c5760003560e01c8063bfb231d211610064578063bfb231d214610188578063ca7dd375146101cb578063d38ea5bf14610208578063f0a6c16b14610238578063f7d9757714610261578063fa00afc71461028a5761009c565b806365e17c9d146100a157806366b4d7ec146100cc5780636bfb0d01146101095780637fd6f15c146101345780638f5715b51461015f575b600080fd5b3480156100ad57600080fd5b506100b66102b3565b6040516100c39190610e7d565b60405180910390f35b3480156100d857600080fd5b506100f360048036038101906100ee9190610cae565b6102d7565b6040516101009190610e62565b60405180910390f35b34801561011557600080fd5b5061011e610317565b60405161012b9190610f4f565b60405180910390f35b34801561014057600080fd5b5061014961031d565b6040516101569190610f4f565b60405180910390f35b34801561016b57600080fd5b5061018660048036038101906101819190610cd7565b610341565b005b34801561019457600080fd5b506101af60048036038101906101aa9190610cae565b6103a0565b6040516101c29796959493929190610f6a565b60405180910390f35b3480156101d757600080fd5b506101f260048036038101906101ed9190610cae565b61044f565b6040516101ff9190610f4f565b60405180910390f35b610222600480360381019061021d9190610cae565b6104b2565b60405161022f9190610e62565b60405180910390f35b34801561024457600080fd5b5061025f600480360381019061025a9190610d13565b610878565b005b34801561026d57600080fd5b5061028860048036038101906102839190610d4f565b6108b0565b005b34801561029657600080fd5b506102b160048036038101906102ac9190610c5f565b6108d5565b005b7f000000000000000000000000000000000000000000000000000000000000000081565b60006002600083815260200190815260200160002060040160009054906101000a900473ffffffffffffffffffffffffffffffffffffffff169050919050565b60015481565b7f000000000000000000000000000000000000000000000000000000000000000081565b6000600260008481526020019081526020016000209050818160040160006101000a81548173ffffffffffffffffffffffffffffffffffffffff021916908373ffffffffffffffffffffffffffffffffffffffff160217905550505050565b60026020528060005260406000206000915090508060000154908060010160009054906101000a900473ffffffffffffffffffffffffffffffffffffffff16908060020154908060030154908060040160009054906101000a900473ffffffffffffffffffffffffffffffffffffffff16908060050160009054906101000a900473ffffffffffffffffffffffffffffffffffffffff16908060050160149054906101000a900460ff16905087565b600060647f000000000000000000000000000000000000000000000000000000000000000060646104809190611021565b60026000858152602001908152602001600020600301546104a191906110a8565b6104ab9190611077565b9050919050565b6000600260005414156104fa576040517f08c379a00000000000000000000000000000000000000000000000000000000081526004016104f190610f2f565b60405180910390fd5b6002600081905550600061050d8361044f565b9050600060026000858152602001908152602001600020905060008411801561053857506001548411155b610577576040517f08c379a000000000000000000000000000000000000000000000000000000000815260040161056e90610f0f565b60405180910390fd5b813410156105ba576040517f08c379a00000000000000000000000000000000000000000000000000000000081526004016105b190610eef565b60405180910390fd5b8060040160009054906101000a900473ffffffffffffffffffffffffffffffffffffffff1673ffffffffffffffffffffffffffffffffffffffff166108fc82600301549081150290604051600060405180830381858888f19350505050158015610628573d6000803e3d6000fd5b507f000000000000000000000000000000000000000000000000000000000000000073ffffffffffffffffffffffffffffffffffffffff166108fc8260030154846106739190611102565b9081150290604051600060405180830381858888f1935050505015801561069e573d6000803e3d6000fd5b5060008160050160146101000a81548160ff0219169083151502179055508060010160009054906101000a900473ffffffffffffffffffffffffffffffffffffffff1673ffffffffffffffffffffffffffffffffffffffff166323b872dd303384600201546040518463ffffffff1660e01b815260040161072193929190610e98565b600060405180830381600087803b15801561073b57600080fd5b505af115801561074f573d6000803e3d6000fd5b505050503373ffffffffffffffffffffffffffffffffffffffff168160040160009054906101000a900473ffffffffffffffffffffffffffffffffffffffff1673ffffffffffffffffffffffffffffffffffffffff168260010160009054906101000a900473ffffffffffffffffffffffffffffffffffffffff1673ffffffffffffffffffffffffffffffffffffffff167f8b4c9c8a607d67b321582dd8461041b1dc2ceeca70c8b7f37f8e02095cf2e76d878560020154866003015460405161081b93929190610fd9565b60405180910390a4338160050160006101000a81548173ffffffffffffffffffffffffffffffffffffffff021916908373ffffffffffffffffffffffffffffffffffffffff16021790555033925050506001600081905550919050565b6000600260008481526020019081526020016000209050818160050160146101000a81548160ff021916908315150217905550505050565b6000600260008481526020019081526020016000209050818160030181905550505050565b6002600054141561091b576040517f08c379a000000000000000000000000000000000000000000000000000000000815260040161091290610f2f565b60405180910390fd5b600260008190555060008111610966576040517f08c379a000000000000000000000000000000000000000000000000000000000815260040161095d90610ecf565b60405180910390fd5b60016000815480929190610979906111c6565b91905055508273ffffffffffffffffffffffffffffffffffffffff166323b872dd3330856040518463ffffffff1660e01b81526004016109bb93929190610e98565b600060405180830381600087803b1580156109d557600080fd5b505af11580156109e9573d6000803e3d6000fd5b505050506040518060e0016040528060015481526020018473ffffffffffffffffffffffffffffffffffffffff1681526020018381526020018281526020013373ffffffffffffffffffffffffffffffffffffffff168152602001600073ffffffffffffffffffffffffffffffffffffffff168152602001600115158152506002600060015481526020019081526020016000206000820151816000015560208201518160010160006101000a81548173ffffffffffffffffffffffffffffffffffffffff021916908373ffffffffffffffffffffffffffffffffffffffff160217905550604082015181600201556060820151816003015560808201518160040160006101000a81548173ffffffffffffffffffffffffffffffffffffffff021916908373ffffffffffffffffffffffffffffffffffffffff16021790555060a08201518160050160006101000a81548173ffffffffffffffffffffffffffffffffffffffff021916908373ffffffffffffffffffffffffffffffffffffffff16021790555060c08201518160050160146101000a81548160ff0219169083151502179055509050503373ffffffffffffffffffffffffffffffffffffffff168373ffffffffffffffffffffffffffffffffffffffff167f655a0cf9c8db81512be9a76dc1c5ae5380b8816ce6ad659cd61b715e2999d59a6001548585604051610bf693929190610fd9565b60405180910390a36001600081905550505050565b600081359050610c1a81611337565b92915050565b600081359050610c2f8161134e565b92915050565b600081359050610c4481611365565b92915050565b600081359050610c598161137c565b92915050565b600080600060608486031215610c7457600080fd5b6000610c8286828701610c35565b9350506020610c9386828701610c4a565b9250506040610ca486828701610c4a565b9150509250925092565b600060208284031215610cc057600080fd5b6000610cce84828501610c4a565b91505092915050565b60008060408385031215610cea57600080fd5b6000610cf885828601610c4a565b9250506020610d0985828601610c0b565b9150509250929050565b60008060408385031215610d2657600080fd5b6000610d3485828601610c4a565b9250506020610d4585828601610c20565b9150509250929050565b60008060408385031215610d6257600080fd5b6000610d7085828601610c4a565b9250506020610d8185828601610c4a565b9150509250929050565b610d9481611148565b82525050565b610da381611136565b82525050565b610db28161115a565b82525050565b610dc1816111a2565b82525050565b6000610dd4601f83611010565b9150610ddf8261126d565b602082019050919050565b6000610df7603383611010565b9150610e0282611296565b604082019050919050565b6000610e1a601283611010565b9150610e25826112e5565b602082019050919050565b6000610e3d601f83611010565b9150610e488261130e565b602082019050919050565b610e5c81611198565b82525050565b6000602082019050610e776000830184610d9a565b92915050565b6000602082019050610e926000830184610d8b565b92915050565b6000606082019050610ead6000830186610d9a565b610eba6020830185610d9a565b610ec76040830184610e53565b949350505050565b60006020820190508181036000830152610ee881610dc7565b9050919050565b60006020820190508181036000830152610f0881610dea565b9050919050565b60006020820190508181036000830152610f2881610e0d565b9050919050565b60006020820190508181036000830152610f4881610e30565b9050919050565b6000602082019050610f646000830184610e53565b92915050565b600060e082019050610f7f600083018a610e53565b610f8c6020830189610db8565b610f996040830188610e53565b610fa66060830187610e53565b610fb36080830186610d8b565b610fc060a0830185610d8b565b610fcd60c0830184610da9565b98975050505050505050565b6000606082019050610fee6000830186610e53565b610ffb6020830185610e53565b6110086040830184610e53565b949350505050565b600082825260208201905092915050565b600061102c82611198565b915061103783611198565b9250827fffffffffffffffffffffffffffffffffffffffffffffffffffffffffffffffff0382111561106c5761106b61120f565b5b828201905092915050565b600061108282611198565b915061108d83611198565b92508261109d5761109c61123e565b5b828204905092915050565b60006110b382611198565b91506110be83611198565b9250817fffffffffffffffffffffffffffffffffffffffffffffffffffffffffffffffff04831182151516156110f7576110f661120f565b5b828202905092915050565b600061110d82611198565b915061111883611198565b92508282101561112b5761112a61120f565b5b828203905092915050565b600061114182611178565b9050919050565b600061115382611178565b9050919050565b60008115159050919050565b600061117182611136565b9050919050565b600073ffffffffffffffffffffffffffffffffffffffff82169050919050565b6000819050919050565b60006111ad826111b4565b9050919050565b60006111bf82611178565b9050919050565b60006111d182611198565b91507fffffffffffffffffffffffffffffffffffffffffffffffffffffffffffffffff8214156112045761120361120f565b5b600182019050919050565b7f4e487b7100000000000000000000000000000000000000000000000000000000600052601160045260246000fd5b7f4e487b7100000000000000000000000000000000000000000000000000000000600052601260045260246000fd5b7f5072696365206d7573742062652067726561746572207468616e207a65726f00600082015250565b7f6e6f7420656e6f75676820657468657220746f20636f766572206974656d207060008201527f7269636520616e64206d61726b65742066656500000000000000000000000000602082015250565b7f6974656d20646f65736e27742065786973740000000000000000000000000000600082015250565b7f5265656e7472616e637947756172643a207265656e7472616e742063616c6c00600082015250565b61134081611148565b811461134b57600080fd5b50565b6113578161115a565b811461136257600080fd5b50565b61136e81611166565b811461137957600080fd5b50565b61138581611198565b811461139057600080fd5b5056fea2646970667358221220d4281c11f762713bfe80546348cff4001319cb44be7df44c630c8ade0098feda64736f6c63430008040033",
  "linkReferences": {},
  "deployedLinkReferences": {}
}