{
  "_format": "hh-sol-artifact-1",
  "contractName": "Marketplace",
  "sourceName": "src/backend/contracts/Marketplace.sol",
  "abi": [
    {
      "inputs": [
        {
          "internalType": "uint256",
          "name": "_feePercent",
          "type": "uint256"
        }
      ],
      "stateMutability": "nonpayable",
      "type": "constructor"
    },
    {
      "anonymous": false,
      "inputs": [
        {
          "indexed": false,
          "internalType": "uint256",
          "name": "itemId",
          "type": "uint256"
        },
        {
          "indexed": true,
          "internalType": "address",
          "name": "nft",
          "type": "address"
        },
        {
          "indexed": false,
          "internalType": "uint256",
          "name": "tokenId",
          "type": "uint256"
        },
        {
          "indexed": false,
          "internalType": "uint256",
          "name": "price",
          "type": "uint256"
        },
        {
          "indexed": true,
          "internalType": "address",
          "name": "seller",
          "type": "address"
        },
        {
          "indexed": true,
          "internalType": "address",
          "name": "buyer",
          "type": "address"
        }
      ],
      "name": "Bought",
      "type": "event"
    },
    {
      "anonymous": false,
      "inputs": [
        {
          "indexed": false,
          "internalType": "uint256",
          "name": "itemId",
          "type": "uint256"
        },
        {
          "indexed": true,
          "internalType": "address",
          "name": "nft",
          "type": "address"
        },
        {
          "indexed": false,
          "internalType": "uint256",
          "name": "tokenId",
          "type": "uint256"
        },
        {
          "indexed": false,
          "internalType": "uint256",
          "name": "price",
          "type": "uint256"
        },
        {
          "indexed": true,
          "internalType": "address",
          "name": "seller",
          "type": "address"
        }
      ],
      "name": "Offered",
      "type": "event"
    },
    {
      "inputs": [
        {
          "internalType": "uint256",
          "name": "_itemId",
          "type": "uint256"
        },
        {
          "internalType": "address payable",
          "name": "_seller",
          "type": "address"
        }
      ],
      "name": "changeNFTHolder",
      "outputs": [],
      "stateMutability": "nonpayable",
      "type": "function"
    },
    {
      "inputs": [],
      "name": "feeAccount",
      "outputs": [
        {
          "internalType": "address payable",
          "name": "",
          "type": "address"
        }
      ],
      "stateMutability": "view",
      "type": "function"
    },
    {
      "inputs": [],
      "name": "feePercent",
      "outputs": [
        {
          "internalType": "uint256",
          "name": "",
          "type": "uint256"
        }
      ],
      "stateMutability": "view",
      "type": "function"
    },
    {
      "inputs": [
        {
          "internalType": "uint256",
          "name": "_itemId",
          "type": "uint256"
        }
      ],
      "name": "getNFTSeller",
      "outputs": [
        {
          "internalType": "address",
          "name": "",
          "type": "address"
        }
      ],
      "stateMutability": "view",
      "type": "function"
    },
    {
      "inputs": [
        {
          "internalType": "uint256",
          "name": "_itemId",
          "type": "uint256"
        }
      ],
      "name": "getTotalPrice",
      "outputs": [
        {
          "internalType": "uint256",
          "name": "",
          "type": "uint256"
        }
      ],
      "stateMutability": "view",
      "type": "function"
    },
    {
      "inputs": [],
      "name": "itemCount",
      "outputs": [
        {
          "internalType": "uint256",
          "name": "",
          "type": "uint256"
        }
      ],
      "stateMutability": "view",
      "type": "function"
    },
    {
      "inputs": [
        {
          "internalType": "uint256",
          "name": "",
          "type": "uint256"
        }
      ],
      "name": "items",
      "outputs": [
        {
          "internalType": "uint256",
          "name": "itemId",
          "type": "uint256"
        },
        {
          "internalType": "contract IERC721",
          "name": "nft",
          "type": "address"
        },
        {
          "internalType": "uint256",
          "name": "tokenId",
          "type": "uint256"
        },
        {
          "internalType": "uint256",
          "name": "price",
          "type": "uint256"
        },
        {
          "internalType": "address payable",
          "name": "seller",
          "type": "address"
        },
        {
          "internalType": "bool",
          "name": "forSale",
          "type": "bool"
        }
      ],
      "stateMutability": "view",
      "type": "function"
    },
    {
      "inputs": [
        {
          "internalType": "contract IERC721",
          "name": "_nft",
          "type": "address"
        },
        {
          "internalType": "uint256",
          "name": "_tokenId",
          "type": "uint256"
        },
        {
          "internalType": "uint256",
          "name": "_price",
          "type": "uint256"
        }
      ],
      "name": "makeItem",
      "outputs": [],
      "stateMutability": "nonpayable",
      "type": "function"
    },
    {
      "inputs": [
        {
          "internalType": "uint256",
          "name": "_itemId",
          "type": "uint256"
        }
      ],
      "name": "purchaseItem",
      "outputs": [
        {
          "internalType": "address",
          "name": "",
          "type": "address"
        }
      ],
      "stateMutability": "payable",
      "type": "function"
    }
  ],
  "bytecode": "0x60c060405234801561001057600080fd5b5060405161129838038061129883398181016040528101906100329190610094565b60016000819055503373ffffffffffffffffffffffffffffffffffffffff1660808173ffffffffffffffffffffffffffffffffffffffff1660601b815250508060a08181525050506100de565b60008151905061008e816100c7565b92915050565b6000602082840312156100a657600080fd5b60006100b48482850161007f565b91505092915050565b6000819050919050565b6100d0816100bd565b81146100db57600080fd5b50565b60805160601c60a051611184610114600039600081816102b601526103c601526000818161024c015261059c01526111846000f3fe6080604052600436106100865760003560e01c80638f5715b5116100595780638f5715b514610149578063bfb231d214610172578063ca7dd375146101b4578063d38ea5bf146101f1578063fa00afc71461022157610086565b806365e17c9d1461008b57806366b4d7ec146100b65780636bfb0d01146100f35780637fd6f15c1461011e575b600080fd5b34801561009757600080fd5b506100a061024a565b6040516100ad9190610c5d565b60405180910390f35b3480156100c257600080fd5b506100dd60048036038101906100d89190610b06565b61026e565b6040516100ea9190610c42565b60405180910390f35b3480156100ff57600080fd5b506101086102ae565b6040516101159190610d2f565b60405180910390f35b34801561012a57600080fd5b506101336102b4565b6040516101409190610d2f565b60405180910390f35b34801561015557600080fd5b50610170600480360381019061016b9190610b2f565b6102d8565b005b34801561017e57600080fd5b5061019960048036038101906101949190610b06565b610337565b6040516101ab96959493929190610d4a565b60405180910390f35b3480156101c057600080fd5b506101db60048036038101906101d69190610b06565b6103c0565b6040516101e89190610d2f565b60405180910390f35b61020b60048036038101906102069190610b06565b610423565b6040516102189190610c42565b60405180910390f35b34801561022d57600080fd5b5061024860048036038101906102439190610ab7565b6107a6565b005b7f000000000000000000000000000000000000000000000000000000000000000081565b60006002600083815260200190815260200160002060040160009054906101000a900473ffffffffffffffffffffffffffffffffffffffff169050919050565b60015481565b7f000000000000000000000000000000000000000000000000000000000000000081565b6000600260008481526020019081526020016000209050818160040160006101000a81548173ffffffffffffffffffffffffffffffffffffffff021916908373ffffffffffffffffffffffffffffffffffffffff160217905550505050565b60026020528060005260406000206000915090508060000154908060010160009054906101000a900473ffffffffffffffffffffffffffffffffffffffff16908060020154908060030154908060040160009054906101000a900473ffffffffffffffffffffffffffffffffffffffff16908060040160149054906101000a900460ff16905086565b600060647f000000000000000000000000000000000000000000000000000000000000000060646103f19190610df3565b60026000858152602001908152602001600020600301546104129190610e7a565b61041c9190610e49565b9050919050565b60006002600054141561046b576040517f08c379a000000000000000000000000000000000000000000000000000000000815260040161046290610d0f565b60405180910390fd5b6002600081905550600061047e836103c0565b905060006002600085815260200190815260200160002090506000841180156104a957506001548411155b6104e8576040517f08c379a00000000000000000000000000000000000000000000000000000000081526004016104df90610cef565b60405180910390fd5b8134101561052b576040517f08c379a000000000000000000000000000000000000000000000000000000000815260040161052290610ccf565b60405180910390fd5b8060040160009054906101000a900473ffffffffffffffffffffffffffffffffffffffff1673ffffffffffffffffffffffffffffffffffffffff166108fc82600301549081150290604051600060405180830381858888f19350505050158015610599573d6000803e3d6000fd5b507f000000000000000000000000000000000000000000000000000000000000000073ffffffffffffffffffffffffffffffffffffffff166108fc8260030154846105e49190610ed4565b9081150290604051600060405180830381858888f1935050505015801561060f573d6000803e3d6000fd5b5060008160040160146101000a81548160ff0219169083151502179055508060010160009054906101000a900473ffffffffffffffffffffffffffffffffffffffff1673ffffffffffffffffffffffffffffffffffffffff166323b872dd303384600201546040518463ffffffff1660e01b815260040161069293929190610c78565b600060405180830381600087803b1580156106ac57600080fd5b505af11580156106c0573d6000803e3d6000fd5b505050503373ffffffffffffffffffffffffffffffffffffffff168160040160009054906101000a900473ffffffffffffffffffffffffffffffffffffffff1673ffffffffffffffffffffffffffffffffffffffff168260010160009054906101000a900473ffffffffffffffffffffffffffffffffffffffff1673ffffffffffffffffffffffffffffffffffffffff167f8b4c9c8a607d67b321582dd8461041b1dc2ceeca70c8b7f37f8e02095cf2e76d878560020154866003015460405161078c93929190610dab565b60405180910390a433925050506001600081905550919050565b600260005414156107ec576040517f08c379a00000000000000000000000000000000000000000000000000000000081526004016107e390610d0f565b60405180910390fd5b600260008190555060008111610837576040517f08c379a000000000000000000000000000000000000000000000000000000000815260040161082e90610caf565b60405180910390fd5b6001600081548092919061084a90610f98565b91905055508273ffffffffffffffffffffffffffffffffffffffff166323b872dd3330856040518463ffffffff1660e01b815260040161088c93929190610c78565b600060405180830381600087803b1580156108a657600080fd5b505af11580156108ba573d6000803e3d6000fd5b505050506040518060c0016040528060015481526020018473ffffffffffffffffffffffffffffffffffffffff1681526020018381526020018281526020013373ffffffffffffffffffffffffffffffffffffffff168152602001600115158152506002600060015481526020019081526020016000206000820151816000015560208201518160010160006101000a81548173ffffffffffffffffffffffffffffffffffffffff021916908373ffffffffffffffffffffffffffffffffffffffff160217905550604082015181600201556060820151816003015560808201518160040160006101000a81548173ffffffffffffffffffffffffffffffffffffffff021916908373ffffffffffffffffffffffffffffffffffffffff16021790555060a08201518160040160146101000a81548160ff0219169083151502179055509050503373ffffffffffffffffffffffffffffffffffffffff168373ffffffffffffffffffffffffffffffffffffffff167f655a0cf9c8db81512be9a76dc1c5ae5380b8816ce6ad659cd61b715e2999d59a6001548585604051610a6393929190610dab565b60405180910390a36001600081905550505050565b600081359050610a8781611109565b92915050565b600081359050610a9c81611120565b92915050565b600081359050610ab181611137565b92915050565b600080600060608486031215610acc57600080fd5b6000610ada86828701610a8d565b9350506020610aeb86828701610aa2565b9250506040610afc86828701610aa2565b9150509250925092565b600060208284031215610b1857600080fd5b6000610b2684828501610aa2565b91505092915050565b60008060408385031215610b4257600080fd5b6000610b5085828601610aa2565b9250506020610b6185828601610a78565b9150509250929050565b610b7481610f1a565b82525050565b610b8381610f08565b82525050565b610b9281610f2c565b82525050565b610ba181610f74565b82525050565b6000610bb4601f83610de2565b9150610bbf8261103f565b602082019050919050565b6000610bd7603383610de2565b9150610be282611068565b604082019050919050565b6000610bfa601283610de2565b9150610c05826110b7565b602082019050919050565b6000610c1d601f83610de2565b9150610c28826110e0565b602082019050919050565b610c3c81610f6a565b82525050565b6000602082019050610c576000830184610b7a565b92915050565b6000602082019050610c726000830184610b6b565b92915050565b6000606082019050610c8d6000830186610b7a565b610c9a6020830185610b7a565b610ca76040830184610c33565b949350505050565b60006020820190508181036000830152610cc881610ba7565b9050919050565b60006020820190508181036000830152610ce881610bca565b9050919050565b60006020820190508181036000830152610d0881610bed565b9050919050565b60006020820190508181036000830152610d2881610c10565b9050919050565b6000602082019050610d446000830184610c33565b92915050565b600060c082019050610d5f6000830189610c33565b610d6c6020830188610b98565b610d796040830187610c33565b610d866060830186610c33565b610d936080830185610b6b565b610da060a0830184610b89565b979650505050505050565b6000606082019050610dc06000830186610c33565b610dcd6020830185610c33565b610dda6040830184610c33565b949350505050565b600082825260208201905092915050565b6000610dfe82610f6a565b9150610e0983610f6a565b9250827fffffffffffffffffffffffffffffffffffffffffffffffffffffffffffffffff03821115610e3e57610e3d610fe1565b5b828201905092915050565b6000610e5482610f6a565b9150610e5f83610f6a565b925082610e6f57610e6e611010565b5b828204905092915050565b6000610e8582610f6a565b9150610e9083610f6a565b9250817fffffffffffffffffffffffffffffffffffffffffffffffffffffffffffffffff0483118215151615610ec957610ec8610fe1565b5b828202905092915050565b6000610edf82610f6a565b9150610eea83610f6a565b925082821015610efd57610efc610fe1565b5b828203905092915050565b6000610f1382610f4a565b9050919050565b6000610f2582610f4a565b9050919050565b60008115159050919050565b6000610f4382610f08565b9050919050565b600073ffffffffffffffffffffffffffffffffffffffff82169050919050565b6000819050919050565b6000610f7f82610f86565b9050919050565b6000610f9182610f4a565b9050919050565b6000610fa382610f6a565b91507fffffffffffffffffffffffffffffffffffffffffffffffffffffffffffffffff821415610fd657610fd5610fe1565b5b600182019050919050565b7f4e487b7100000000000000000000000000000000000000000000000000000000600052601160045260246000fd5b7f4e487b7100000000000000000000000000000000000000000000000000000000600052601260045260246000fd5b7f5072696365206d7573742062652067726561746572207468616e207a65726f00600082015250565b7f6e6f7420656e6f75676820657468657220746f20636f766572206974656d207060008201527f7269636520616e64206d61726b65742066656500000000000000000000000000602082015250565b7f6974656d20646f65736e27742065786973740000000000000000000000000000600082015250565b7f5265656e7472616e637947756172643a207265656e7472616e742063616c6c00600082015250565b61111281610f1a565b811461111d57600080fd5b50565b61112981610f38565b811461113457600080fd5b50565b61114081610f6a565b811461114b57600080fd5b5056fea264697066735822122021a90606dc53bdfaf05101fc217a1285935b1a662c5c3e91786a601f8163baaa64736f6c63430008040033",
  "linkReferences": {},
  "deployedLinkReferences": {}
}