{
  "_format": "hh-sol-artifact-1",
  "contractName": "Marketplace",
  "sourceName": "src/backend/contracts/Marketplace.sol",
  "abi": [
    {
      "inputs": [
        {
          "internalType": "uint256",
          "name": "_feePercent",
          "type": "uint256"
        }
      ],
      "stateMutability": "nonpayable",
      "type": "constructor"
    },
    {
      "anonymous": false,
      "inputs": [
        {
          "indexed": false,
          "internalType": "uint256",
          "name": "itemId",
          "type": "uint256"
        },
        {
          "indexed": true,
          "internalType": "address",
          "name": "nft",
          "type": "address"
        },
        {
          "indexed": false,
          "internalType": "uint256",
          "name": "tokenId",
          "type": "uint256"
        },
        {
          "indexed": false,
          "internalType": "uint256",
          "name": "price",
          "type": "uint256"
        },
        {
          "indexed": true,
          "internalType": "address",
          "name": "seller",
          "type": "address"
        },
        {
          "indexed": true,
          "internalType": "address",
          "name": "buyer",
          "type": "address"
        }
      ],
      "name": "Bought",
      "type": "event"
    },
    {
      "anonymous": false,
      "inputs": [
        {
          "indexed": false,
          "internalType": "uint256",
          "name": "itemId",
          "type": "uint256"
        },
        {
          "indexed": true,
          "internalType": "address",
          "name": "nft",
          "type": "address"
        },
        {
          "indexed": false,
          "internalType": "uint256",
          "name": "tokenId",
          "type": "uint256"
        },
        {
          "indexed": false,
          "internalType": "uint256",
          "name": "price",
          "type": "uint256"
        },
        {
          "indexed": true,
          "internalType": "address",
          "name": "seller",
          "type": "address"
        }
      ],
      "name": "Offered",
      "type": "event"
    },
    {
      "inputs": [
        {
          "internalType": "uint256",
          "name": "_itemId",
          "type": "uint256"
        },
        {
          "internalType": "address payable",
          "name": "_seller",
          "type": "address"
        }
      ],
      "name": "changeNFTHolder",
      "outputs": [],
      "stateMutability": "nonpayable",
      "type": "function"
    },
    {
      "inputs": [],
      "name": "feeAccount",
      "outputs": [
        {
          "internalType": "address payable",
          "name": "",
          "type": "address"
        }
      ],
      "stateMutability": "view",
      "type": "function"
    },
    {
      "inputs": [],
      "name": "feePercent",
      "outputs": [
        {
          "internalType": "uint256",
          "name": "",
          "type": "uint256"
        }
      ],
      "stateMutability": "view",
      "type": "function"
    },
    {
      "inputs": [
        {
          "internalType": "uint256",
          "name": "_itemId",
          "type": "uint256"
        }
      ],
      "name": "getNFTSeller",
      "outputs": [
        {
          "internalType": "address",
          "name": "",
          "type": "address"
        }
      ],
      "stateMutability": "view",
      "type": "function"
    },
    {
      "inputs": [
        {
          "internalType": "uint256",
          "name": "_itemId",
          "type": "uint256"
        }
      ],
      "name": "getTotalPrice",
      "outputs": [
        {
          "internalType": "uint256",
          "name": "",
          "type": "uint256"
        }
      ],
      "stateMutability": "view",
      "type": "function"
    },
    {
      "inputs": [],
      "name": "itemCount",
      "outputs": [
        {
          "internalType": "uint256",
          "name": "",
          "type": "uint256"
        }
      ],
      "stateMutability": "view",
      "type": "function"
    },
    {
      "inputs": [
        {
          "internalType": "uint256",
          "name": "",
          "type": "uint256"
        }
      ],
      "name": "items",
      "outputs": [
        {
          "internalType": "uint256",
          "name": "itemId",
          "type": "uint256"
        },
        {
          "internalType": "contract IERC721",
          "name": "nft",
          "type": "address"
        },
        {
          "internalType": "uint256",
          "name": "tokenId",
          "type": "uint256"
        },
        {
          "internalType": "uint256",
          "name": "price",
          "type": "uint256"
        },
        {
          "internalType": "address payable",
          "name": "seller",
          "type": "address"
        },
        {
          "internalType": "address payable",
          "name": "owner",
          "type": "address"
        },
        {
          "internalType": "bool",
          "name": "forSale",
          "type": "bool"
        }
      ],
      "stateMutability": "view",
      "type": "function"
    },
    {
      "inputs": [
        {
          "internalType": "contract IERC721",
          "name": "_nft",
          "type": "address"
        },
        {
          "internalType": "uint256",
          "name": "_tokenId",
          "type": "uint256"
        },
        {
          "internalType": "uint256",
          "name": "_price",
          "type": "uint256"
        }
      ],
      "name": "makeItem",
      "outputs": [],
      "stateMutability": "nonpayable",
      "type": "function"
    },
    {
      "inputs": [
        {
          "internalType": "uint256",
          "name": "_itemId",
          "type": "uint256"
        }
      ],
      "name": "purchaseItem",
      "outputs": [
        {
          "internalType": "address",
          "name": "",
          "type": "address"
        }
      ],
      "stateMutability": "payable",
      "type": "function"
    },
    {
      "inputs": [
        {
          "internalType": "uint256",
          "name": "_itemId",
          "type": "uint256"
        }
      ],
      "name": "removeFromSale",
      "outputs": [],
      "stateMutability": "nonpayable",
      "type": "function"
    },
    {
      "inputs": [
        {
          "internalType": "uint256",
          "name": "_itemId",
          "type": "uint256"
        },
        {
          "internalType": "uint256",
          "name": "_price",
          "type": "uint256"
        }
      ],
      "name": "setPrice",
      "outputs": [],
      "stateMutability": "nonpayable",
      "type": "function"
    }
  ],
  "bytecode": "0x60c06040523480156200001157600080fd5b50604051620016e1380380620016e183398181016040528101906200003791906200009c565b60016000819055503373ffffffffffffffffffffffffffffffffffffffff1660808173ffffffffffffffffffffffffffffffffffffffff1660601b815250508060a0818152505050620000ec565b6000815190506200009681620000d2565b92915050565b600060208284031215620000af57600080fd5b6000620000bf8482850162000085565b91505092915050565b6000819050919050565b620000dd81620000c8565b8114620000e957600080fd5b50565b60805160601c60a0516115be620001236000396000818161039a01526104d001526000818161033001526106a601526115be6000f3fe60806040526004361061009c5760003560e01c80638f5715b5116100645780638f5715b514610188578063bfb231d2146101b1578063ca7dd375146101f4578063d38ea5bf14610231578063f7d9757714610261578063fa00afc71461028a5761009c565b80631361a3b6146100a157806365e17c9d146100ca57806366b4d7ec146100f55780636bfb0d01146101325780637fd6f15c1461015d575b600080fd5b3480156100ad57600080fd5b506100c860048036038101906100c39190610ef6565b6102b3565b005b3480156100d657600080fd5b506100df61032e565b6040516100ec9190611089565b60405180910390f35b34801561010157600080fd5b5061011c60048036038101906101179190610ef6565b610352565b604051610129919061106e565b60405180910390f35b34801561013e57600080fd5b50610147610392565b604051610154919061115b565b60405180910390f35b34801561016957600080fd5b50610172610398565b60405161017f919061115b565b60405180910390f35b34801561019457600080fd5b506101af60048036038101906101aa9190610f1f565b6103bc565b005b3480156101bd57600080fd5b506101d860048036038101906101d39190610ef6565b61041b565b6040516101eb9796959493929190611176565b60405180910390f35b34801561020057600080fd5b5061021b60048036038101906102169190610ef6565b6104ca565b604051610228919061115b565b60405180910390f35b61024b60048036038101906102469190610ef6565b61052d565b604051610258919061106e565b60405180910390f35b34801561026d57600080fd5b5061028860048036038101906102839190610f5b565b6108f3565b005b34801561029657600080fd5b506102b160048036038101906102ac9190610ea7565b610978565b005b600060026000838152602001908152602001600020905060008160050160146101000a81548160ff021916908315150217905550338160050160006101000a81548173ffffffffffffffffffffffffffffffffffffffff021916908373ffffffffffffffffffffffffffffffffffffffff1602179055505050565b7f000000000000000000000000000000000000000000000000000000000000000081565b60006002600083815260200190815260200160002060040160009054906101000a900473ffffffffffffffffffffffffffffffffffffffff169050919050565b60015481565b7f000000000000000000000000000000000000000000000000000000000000000081565b6000600260008481526020019081526020016000209050818160040160006101000a81548173ffffffffffffffffffffffffffffffffffffffff021916908373ffffffffffffffffffffffffffffffffffffffff160217905550505050565b60026020528060005260406000206000915090508060000154908060010160009054906101000a900473ffffffffffffffffffffffffffffffffffffffff16908060020154908060030154908060040160009054906101000a900473ffffffffffffffffffffffffffffffffffffffff16908060050160009054906101000a900473ffffffffffffffffffffffffffffffffffffffff16908060050160149054906101000a900460ff16905087565b600060647f000000000000000000000000000000000000000000000000000000000000000060646104fb919061122d565b600260008581526020019081526020016000206003015461051c91906112b4565b6105269190611283565b9050919050565b600060026000541415610575576040517f08c379a000000000000000000000000000000000000000000000000000000000815260040161056c9061113b565b60405180910390fd5b60026000819055506000610588836104ca565b905060006002600085815260200190815260200160002090506000841180156105b357506001548411155b6105f2576040517f08c379a00000000000000000000000000000000000000000000000000000000081526004016105e99061111b565b60405180910390fd5b81341015610635576040517f08c379a000000000000000000000000000000000000000000000000000000000815260040161062c906110db565b60405180910390fd5b8060040160009054906101000a900473ffffffffffffffffffffffffffffffffffffffff1673ffffffffffffffffffffffffffffffffffffffff166108fc82600301549081150290604051600060405180830381858888f193505050501580156106a3573d6000803e3d6000fd5b507f000000000000000000000000000000000000000000000000000000000000000073ffffffffffffffffffffffffffffffffffffffff166108fc8260030154846106ee919061130e565b9081150290604051600060405180830381858888f19350505050158015610719573d6000803e3d6000fd5b5060008160050160146101000a81548160ff0219169083151502179055508060010160009054906101000a900473ffffffffffffffffffffffffffffffffffffffff1673ffffffffffffffffffffffffffffffffffffffff166323b872dd303384600201546040518463ffffffff1660e01b815260040161079c939291906110a4565b600060405180830381600087803b1580156107b657600080fd5b505af11580156107ca573d6000803e3d6000fd5b505050503373ffffffffffffffffffffffffffffffffffffffff168160040160009054906101000a900473ffffffffffffffffffffffffffffffffffffffff1673ffffffffffffffffffffffffffffffffffffffff168260010160009054906101000a900473ffffffffffffffffffffffffffffffffffffffff1673ffffffffffffffffffffffffffffffffffffffff167f8b4c9c8a607d67b321582dd8461041b1dc2ceeca70c8b7f37f8e02095cf2e76d8785600201548660030154604051610896939291906111e5565b60405180910390a4338160050160006101000a81548173ffffffffffffffffffffffffffffffffffffffff021916908373ffffffffffffffffffffffffffffffffffffffff16021790555033925050506001600081905550919050565b6000600260008481526020019081526020016000209050818160030181905550338160050160006101000a81548173ffffffffffffffffffffffffffffffffffffffff021916908373ffffffffffffffffffffffffffffffffffffffff16021790555060018160050160146101000a81548160ff021916908315150217905550505050565b600260005414156109be576040517f08c379a00000000000000000000000000000000000000000000000000000000081526004016109b59061113b565b60405180910390fd5b60026000819055506000811015610a0a576040517f08c379a0000000000000000000000000000000000000000000000000000000008152600401610a01906110fb565b60405180910390fd5b60016000815480929190610a1d906113d2565b91905055506000811415610bd1576040518060e0016040528060015481526020018473ffffffffffffffffffffffffffffffffffffffff1681526020018381526020018281526020013373ffffffffffffffffffffffffffffffffffffffff1681526020013373ffffffffffffffffffffffffffffffffffffffff168152602001600015158152506002600060015481526020019081526020016000206000820151816000015560208201518160010160006101000a81548173ffffffffffffffffffffffffffffffffffffffff021916908373ffffffffffffffffffffffffffffffffffffffff160217905550604082015181600201556060820151816003015560808201518160040160006101000a81548173ffffffffffffffffffffffffffffffffffffffff021916908373ffffffffffffffffffffffffffffffffffffffff16021790555060a08201518160050160006101000a81548173ffffffffffffffffffffffffffffffffffffffff021916908373ffffffffffffffffffffffffffffffffffffffff16021790555060c08201518160050160146101000a81548160ff0219169083151502179055509050505b6000811115610e5b578273ffffffffffffffffffffffffffffffffffffffff166323b872dd3330856040518463ffffffff1660e01b8152600401610c17939291906110a4565b600060405180830381600087803b158015610c3157600080fd5b505af1158015610c45573d6000803e3d6000fd5b505050506040518060e0016040528060015481526020018473ffffffffffffffffffffffffffffffffffffffff1681526020018381526020018281526020013373ffffffffffffffffffffffffffffffffffffffff168152602001600073ffffffffffffffffffffffffffffffffffffffff168152602001600115158152506002600060015481526020019081526020016000206000820151816000015560208201518160010160006101000a81548173ffffffffffffffffffffffffffffffffffffffff021916908373ffffffffffffffffffffffffffffffffffffffff160217905550604082015181600201556060820151816003015560808201518160040160006101000a81548173ffffffffffffffffffffffffffffffffffffffff021916908373ffffffffffffffffffffffffffffffffffffffff16021790555060a08201518160050160006101000a81548173ffffffffffffffffffffffffffffffffffffffff021916908373ffffffffffffffffffffffffffffffffffffffff16021790555060c08201518160050160146101000a81548160ff0219169083151502179055509050503373ffffffffffffffffffffffffffffffffffffffff168373ffffffffffffffffffffffffffffffffffffffff167f655a0cf9c8db81512be9a76dc1c5ae5380b8816ce6ad659cd61b715e2999d59a6001548585604051610e52939291906111e5565b60405180910390a35b6001600081905550505050565b600081359050610e7781611543565b92915050565b600081359050610e8c8161155a565b92915050565b600081359050610ea181611571565b92915050565b600080600060608486031215610ebc57600080fd5b6000610eca86828701610e7d565b9350506020610edb86828701610e92565b9250506040610eec86828701610e92565b9150509250925092565b600060208284031215610f0857600080fd5b6000610f1684828501610e92565b91505092915050565b60008060408385031215610f3257600080fd5b6000610f4085828601610e92565b9250506020610f5185828601610e68565b9150509250929050565b60008060408385031215610f6e57600080fd5b6000610f7c85828601610e92565b9250506020610f8d85828601610e92565b9150509250929050565b610fa081611354565b82525050565b610faf81611342565b82525050565b610fbe81611366565b82525050565b610fcd816113ae565b82525050565b6000610fe060338361121c565b9150610feb82611479565b604082019050919050565b600061100360178361121c565b915061100e826114c8565b602082019050919050565b600061102660128361121c565b9150611031826114f1565b602082019050919050565b6000611049601f8361121c565b91506110548261151a565b602082019050919050565b611068816113a4565b82525050565b60006020820190506110836000830184610fa6565b92915050565b600060208201905061109e6000830184610f97565b92915050565b60006060820190506110b96000830186610fa6565b6110c66020830185610fa6565b6110d3604083018461105f565b949350505050565b600060208201905081810360008301526110f481610fd3565b9050919050565b6000602082019050818103600083015261111481610ff6565b9050919050565b6000602082019050818103600083015261113481611019565b9050919050565b600060208201905081810360008301526111548161103c565b9050919050565b6000602082019050611170600083018461105f565b92915050565b600060e08201905061118b600083018a61105f565b6111986020830189610fc4565b6111a5604083018861105f565b6111b2606083018761105f565b6111bf6080830186610f97565b6111cc60a0830185610f97565b6111d960c0830184610fb5565b98975050505050505050565b60006060820190506111fa600083018661105f565b611207602083018561105f565b611214604083018461105f565b949350505050565b600082825260208201905092915050565b6000611238826113a4565b9150611243836113a4565b9250827fffffffffffffffffffffffffffffffffffffffffffffffffffffffffffffffff038211156112785761127761141b565b5b828201905092915050565b600061128e826113a4565b9150611299836113a4565b9250826112a9576112a861144a565b5b828204905092915050565b60006112bf826113a4565b91506112ca836113a4565b9250817fffffffffffffffffffffffffffffffffffffffffffffffffffffffffffffffff04831182151516156113035761130261141b565b5b828202905092915050565b6000611319826113a4565b9150611324836113a4565b9250828210156113375761133661141b565b5b828203905092915050565b600061134d82611384565b9050919050565b600061135f82611384565b9050919050565b60008115159050919050565b600061137d82611342565b9050919050565b600073ffffffffffffffffffffffffffffffffffffffff82169050919050565b6000819050919050565b60006113b9826113c0565b9050919050565b60006113cb82611384565b9050919050565b60006113dd826113a4565b91507fffffffffffffffffffffffffffffffffffffffffffffffffffffffffffffffff8214156114105761140f61141b565b5b600182019050919050565b7f4e487b7100000000000000000000000000000000000000000000000000000000600052601160045260246000fd5b7f4e487b7100000000000000000000000000000000000000000000000000000000600052601260045260246000fd5b7f6e6f7420656e6f75676820657468657220746f20636f766572206974656d207060008201527f7269636520616e64206d61726b65742066656500000000000000000000000000602082015250565b7f50726963652063616e2774206265206e65676174697665000000000000000000600082015250565b7f6974656d20646f65736e27742065786973740000000000000000000000000000600082015250565b7f5265656e7472616e637947756172643a207265656e7472616e742063616c6c00600082015250565b61154c81611354565b811461155757600080fd5b50565b61156381611372565b811461156e57600080fd5b50565b61157a816113a4565b811461158557600080fd5b5056fea26469706673582212200ceb3bda5b511790eab5b3b362a6647d654f9d18a0bf5b29ebe97a4bd99bfff864736f6c63430008040033",
  "linkReferences": {},
  "deployedLinkReferences": {}
}