{
  "_format": "hh-sol-artifact-1",
  "contractName": "Marketplace",
  "sourceName": "src/backend/contracts/Marketplace.sol",
  "abi": [
    {
      "inputs": [
        {
          "internalType": "uint256",
          "name": "_feePercent",
          "type": "uint256"
        }
      ],
      "stateMutability": "nonpayable",
      "type": "constructor"
    },
    {
      "anonymous": false,
      "inputs": [
        {
          "indexed": false,
          "internalType": "uint256",
          "name": "itemId",
          "type": "uint256"
        },
        {
          "indexed": true,
          "internalType": "address",
          "name": "nft",
          "type": "address"
        },
        {
          "indexed": false,
          "internalType": "uint256",
          "name": "tokenId",
          "type": "uint256"
        },
        {
          "indexed": false,
          "internalType": "uint256",
          "name": "price",
          "type": "uint256"
        },
        {
          "indexed": true,
          "internalType": "address",
          "name": "seller",
          "type": "address"
        },
        {
          "indexed": true,
          "internalType": "address",
          "name": "buyer",
          "type": "address"
        }
      ],
      "name": "Bought",
      "type": "event"
    },
    {
      "anonymous": false,
      "inputs": [
        {
          "indexed": false,
          "internalType": "uint256",
          "name": "itemId",
          "type": "uint256"
        },
        {
          "indexed": true,
          "internalType": "address",
          "name": "nft",
          "type": "address"
        },
        {
          "indexed": false,
          "internalType": "uint256",
          "name": "tokenId",
          "type": "uint256"
        },
        {
          "indexed": false,
          "internalType": "uint256",
          "name": "price",
          "type": "uint256"
        },
        {
          "indexed": true,
          "internalType": "address",
          "name": "seller",
          "type": "address"
        }
      ],
      "name": "Offered",
      "type": "event"
    },
    {
      "inputs": [
        {
          "internalType": "uint256",
          "name": "_itemId",
          "type": "uint256"
        },
        {
          "internalType": "address payable",
          "name": "_seller",
          "type": "address"
        }
      ],
      "name": "changeNFTHolder",
      "outputs": [],
      "stateMutability": "nonpayable",
      "type": "function"
    },
    {
      "inputs": [],
      "name": "feeAccount",
      "outputs": [
        {
          "internalType": "address payable",
          "name": "",
          "type": "address"
        }
      ],
      "stateMutability": "view",
      "type": "function"
    },
    {
      "inputs": [],
      "name": "feePercent",
      "outputs": [
        {
          "internalType": "uint256",
          "name": "",
          "type": "uint256"
        }
      ],
      "stateMutability": "view",
      "type": "function"
    },
    {
      "inputs": [
        {
          "internalType": "uint256",
          "name": "_itemId",
          "type": "uint256"
        }
      ],
      "name": "getNFTSeller",
      "outputs": [
        {
          "internalType": "address",
          "name": "",
          "type": "address"
        }
      ],
      "stateMutability": "view",
      "type": "function"
    },
    {
      "inputs": [
        {
          "internalType": "uint256",
          "name": "_itemId",
          "type": "uint256"
        }
      ],
      "name": "getTotalPrice",
      "outputs": [
        {
          "internalType": "uint256",
          "name": "",
          "type": "uint256"
        }
      ],
      "stateMutability": "view",
      "type": "function"
    },
    {
      "inputs": [],
      "name": "itemCount",
      "outputs": [
        {
          "internalType": "uint256",
          "name": "",
          "type": "uint256"
        }
      ],
      "stateMutability": "view",
      "type": "function"
    },
    {
      "inputs": [
        {
          "internalType": "uint256",
          "name": "",
          "type": "uint256"
        }
      ],
      "name": "items",
      "outputs": [
        {
          "internalType": "uint256",
          "name": "itemId",
          "type": "uint256"
        },
        {
          "internalType": "contract IERC721",
          "name": "nft",
          "type": "address"
        },
        {
          "internalType": "uint256",
          "name": "tokenId",
          "type": "uint256"
        },
        {
          "internalType": "uint256",
          "name": "price",
          "type": "uint256"
        },
        {
          "internalType": "address payable",
          "name": "seller",
          "type": "address"
        },
        {
          "internalType": "address payable",
          "name": "owner",
          "type": "address"
        },
        {
          "internalType": "bool",
          "name": "forSale",
          "type": "bool"
        }
      ],
      "stateMutability": "view",
      "type": "function"
    },
    {
      "inputs": [
        {
          "internalType": "contract IERC721",
          "name": "_nft",
          "type": "address"
        },
        {
          "internalType": "uint256",
          "name": "_tokenId",
          "type": "uint256"
        },
        {
          "internalType": "uint256",
          "name": "_price",
          "type": "uint256"
        }
      ],
      "name": "makeItem",
      "outputs": [],
      "stateMutability": "nonpayable",
      "type": "function"
    },
    {
      "inputs": [
        {
          "internalType": "uint256",
          "name": "_itemId",
          "type": "uint256"
        }
      ],
      "name": "purchaseItem",
      "outputs": [
        {
          "internalType": "address",
          "name": "",
          "type": "address"
        }
      ],
      "stateMutability": "payable",
      "type": "function"
    },
    {
      "inputs": [
        {
          "internalType": "uint256",
          "name": "_itemId",
          "type": "uint256"
        },
        {
          "internalType": "bool",
          "name": "_forSale",
          "type": "bool"
        }
      ],
      "name": "setForSale",
      "outputs": [],
      "stateMutability": "nonpayable",
      "type": "function"
    },
    {
      "inputs": [
        {
          "internalType": "uint256",
          "name": "_itemId",
          "type": "uint256"
        },
        {
          "internalType": "uint256",
          "name": "_price",
          "type": "uint256"
        }
      ],
      "name": "setPrice",
      "outputs": [],
      "stateMutability": "nonpayable",
      "type": "function"
    }
  ],
  "bytecode": "0x60c06040523480156200001157600080fd5b50604051620016a6380380620016a683398181016040528101906200003791906200009c565b60016000819055503373ffffffffffffffffffffffffffffffffffffffff1660808173ffffffffffffffffffffffffffffffffffffffff1660601b815250508060a0818152505050620000ec565b6000815190506200009681620000d2565b92915050565b600060208284031215620000af57600080fd5b6000620000bf8482850162000085565b91505092915050565b6000819050919050565b620000dd81620000c8565b8114620000e957600080fd5b50565b60805160601c60a051611583620001236000396000818161031f01526104550152600081816102b5015261062b01526115836000f3fe60806040526004361061009c5760003560e01c8063bfb231d211610064578063bfb231d214610188578063ca7dd375146101cb578063d38ea5bf14610208578063f0a6c16b14610238578063f7d9757714610261578063fa00afc71461028a5761009c565b806365e17c9d146100a157806366b4d7ec146100cc5780636bfb0d01146101095780637fd6f15c146101345780638f5715b51461015f575b600080fd5b3480156100ad57600080fd5b506100b66102b3565b6040516100c39190611037565b60405180910390f35b3480156100d857600080fd5b506100f360048036038101906100ee9190610e68565b6102d7565b604051610100919061101c565b60405180910390f35b34801561011557600080fd5b5061011e610317565b60405161012b9190611109565b60405180910390f35b34801561014057600080fd5b5061014961031d565b6040516101569190611109565b60405180910390f35b34801561016b57600080fd5b5061018660048036038101906101819190610e91565b610341565b005b34801561019457600080fd5b506101af60048036038101906101aa9190610e68565b6103a0565b6040516101c29796959493929190611124565b60405180910390f35b3480156101d757600080fd5b506101f260048036038101906101ed9190610e68565b61044f565b6040516101ff9190611109565b60405180910390f35b610222600480360381019061021d9190610e68565b6104b2565b60405161022f919061101c565b60405180910390f35b34801561024457600080fd5b5061025f600480360381019061025a9190610ecd565b610878565b005b34801561026d57600080fd5b5061028860048036038101906102839190610f09565b6108b0565b005b34801561029657600080fd5b506102b160048036038101906102ac9190610e19565b6108d5565b005b7f000000000000000000000000000000000000000000000000000000000000000081565b60006002600083815260200190815260200160002060040160009054906101000a900473ffffffffffffffffffffffffffffffffffffffff169050919050565b60015481565b7f000000000000000000000000000000000000000000000000000000000000000081565b6000600260008481526020019081526020016000209050818160040160006101000a81548173ffffffffffffffffffffffffffffffffffffffff021916908373ffffffffffffffffffffffffffffffffffffffff160217905550505050565b60026020528060005260406000206000915090508060000154908060010160009054906101000a900473ffffffffffffffffffffffffffffffffffffffff16908060020154908060030154908060040160009054906101000a900473ffffffffffffffffffffffffffffffffffffffff16908060050160009054906101000a900473ffffffffffffffffffffffffffffffffffffffff16908060050160149054906101000a900460ff16905087565b600060647f0000000000000000000000000000000000000000000000000000000000000000606461048091906111db565b60026000858152602001908152602001600020600301546104a19190611262565b6104ab9190611231565b9050919050565b6000600260005414156104fa576040517f08c379a00000000000000000000000000000000000000000000000000000000081526004016104f1906110e9565b60405180910390fd5b6002600081905550600061050d8361044f565b9050600060026000858152602001908152602001600020905060008411801561053857506001548411155b610577576040517f08c379a000000000000000000000000000000000000000000000000000000000815260040161056e906110c9565b60405180910390fd5b813410156105ba576040517f08c379a00000000000000000000000000000000000000000000000000000000081526004016105b190611089565b60405180910390fd5b8060040160009054906101000a900473ffffffffffffffffffffffffffffffffffffffff1673ffffffffffffffffffffffffffffffffffffffff166108fc82600301549081150290604051600060405180830381858888f19350505050158015610628573d6000803e3d6000fd5b507f000000000000000000000000000000000000000000000000000000000000000073ffffffffffffffffffffffffffffffffffffffff166108fc82600301548461067391906112bc565b9081150290604051600060405180830381858888f1935050505015801561069e573d6000803e3d6000fd5b5060008160050160146101000a81548160ff0219169083151502179055508060010160009054906101000a900473ffffffffffffffffffffffffffffffffffffffff1673ffffffffffffffffffffffffffffffffffffffff166323b872dd303384600201546040518463ffffffff1660e01b815260040161072193929190611052565b600060405180830381600087803b15801561073b57600080fd5b505af115801561074f573d6000803e3d6000fd5b505050503373ffffffffffffffffffffffffffffffffffffffff168160040160009054906101000a900473ffffffffffffffffffffffffffffffffffffffff1673ffffffffffffffffffffffffffffffffffffffff168260010160009054906101000a900473ffffffffffffffffffffffffffffffffffffffff1673ffffffffffffffffffffffffffffffffffffffff167f8b4c9c8a607d67b321582dd8461041b1dc2ceeca70c8b7f37f8e02095cf2e76d878560020154866003015460405161081b93929190611193565b60405180910390a4338160050160006101000a81548173ffffffffffffffffffffffffffffffffffffffff021916908373ffffffffffffffffffffffffffffffffffffffff16021790555033925050506001600081905550919050565b6000600260008481526020019081526020016000209050818160050160146101000a81548160ff021916908315150217905550505050565b6000600260008481526020019081526020016000209050818160030181905550505050565b6002600054141561091b576040517f08c379a0000000000000000000000000000000000000000000000000000000008152600401610912906110e9565b60405180910390fd5b60026000819055506000811015610967576040517f08c379a000000000000000000000000000000000000000000000000000000000815260040161095e906110a9565b60405180910390fd5b6001600081548092919061097a90611380565b91905055506000811415610b2e576040518060e0016040528060015481526020018473ffffffffffffffffffffffffffffffffffffffff1681526020018381526020018281526020013373ffffffffffffffffffffffffffffffffffffffff1681526020013373ffffffffffffffffffffffffffffffffffffffff168152602001600015158152506002600060015481526020019081526020016000206000820151816000015560208201518160010160006101000a81548173ffffffffffffffffffffffffffffffffffffffff021916908373ffffffffffffffffffffffffffffffffffffffff160217905550604082015181600201556060820151816003015560808201518160040160006101000a81548173ffffffffffffffffffffffffffffffffffffffff021916908373ffffffffffffffffffffffffffffffffffffffff16021790555060a08201518160050160006101000a81548173ffffffffffffffffffffffffffffffffffffffff021916908373ffffffffffffffffffffffffffffffffffffffff16021790555060c08201518160050160146101000a81548160ff0219169083151502179055509050505b6000811115610db8578273ffffffffffffffffffffffffffffffffffffffff166323b872dd3330856040518463ffffffff1660e01b8152600401610b7493929190611052565b600060405180830381600087803b158015610b8e57600080fd5b505af1158015610ba2573d6000803e3d6000fd5b505050506040518060e0016040528060015481526020018473ffffffffffffffffffffffffffffffffffffffff1681526020018381526020018281526020013373ffffffffffffffffffffffffffffffffffffffff168152602001600073ffffffffffffffffffffffffffffffffffffffff168152602001600115158152506002600060015481526020019081526020016000206000820151816000015560208201518160010160006101000a81548173ffffffffffffffffffffffffffffffffffffffff021916908373ffffffffffffffffffffffffffffffffffffffff160217905550604082015181600201556060820151816003015560808201518160040160006101000a81548173ffffffffffffffffffffffffffffffffffffffff021916908373ffffffffffffffffffffffffffffffffffffffff16021790555060a08201518160050160006101000a81548173ffffffffffffffffffffffffffffffffffffffff021916908373ffffffffffffffffffffffffffffffffffffffff16021790555060c08201518160050160146101000a81548160ff0219169083151502179055509050503373ffffffffffffffffffffffffffffffffffffffff168373ffffffffffffffffffffffffffffffffffffffff167f655a0cf9c8db81512be9a76dc1c5ae5380b8816ce6ad659cd61b715e2999d59a6001548585604051610daf93929190611193565b60405180910390a35b6001600081905550505050565b600081359050610dd4816114f1565b92915050565b600081359050610de981611508565b92915050565b600081359050610dfe8161151f565b92915050565b600081359050610e1381611536565b92915050565b600080600060608486031215610e2e57600080fd5b6000610e3c86828701610def565b9350506020610e4d86828701610e04565b9250506040610e5e86828701610e04565b9150509250925092565b600060208284031215610e7a57600080fd5b6000610e8884828501610e04565b91505092915050565b60008060408385031215610ea457600080fd5b6000610eb285828601610e04565b9250506020610ec385828601610dc5565b9150509250929050565b60008060408385031215610ee057600080fd5b6000610eee85828601610e04565b9250506020610eff85828601610dda565b9150509250929050565b60008060408385031215610f1c57600080fd5b6000610f2a85828601610e04565b9250506020610f3b85828601610e04565b9150509250929050565b610f4e81611302565b82525050565b610f5d816112f0565b82525050565b610f6c81611314565b82525050565b610f7b8161135c565b82525050565b6000610f8e6033836111ca565b9150610f9982611427565b604082019050919050565b6000610fb16017836111ca565b9150610fbc82611476565b602082019050919050565b6000610fd46012836111ca565b9150610fdf8261149f565b602082019050919050565b6000610ff7601f836111ca565b9150611002826114c8565b602082019050919050565b61101681611352565b82525050565b60006020820190506110316000830184610f54565b92915050565b600060208201905061104c6000830184610f45565b92915050565b60006060820190506110676000830186610f54565b6110746020830185610f54565b611081604083018461100d565b949350505050565b600060208201905081810360008301526110a281610f81565b9050919050565b600060208201905081810360008301526110c281610fa4565b9050919050565b600060208201905081810360008301526110e281610fc7565b9050919050565b6000602082019050818103600083015261110281610fea565b9050919050565b600060208201905061111e600083018461100d565b92915050565b600060e082019050611139600083018a61100d565b6111466020830189610f72565b611153604083018861100d565b611160606083018761100d565b61116d6080830186610f45565b61117a60a0830185610f45565b61118760c0830184610f63565b98975050505050505050565b60006060820190506111a8600083018661100d565b6111b5602083018561100d565b6111c2604083018461100d565b949350505050565b600082825260208201905092915050565b60006111e682611352565b91506111f183611352565b9250827fffffffffffffffffffffffffffffffffffffffffffffffffffffffffffffffff03821115611226576112256113c9565b5b828201905092915050565b600061123c82611352565b915061124783611352565b925082611257576112566113f8565b5b828204905092915050565b600061126d82611352565b915061127883611352565b9250817fffffffffffffffffffffffffffffffffffffffffffffffffffffffffffffffff04831182151516156112b1576112b06113c9565b5b828202905092915050565b60006112c782611352565b91506112d283611352565b9250828210156112e5576112e46113c9565b5b828203905092915050565b60006112fb82611332565b9050919050565b600061130d82611332565b9050919050565b60008115159050919050565b600061132b826112f0565b9050919050565b600073ffffffffffffffffffffffffffffffffffffffff82169050919050565b6000819050919050565b60006113678261136e565b9050919050565b600061137982611332565b9050919050565b600061138b82611352565b91507fffffffffffffffffffffffffffffffffffffffffffffffffffffffffffffffff8214156113be576113bd6113c9565b5b600182019050919050565b7f4e487b7100000000000000000000000000000000000000000000000000000000600052601160045260246000fd5b7f4e487b7100000000000000000000000000000000000000000000000000000000600052601260045260246000fd5b7f6e6f7420656e6f75676820657468657220746f20636f766572206974656d207060008201527f7269636520616e64206d61726b65742066656500000000000000000000000000602082015250565b7f50726963652063616e2774206265206e65676174697665000000000000000000600082015250565b7f6974656d20646f65736e27742065786973740000000000000000000000000000600082015250565b7f5265656e7472616e637947756172643a207265656e7472616e742063616c6c00600082015250565b6114fa81611302565b811461150557600080fd5b50565b61151181611314565b811461151c57600080fd5b50565b61152881611320565b811461153357600080fd5b50565b61153f81611352565b811461154a57600080fd5b5056fea2646970667358221220fd0513e66bb4ce614ae8b617d84cb39b1c306fff44b56513f56339a2011c0efe64736f6c63430008040033",
  "linkReferences": {},
  "deployedLinkReferences": {}
}