{
  "_format": "hh-sol-artifact-1",
  "contractName": "PIRATE",
  "sourceName": "src/backend/contracts/PIRATE.sol",
  "abi": [
    {
      "inputs": [],
      "stateMutability": "nonpayable",
      "type": "constructor"
    },
    {
      "anonymous": false,
      "inputs": [
        {
          "indexed": true,
          "internalType": "address",
          "name": "owner",
          "type": "address"
        },
        {
          "indexed": true,
          "internalType": "address",
          "name": "spender",
          "type": "address"
        },
        {
          "indexed": false,
          "internalType": "uint256",
          "name": "value",
          "type": "uint256"
        }
      ],
      "name": "Approval",
      "type": "event"
    },
    {
      "anonymous": false,
      "inputs": [
        {
          "indexed": true,
          "internalType": "address",
          "name": "from",
          "type": "address"
        },
        {
          "indexed": true,
          "internalType": "address",
          "name": "to",
          "type": "address"
        },
        {
          "indexed": false,
          "internalType": "uint256",
          "name": "value",
          "type": "uint256"
        }
      ],
      "name": "Transfer",
      "type": "event"
    },
    {
      "inputs": [
        {
          "internalType": "address",
          "name": "owner",
          "type": "address"
        },
        {
          "internalType": "address",
          "name": "spender",
          "type": "address"
        }
      ],
      "name": "allowance",
      "outputs": [
        {
          "internalType": "uint256",
          "name": "",
          "type": "uint256"
        }
      ],
      "stateMutability": "view",
      "type": "function"
    },
    {
      "inputs": [
        {
          "internalType": "address",
          "name": "spender",
          "type": "address"
        },
        {
          "internalType": "uint256",
          "name": "amount",
          "type": "uint256"
        }
      ],
      "name": "approve",
      "outputs": [
        {
          "internalType": "bool",
          "name": "",
          "type": "bool"
        }
      ],
      "stateMutability": "nonpayable",
      "type": "function"
    },
    {
      "inputs": [
        {
          "internalType": "address",
          "name": "account",
          "type": "address"
        }
      ],
      "name": "balanceOf",
      "outputs": [
        {
          "internalType": "uint256",
          "name": "",
          "type": "uint256"
        }
      ],
      "stateMutability": "view",
      "type": "function"
    },
    {
      "inputs": [],
      "name": "buyCoin",
      "outputs": [],
      "stateMutability": "payable",
      "type": "function"
    },
    {
      "inputs": [],
      "name": "decimals",
      "outputs": [
        {
          "internalType": "uint8",
          "name": "",
          "type": "uint8"
        }
      ],
      "stateMutability": "view",
      "type": "function"
    },
    {
      "inputs": [
        {
          "internalType": "address",
          "name": "spender",
          "type": "address"
        },
        {
          "internalType": "uint256",
          "name": "subtractedValue",
          "type": "uint256"
        }
      ],
      "name": "decreaseAllowance",
      "outputs": [
        {
          "internalType": "bool",
          "name": "",
          "type": "bool"
        }
      ],
      "stateMutability": "nonpayable",
      "type": "function"
    },
    {
      "inputs": [
        {
          "internalType": "address",
          "name": "spender",
          "type": "address"
        },
        {
          "internalType": "uint256",
          "name": "addedValue",
          "type": "uint256"
        }
      ],
      "name": "increaseAllowance",
      "outputs": [
        {
          "internalType": "bool",
          "name": "",
          "type": "bool"
        }
      ],
      "stateMutability": "nonpayable",
      "type": "function"
    },
    {
      "inputs": [],
      "name": "name",
      "outputs": [
        {
          "internalType": "string",
          "name": "",
          "type": "string"
        }
      ],
      "stateMutability": "view",
      "type": "function"
    },
    {
      "inputs": [],
      "name": "symbol",
      "outputs": [
        {
          "internalType": "string",
          "name": "",
          "type": "string"
        }
      ],
      "stateMutability": "view",
      "type": "function"
    },
    {
      "inputs": [],
      "name": "totalSupply",
      "outputs": [
        {
          "internalType": "uint256",
          "name": "",
          "type": "uint256"
        }
      ],
      "stateMutability": "view",
      "type": "function"
    },
    {
      "inputs": [
        {
          "internalType": "address",
          "name": "to",
          "type": "address"
        },
        {
          "internalType": "uint256",
          "name": "amount",
          "type": "uint256"
        }
      ],
      "name": "transfer",
      "outputs": [
        {
          "internalType": "bool",
          "name": "",
          "type": "bool"
        }
      ],
      "stateMutability": "nonpayable",
      "type": "function"
    },
    {
      "inputs": [
        {
          "internalType": "address",
          "name": "from",
          "type": "address"
        },
        {
          "internalType": "address",
          "name": "to",
          "type": "address"
        },
        {
          "internalType": "uint256",
          "name": "amount",
          "type": "uint256"
        }
      ],
      "name": "transferFrom",
      "outputs": [
        {
          "internalType": "bool",
          "name": "",
          "type": "bool"
        }
      ],
      "stateMutability": "nonpayable",
      "type": "function"
    }
  ],
  "bytecode": "0x60806040523480156200001157600080fd5b506040518060400160405280600c81526020017f54686542697450697261746500000000000000000000000000000000000000008152506040518060400160405280600681526020017f504952415445000000000000000000000000000000000000000000000000000081525081600390805190602001906200009692919062000283565b508060049080519060200190620000af92919062000283565b505050620000f133620000c7620000f760201b60201c565b600a620000d5919062000473565b620186a0620000e59190620005b0565b6200010060201b60201c565b620006f2565b60006012905090565b600073ffffffffffffffffffffffffffffffffffffffff168273ffffffffffffffffffffffffffffffffffffffff16141562000173576040517f08c379a00000000000000000000000000000000000000000000000000000000081526004016200016a906200036b565b60405180910390fd5b62000187600083836200027960201b60201c565b80600260008282546200019b9190620003bb565b92505081905550806000808473ffffffffffffffffffffffffffffffffffffffff1673ffffffffffffffffffffffffffffffffffffffff1681526020019081526020016000206000828254620001f29190620003bb565b925050819055508173ffffffffffffffffffffffffffffffffffffffff16600073ffffffffffffffffffffffffffffffffffffffff167fddf252ad1be2c89b69c2b068fc378daa952ba7f163c4a11628f55a4df523b3ef836040516200025991906200038d565b60405180910390a362000275600083836200027e60201b60201c565b5050565b505050565b505050565b828054620002919062000628565b90600052602060002090601f016020900481019282620002b5576000855562000301565b82601f10620002d057805160ff191683800117855562000301565b8280016001018555821562000301579182015b8281111562000300578251825591602001919060010190620002e3565b5b50905062000310919062000314565b5090565b5b808211156200032f57600081600090555060010162000315565b5090565b600062000342601f83620003aa565b91506200034f82620006c9565b602082019050919050565b620003658162000611565b82525050565b60006020820190508181036000830152620003868162000333565b9050919050565b6000602082019050620003a460008301846200035a565b92915050565b600082825260208201905092915050565b6000620003c88262000611565b9150620003d58362000611565b9250827fffffffffffffffffffffffffffffffffffffffffffffffffffffffffffffffff038211156200040d576200040c6200065e565b5b828201905092915050565b6000808291508390505b60018511156200046a578086048111156200044257620004416200065e565b5b6001851615620004525780820291505b80810290506200046285620006bc565b945062000422565b94509492505050565b6000620004808262000611565b91506200048d836200061b565b9250620004bc7fffffffffffffffffffffffffffffffffffffffffffffffffffffffffffffffff8484620004c4565b905092915050565b600082620004d65760019050620005a9565b81620004e65760009050620005a9565b8160018114620004ff57600281146200050a5762000540565b6001915050620005a9565b60ff8411156200051f576200051e6200065e565b5b8360020a9150848211156200053957620005386200065e565b5b50620005a9565b5060208310610133831016604e8410600b84101617156200057a5782820a9050838111156200057457620005736200065e565b5b620005a9565b62000589848484600162000418565b92509050818404811115620005a357620005a26200065e565b5b81810290505b9392505050565b6000620005bd8262000611565b9150620005ca8362000611565b9250817fffffffffffffffffffffffffffffffffffffffffffffffffffffffffffffffff04831182151516156200060657620006056200065e565b5b828202905092915050565b6000819050919050565b600060ff82169050919050565b600060028204905060018216806200064157607f821691505b602082108114156200065857620006576200068d565b5b50919050565b7f4e487b7100000000000000000000000000000000000000000000000000000000600052601160045260246000fd5b7f4e487b7100000000000000000000000000000000000000000000000000000000600052602260045260246000fd5b60008160011c9050919050565b7f45524332303a206d696e7420746f20746865207a65726f206164647265737300600082015250565b6113ad80620007026000396000f3fe6080604052600436106100a75760003560e01c8063395093511161006457806339509351146101b157806370a08231146101ee57806395d89b411461022b578063a457c2d714610256578063a9059cbb14610293578063dd62ed3e146102d0576100a7565b806306fdde03146100ac578063091e9a60146100d7578063095ea7b3146100e157806318160ddd1461011e57806323b872dd14610149578063313ce56714610186575b600080fd5b3480156100b857600080fd5b506100c161030d565b6040516100ce9190610e2a565b60405180910390f35b6100df61039f565b005b3480156100ed57600080fd5b5061010860048036038101906101039190610c55565b6103f6565b6040516101159190610e0f565b60405180910390f35b34801561012a57600080fd5b50610133610419565b6040516101409190610f4c565b60405180910390f35b34801561015557600080fd5b50610170600480360381019061016b9190610c06565b610423565b60405161017d9190610e0f565b60405180910390f35b34801561019257600080fd5b5061019b610452565b6040516101a89190610f67565b60405180910390f35b3480156101bd57600080fd5b506101d860048036038101906101d39190610c55565b61045b565b6040516101e59190610e0f565b60405180910390f35b3480156101fa57600080fd5b5061021560048036038101906102109190610ba1565b610492565b6040516102229190610f4c565b60405180910390f35b34801561023757600080fd5b506102406104da565b60405161024d9190610e2a565b60405180910390f35b34801561026257600080fd5b5061027d60048036038101906102789190610c55565b61056c565b60405161028a9190610e0f565b60405180910390f35b34801561029f57600080fd5b506102ba60048036038101906102b59190610c55565b6105e3565b6040516102c79190610e0f565b60405180910390f35b3480156102dc57600080fd5b506102f760048036038101906102f29190610bca565b610606565b6040516103049190610f4c565b60405180910390f35b60606003805461031c9061107c565b80601f01602080910402602001604051908101604052809291908181526020018280546103489061107c565b80156103955780601f1061036a57610100808354040283529160200191610395565b820191906000526020600020905b81548152906001019060200180831161037857829003601f168201915b5050505050905090565b346103a930610492565b116103e9576040517f08c379a00000000000000000000000000000000000000000000000000000000081526004016103e090610f0c565b60405180910390fd5b6103f430333461068d565b565b60008061040161090e565b905061040e818585610916565b600191505092915050565b6000600254905090565b60008061042e61090e565b905061043b858285610ae1565b61044685858561068d565b60019150509392505050565b60006012905090565b60008061046661090e565b90506104878185856104788589610606565b6104829190610f9e565b610916565b600191505092915050565b60008060008373ffffffffffffffffffffffffffffffffffffffff1673ffffffffffffffffffffffffffffffffffffffff168152602001908152602001600020549050919050565b6060600480546104e99061107c565b80601f01602080910402602001604051908101604052809291908181526020018280546105159061107c565b80156105625780601f1061053757610100808354040283529160200191610562565b820191906000526020600020905b81548152906001019060200180831161054557829003601f168201915b5050505050905090565b60008061057761090e565b905060006105858286610606565b9050838110156105ca576040517f08c379a00000000000000000000000000000000000000000000000000000000081526004016105c190610f2c565b60405180910390fd5b6105d78286868403610916565b60019250505092915050565b6000806105ee61090e565b90506105fb81858561068d565b600191505092915050565b6000600160008473ffffffffffffffffffffffffffffffffffffffff1673ffffffffffffffffffffffffffffffffffffffff16815260200190815260200160002060008373ffffffffffffffffffffffffffffffffffffffff1673ffffffffffffffffffffffffffffffffffffffff16815260200190815260200160002054905092915050565b600073ffffffffffffffffffffffffffffffffffffffff168373ffffffffffffffffffffffffffffffffffffffff1614156106fd576040517f08c379a00000000000000000000000000000000000000000000000000000000081526004016106f490610ecc565b60405180910390fd5b600073ffffffffffffffffffffffffffffffffffffffff168273ffffffffffffffffffffffffffffffffffffffff16141561076d576040517f08c379a000000000000000000000000000000000000000000000000000000000815260040161076490610e4c565b60405180910390fd5b610778838383610b6d565b60008060008573ffffffffffffffffffffffffffffffffffffffff1673ffffffffffffffffffffffffffffffffffffffff168152602001908152602001600020549050818110156107fe576040517f08c379a00000000000000000000000000000000000000000000000000000000081526004016107f590610eac565b60405180910390fd5b8181036000808673ffffffffffffffffffffffffffffffffffffffff1673ffffffffffffffffffffffffffffffffffffffff16815260200190815260200160002081905550816000808573ffffffffffffffffffffffffffffffffffffffff1673ffffffffffffffffffffffffffffffffffffffff16815260200190815260200160002060008282546108919190610f9e565b925050819055508273ffffffffffffffffffffffffffffffffffffffff168473ffffffffffffffffffffffffffffffffffffffff167fddf252ad1be2c89b69c2b068fc378daa952ba7f163c4a11628f55a4df523b3ef846040516108f59190610f4c565b60405180910390a3610908848484610b72565b50505050565b600033905090565b600073ffffffffffffffffffffffffffffffffffffffff168373ffffffffffffffffffffffffffffffffffffffff161415610986576040517f08c379a000000000000000000000000000000000000000000000000000000000815260040161097d90610eec565b60405180910390fd5b600073ffffffffffffffffffffffffffffffffffffffff168273ffffffffffffffffffffffffffffffffffffffff1614156109f6576040517f08c379a00000000000000000000000000000000000000000000000000000000081526004016109ed90610e6c565b60405180910390fd5b80600160008573ffffffffffffffffffffffffffffffffffffffff1673ffffffffffffffffffffffffffffffffffffffff16815260200190815260200160002060008473ffffffffffffffffffffffffffffffffffffffff1673ffffffffffffffffffffffffffffffffffffffff168152602001908152602001600020819055508173ffffffffffffffffffffffffffffffffffffffff168373ffffffffffffffffffffffffffffffffffffffff167f8c5be1e5ebec7d5bd14f71427d1e84f3dd0314c0f7b2291e5b200ac8c7c3b92583604051610ad49190610f4c565b60405180910390a3505050565b6000610aed8484610606565b90507fffffffffffffffffffffffffffffffffffffffffffffffffffffffffffffffff8114610b675781811015610b59576040517f08c379a0000000000000000000000000000000000000000000000000000000008152600401610b5090610e8c565b60405180910390fd5b610b668484848403610916565b5b50505050565b505050565b505050565b600081359050610b8681611349565b92915050565b600081359050610b9b81611360565b92915050565b600060208284031215610bb357600080fd5b6000610bc184828501610b77565b91505092915050565b60008060408385031215610bdd57600080fd5b6000610beb85828601610b77565b9250506020610bfc85828601610b77565b9150509250929050565b600080600060608486031215610c1b57600080fd5b6000610c2986828701610b77565b9350506020610c3a86828701610b77565b9250506040610c4b86828701610b8c565b9150509250925092565b60008060408385031215610c6857600080fd5b6000610c7685828601610b77565b9250506020610c8785828601610b8c565b9150509250929050565b610c9a81611006565b82525050565b6000610cab82610f82565b610cb58185610f8d565b9350610cc5818560208601611049565b610cce8161110c565b840191505092915050565b6000610ce6602383610f8d565b9150610cf18261111d565b604082019050919050565b6000610d09602283610f8d565b9150610d148261116c565b604082019050919050565b6000610d2c601d83610f8d565b9150610d37826111bb565b602082019050919050565b6000610d4f602683610f8d565b9150610d5a826111e4565b604082019050919050565b6000610d72602583610f8d565b9150610d7d82611233565b604082019050919050565b6000610d95602483610f8d565b9150610da082611282565b604082019050919050565b6000610db8601183610f8d565b9150610dc3826112d1565b602082019050919050565b6000610ddb602583610f8d565b9150610de6826112fa565b604082019050919050565b610dfa81611032565b82525050565b610e098161103c565b82525050565b6000602082019050610e246000830184610c91565b92915050565b60006020820190508181036000830152610e448184610ca0565b905092915050565b60006020820190508181036000830152610e6581610cd9565b9050919050565b60006020820190508181036000830152610e8581610cfc565b9050919050565b60006020820190508181036000830152610ea581610d1f565b9050919050565b60006020820190508181036000830152610ec581610d42565b9050919050565b60006020820190508181036000830152610ee581610d65565b9050919050565b60006020820190508181036000830152610f0581610d88565b9050919050565b60006020820190508181036000830152610f2581610dab565b9050919050565b60006020820190508181036000830152610f4581610dce565b9050919050565b6000602082019050610f616000830184610df1565b92915050565b6000602082019050610f7c6000830184610e00565b92915050565b600081519050919050565b600082825260208201905092915050565b6000610fa982611032565b9150610fb483611032565b9250827fffffffffffffffffffffffffffffffffffffffffffffffffffffffffffffffff03821115610fe957610fe86110ae565b5b828201905092915050565b6000610fff82611012565b9050919050565b60008115159050919050565b600073ffffffffffffffffffffffffffffffffffffffff82169050919050565b6000819050919050565b600060ff82169050919050565b60005b8381101561106757808201518184015260208101905061104c565b83811115611076576000848401525b50505050565b6000600282049050600182168061109457607f821691505b602082108114156110a8576110a76110dd565b5b50919050565b7f4e487b7100000000000000000000000000000000000000000000000000000000600052601160045260246000fd5b7f4e487b7100000000000000000000000000000000000000000000000000000000600052602260045260246000fd5b6000601f19601f8301169050919050565b7f45524332303a207472616e7366657220746f20746865207a65726f206164647260008201527f6573730000000000000000000000000000000000000000000000000000000000602082015250565b7f45524332303a20617070726f766520746f20746865207a65726f20616464726560008201527f7373000000000000000000000000000000000000000000000000000000000000602082015250565b7f45524332303a20696e73756666696369656e7420616c6c6f77616e6365000000600082015250565b7f45524332303a207472616e7366657220616d6f756e742065786365656473206260008201527f616c616e63650000000000000000000000000000000000000000000000000000602082015250565b7f45524332303a207472616e736665722066726f6d20746865207a65726f20616460008201527f6472657373000000000000000000000000000000000000000000000000000000602082015250565b7f45524332303a20617070726f76652066726f6d20746865207a65726f2061646460008201527f7265737300000000000000000000000000000000000000000000000000000000602082015250565b7f4e6f7420656e6f75676820746f6b656e73000000000000000000000000000000600082015250565b7f45524332303a2064656372656173656420616c6c6f77616e63652062656c6f7760008201527f207a65726f000000000000000000000000000000000000000000000000000000602082015250565b61135281610ff4565b811461135d57600080fd5b50565b61136981611032565b811461137457600080fd5b5056fea264697066735822122089ae31b1964d7119da9cc95dc7e433c5157f4c525f7ba9ede23882174982eab264736f6c63430008040033",
  "linkReferences": {},
  "deployedLinkReferences": {}
}