{
  "_format": "hh-sol-artifact-1",
  "contractName": "PIRATE",
  "sourceName": "src/backend/contracts/PIRATE.sol",
  "abi": [
    {
      "inputs": [],
      "stateMutability": "nonpayable",
      "type": "constructor"
    },
    {
      "anonymous": false,
      "inputs": [
        {
          "indexed": true,
          "internalType": "address",
          "name": "owner",
          "type": "address"
        },
        {
          "indexed": true,
          "internalType": "address",
          "name": "spender",
          "type": "address"
        },
        {
          "indexed": false,
          "internalType": "uint256",
          "name": "value",
          "type": "uint256"
        }
      ],
      "name": "Approval",
      "type": "event"
    },
    {
      "anonymous": false,
      "inputs": [
        {
          "indexed": true,
          "internalType": "address",
          "name": "from",
          "type": "address"
        },
        {
          "indexed": true,
          "internalType": "address",
          "name": "to",
          "type": "address"
        },
        {
          "indexed": false,
          "internalType": "uint256",
          "name": "value",
          "type": "uint256"
        }
      ],
      "name": "Transfer",
      "type": "event"
    },
    {
      "inputs": [
        {
          "internalType": "address",
          "name": "owner",
          "type": "address"
        },
        {
          "internalType": "address",
          "name": "spender",
          "type": "address"
        }
      ],
      "name": "allowance",
      "outputs": [
        {
          "internalType": "uint256",
          "name": "",
          "type": "uint256"
        }
      ],
      "stateMutability": "view",
      "type": "function"
    },
    {
      "inputs": [
        {
          "internalType": "address",
          "name": "spender",
          "type": "address"
        },
        {
          "internalType": "uint256",
          "name": "amount",
          "type": "uint256"
        }
      ],
      "name": "approve",
      "outputs": [
        {
          "internalType": "bool",
          "name": "",
          "type": "bool"
        }
      ],
      "stateMutability": "nonpayable",
      "type": "function"
    },
    {
      "inputs": [
        {
          "internalType": "address",
          "name": "account",
          "type": "address"
        }
      ],
      "name": "balanceOf",
      "outputs": [
        {
          "internalType": "uint256",
          "name": "",
          "type": "uint256"
        }
      ],
      "stateMutability": "view",
      "type": "function"
    },
    {
      "inputs": [],
      "name": "buyCoin",
      "outputs": [],
      "stateMutability": "payable",
      "type": "function"
    },
    {
      "inputs": [],
      "name": "checkBalance",
      "outputs": [
        {
          "internalType": "uint256",
          "name": "",
          "type": "uint256"
        }
      ],
      "stateMutability": "payable",
      "type": "function"
    },
    {
      "inputs": [],
      "name": "decimals",
      "outputs": [
        {
          "internalType": "uint8",
          "name": "",
          "type": "uint8"
        }
      ],
      "stateMutability": "view",
      "type": "function"
    },
    {
      "inputs": [
        {
          "internalType": "address",
          "name": "spender",
          "type": "address"
        },
        {
          "internalType": "uint256",
          "name": "subtractedValue",
          "type": "uint256"
        }
      ],
      "name": "decreaseAllowance",
      "outputs": [
        {
          "internalType": "bool",
          "name": "",
          "type": "bool"
        }
      ],
      "stateMutability": "nonpayable",
      "type": "function"
    },
    {
      "inputs": [
        {
          "internalType": "address",
          "name": "spender",
          "type": "address"
        },
        {
          "internalType": "uint256",
          "name": "addedValue",
          "type": "uint256"
        }
      ],
      "name": "increaseAllowance",
      "outputs": [
        {
          "internalType": "bool",
          "name": "",
          "type": "bool"
        }
      ],
      "stateMutability": "nonpayable",
      "type": "function"
    },
    {
      "inputs": [],
      "name": "mint",
      "outputs": [
        {
          "internalType": "bool",
          "name": "",
          "type": "bool"
        }
      ],
      "stateMutability": "nonpayable",
      "type": "function"
    },
    {
      "inputs": [],
      "name": "name",
      "outputs": [
        {
          "internalType": "string",
          "name": "",
          "type": "string"
        }
      ],
      "stateMutability": "view",
      "type": "function"
    },
    {
      "inputs": [],
      "name": "symbol",
      "outputs": [
        {
          "internalType": "string",
          "name": "",
          "type": "string"
        }
      ],
      "stateMutability": "view",
      "type": "function"
    },
    {
      "inputs": [],
      "name": "totalSupply",
      "outputs": [
        {
          "internalType": "uint256",
          "name": "",
          "type": "uint256"
        }
      ],
      "stateMutability": "view",
      "type": "function"
    },
    {
      "inputs": [
        {
          "internalType": "address",
          "name": "to",
          "type": "address"
        },
        {
          "internalType": "uint256",
          "name": "amount",
          "type": "uint256"
        }
      ],
      "name": "transfer",
      "outputs": [
        {
          "internalType": "bool",
          "name": "",
          "type": "bool"
        }
      ],
      "stateMutability": "nonpayable",
      "type": "function"
    },
    {
      "inputs": [
        {
          "internalType": "address",
          "name": "from",
          "type": "address"
        },
        {
          "internalType": "address",
          "name": "to",
          "type": "address"
        },
        {
          "internalType": "uint256",
          "name": "amount",
          "type": "uint256"
        }
      ],
      "name": "transferFrom",
      "outputs": [
        {
          "internalType": "bool",
          "name": "",
          "type": "bool"
        }
      ],
      "stateMutability": "nonpayable",
      "type": "function"
    }
  ],
  "bytecode": "0x60806040523480156200001157600080fd5b506040518060400160405280600c81526020017f54686542697450697261746500000000000000000000000000000000000000008152506040518060400160405280600681526020017f504952415445000000000000000000000000000000000000000000000000000081525081600390805190602001906200009692919062000283565b508060049080519060200190620000af92919062000283565b505050620000f130620000c7620000f760201b60201c565b600a620000d5919062000473565b620186a0620000e59190620005b0565b6200010060201b60201c565b620006f2565b60006012905090565b600073ffffffffffffffffffffffffffffffffffffffff168273ffffffffffffffffffffffffffffffffffffffff16141562000173576040517f08c379a00000000000000000000000000000000000000000000000000000000081526004016200016a906200036b565b60405180910390fd5b62000187600083836200027960201b60201c565b80600260008282546200019b9190620003bb565b92505081905550806000808473ffffffffffffffffffffffffffffffffffffffff1673ffffffffffffffffffffffffffffffffffffffff1681526020019081526020016000206000828254620001f29190620003bb565b925050819055508173ffffffffffffffffffffffffffffffffffffffff16600073ffffffffffffffffffffffffffffffffffffffff167fddf252ad1be2c89b69c2b068fc378daa952ba7f163c4a11628f55a4df523b3ef836040516200025991906200038d565b60405180910390a362000275600083836200027e60201b60201c565b5050565b505050565b505050565b828054620002919062000628565b90600052602060002090601f016020900481019282620002b5576000855562000301565b82601f10620002d057805160ff191683800117855562000301565b8280016001018555821562000301579182015b8281111562000300578251825591602001919060010190620002e3565b5b50905062000310919062000314565b5090565b5b808211156200032f57600081600090555060010162000315565b5090565b600062000342601f83620003aa565b91506200034f82620006c9565b602082019050919050565b620003658162000611565b82525050565b60006020820190508181036000830152620003868162000333565b9050919050565b6000602082019050620003a460008301846200035a565b92915050565b600082825260208201905092915050565b6000620003c88262000611565b9150620003d58362000611565b9250827fffffffffffffffffffffffffffffffffffffffffffffffffffffffffffffffff038211156200040d576200040c6200065e565b5b828201905092915050565b6000808291508390505b60018511156200046a578086048111156200044257620004416200065e565b5b6001851615620004525780820291505b80810290506200046285620006bc565b945062000422565b94509492505050565b6000620004808262000611565b91506200048d836200061b565b9250620004bc7fffffffffffffffffffffffffffffffffffffffffffffffffffffffffffffffff8484620004c4565b905092915050565b600082620004d65760019050620005a9565b81620004e65760009050620005a9565b8160018114620004ff57600281146200050a5762000540565b6001915050620005a9565b60ff8411156200051f576200051e6200065e565b5b8360020a9150848211156200053957620005386200065e565b5b50620005a9565b5060208310610133831016604e8410600b84101617156200057a5782820a9050838111156200057457620005736200065e565b5b620005a9565b62000589848484600162000418565b92509050818404811115620005a357620005a26200065e565b5b81810290505b9392505050565b6000620005bd8262000611565b9150620005ca8362000611565b9250817fffffffffffffffffffffffffffffffffffffffffffffffffffffffffffffffff04831182151516156200060657620006056200065e565b5b828202905092915050565b6000819050919050565b600060ff82169050919050565b600060028204905060018216806200064157607f821691505b602082108114156200065857620006576200068d565b5b50919050565b7f4e487b7100000000000000000000000000000000000000000000000000000000600052601160045260246000fd5b7f4e487b7100000000000000000000000000000000000000000000000000000000600052602260045260246000fd5b60008160011c9050919050565b7f45524332303a206d696e7420746f20746865207a65726f206164647265737300600082015250565b61181180620007026000396000f3fe6080604052600436106100dd5760003560e01c8063395093511161007f578063a457c2d711610059578063a457c2d7146102b7578063a9059cbb146102f4578063c71daccb14610331578063dd62ed3e1461034f576100dd565b8063395093511461021257806370a082311461024f57806395d89b411461028c576100dd565b80631249c58b116100bb5780631249c58b1461015457806318160ddd1461017f57806323b872dd146101aa578063313ce567146101e7576100dd565b806306fdde03146100e2578063091e9a601461010d578063095ea7b314610117575b600080fd5b3480156100ee57600080fd5b506100f761038c565b604051610104919061106d565b60405180910390f35b61011561041e565b005b34801561012357600080fd5b5061013e60048036038101906101399190610e75565b610475565b60405161014b9190611052565b60405180910390f35b34801561016057600080fd5b50610169610498565b6040516101769190611052565b60405180910390f35b34801561018b57600080fd5b506101946104cc565b6040516101a191906111af565b60405180910390f35b3480156101b657600080fd5b506101d160048036038101906101cc9190610e26565b6104d6565b6040516101de9190611052565b60405180910390f35b3480156101f357600080fd5b506101fc610505565b60405161020991906111ca565b60405180910390f35b34801561021e57600080fd5b5061023960048036038101906102349190610e75565b61050e565b6040516102469190611052565b60405180910390f35b34801561025b57600080fd5b5061027660048036038101906102719190610dc1565b610545565b60405161028391906111af565b60405180910390f35b34801561029857600080fd5b506102a161058d565b6040516102ae919061106d565b60405180910390f35b3480156102c357600080fd5b506102de60048036038101906102d99190610e75565b61061f565b6040516102eb9190611052565b60405180910390f35b34801561030057600080fd5b5061031b60048036038101906103169190610e75565b610696565b6040516103289190611052565b60405180910390f35b6103396106b9565b60405161034691906111af565b60405180910390f35b34801561035b57600080fd5b5061037660048036038101906103719190610dea565b6106c6565b60405161038391906111af565b60405180910390f35b60606003805461039b906114aa565b80601f01602080910402602001604051908101604052809291908181526020018280546103c7906114aa565b80156104145780601f106103e957610100808354040283529160200191610414565b820191906000526020600020905b8154815290600101906020018083116103f757829003601f168201915b5050505050905090565b3461042830610545565b11610468576040517f08c379a000000000000000000000000000000000000000000000000000000000815260040161045f9061114f565b60405180910390fd5b61047330333461074d565b565b6000806104806109ce565b905061048d8185856109d6565b600191505092915050565b60006104c5336104a6610505565b600a6104b291906112aa565b620186a06104c091906113c8565b610ba1565b6001905090565b6000600254905090565b6000806104e16109ce565b90506104ee858285610d01565b6104f985858561074d565b60019150509392505050565b60006012905090565b6000806105196109ce565b905061053a81858561052b85896106c6565b6105359190611201565b6109d6565b600191505092915050565b60008060008373ffffffffffffffffffffffffffffffffffffffff1673ffffffffffffffffffffffffffffffffffffffff168152602001908152602001600020549050919050565b60606004805461059c906114aa565b80601f01602080910402602001604051908101604052809291908181526020018280546105c8906114aa565b80156106155780601f106105ea57610100808354040283529160200191610615565b820191906000526020600020905b8154815290600101906020018083116105f857829003601f168201915b5050505050905090565b60008061062a6109ce565b9050600061063882866106c6565b90508381101561067d576040517f08c379a00000000000000000000000000000000000000000000000000000000081526004016106749061116f565b60405180910390fd5b61068a82868684036109d6565b60019250505092915050565b6000806106a16109ce565b90506106ae81858561074d565b600191505092915050565b6000803490508091505090565b6000600160008473ffffffffffffffffffffffffffffffffffffffff1673ffffffffffffffffffffffffffffffffffffffff16815260200190815260200160002060008373ffffffffffffffffffffffffffffffffffffffff1673ffffffffffffffffffffffffffffffffffffffff16815260200190815260200160002054905092915050565b600073ffffffffffffffffffffffffffffffffffffffff168373ffffffffffffffffffffffffffffffffffffffff1614156107bd576040517f08c379a00000000000000000000000000000000000000000000000000000000081526004016107b49061110f565b60405180910390fd5b600073ffffffffffffffffffffffffffffffffffffffff168273ffffffffffffffffffffffffffffffffffffffff16141561082d576040517f08c379a00000000000000000000000000000000000000000000000000000000081526004016108249061108f565b60405180910390fd5b610838838383610d8d565b60008060008573ffffffffffffffffffffffffffffffffffffffff1673ffffffffffffffffffffffffffffffffffffffff168152602001908152602001600020549050818110156108be576040517f08c379a00000000000000000000000000000000000000000000000000000000081526004016108b5906110ef565b60405180910390fd5b8181036000808673ffffffffffffffffffffffffffffffffffffffff1673ffffffffffffffffffffffffffffffffffffffff16815260200190815260200160002081905550816000808573ffffffffffffffffffffffffffffffffffffffff1673ffffffffffffffffffffffffffffffffffffffff16815260200190815260200160002060008282546109519190611201565b925050819055508273ffffffffffffffffffffffffffffffffffffffff168473ffffffffffffffffffffffffffffffffffffffff167fddf252ad1be2c89b69c2b068fc378daa952ba7f163c4a11628f55a4df523b3ef846040516109b591906111af565b60405180910390a36109c8848484610d92565b50505050565b600033905090565b600073ffffffffffffffffffffffffffffffffffffffff168373ffffffffffffffffffffffffffffffffffffffff161415610a46576040517f08c379a0000000000000000000000000000000000000000000000000000000008152600401610a3d9061112f565b60405180910390fd5b600073ffffffffffffffffffffffffffffffffffffffff168273ffffffffffffffffffffffffffffffffffffffff161415610ab6576040517f08c379a0000000000000000000000000000000000000000000000000000000008152600401610aad906110af565b60405180910390fd5b80600160008573ffffffffffffffffffffffffffffffffffffffff1673ffffffffffffffffffffffffffffffffffffffff16815260200190815260200160002060008473ffffffffffffffffffffffffffffffffffffffff1673ffffffffffffffffffffffffffffffffffffffff168152602001908152602001600020819055508173ffffffffffffffffffffffffffffffffffffffff168373ffffffffffffffffffffffffffffffffffffffff167f8c5be1e5ebec7d5bd14f71427d1e84f3dd0314c0f7b2291e5b200ac8c7c3b92583604051610b9491906111af565b60405180910390a3505050565b600073ffffffffffffffffffffffffffffffffffffffff168273ffffffffffffffffffffffffffffffffffffffff161415610c11576040517f08c379a0000000000000000000000000000000000000000000000000000000008152600401610c089061118f565b60405180910390fd5b610c1d60008383610d8d565b8060026000828254610c2f9190611201565b92505081905550806000808473ffffffffffffffffffffffffffffffffffffffff1673ffffffffffffffffffffffffffffffffffffffff1681526020019081526020016000206000828254610c849190611201565b925050819055508173ffffffffffffffffffffffffffffffffffffffff16600073ffffffffffffffffffffffffffffffffffffffff167fddf252ad1be2c89b69c2b068fc378daa952ba7f163c4a11628f55a4df523b3ef83604051610ce991906111af565b60405180910390a3610cfd60008383610d92565b5050565b6000610d0d84846106c6565b90507fffffffffffffffffffffffffffffffffffffffffffffffffffffffffffffffff8114610d875781811015610d79576040517f08c379a0000000000000000000000000000000000000000000000000000000008152600401610d70906110cf565b60405180910390fd5b610d8684848484036109d6565b5b50505050565b505050565b505050565b600081359050610da6816117ad565b92915050565b600081359050610dbb816117c4565b92915050565b600060208284031215610dd357600080fd5b6000610de184828501610d97565b91505092915050565b60008060408385031215610dfd57600080fd5b6000610e0b85828601610d97565b9250506020610e1c85828601610d97565b9150509250929050565b600080600060608486031215610e3b57600080fd5b6000610e4986828701610d97565b9350506020610e5a86828701610d97565b9250506040610e6b86828701610dac565b9150509250925092565b60008060408385031215610e8857600080fd5b6000610e9685828601610d97565b9250506020610ea785828601610dac565b9150509250929050565b610eba81611434565b82525050565b6000610ecb826111e5565b610ed581856111f0565b9350610ee5818560208601611477565b610eee8161153a565b840191505092915050565b6000610f066023836111f0565b9150610f1182611558565b604082019050919050565b6000610f296022836111f0565b9150610f34826115a7565b604082019050919050565b6000610f4c601d836111f0565b9150610f57826115f6565b602082019050919050565b6000610f6f6026836111f0565b9150610f7a8261161f565b604082019050919050565b6000610f926025836111f0565b9150610f9d8261166e565b604082019050919050565b6000610fb56024836111f0565b9150610fc0826116bd565b604082019050919050565b6000610fd86011836111f0565b9150610fe38261170c565b602082019050919050565b6000610ffb6025836111f0565b915061100682611735565b604082019050919050565b600061101e601f836111f0565b915061102982611784565b602082019050919050565b61103d81611460565b82525050565b61104c8161146a565b82525050565b60006020820190506110676000830184610eb1565b92915050565b600060208201905081810360008301526110878184610ec0565b905092915050565b600060208201905081810360008301526110a881610ef9565b9050919050565b600060208201905081810360008301526110c881610f1c565b9050919050565b600060208201905081810360008301526110e881610f3f565b9050919050565b6000602082019050818103600083015261110881610f62565b9050919050565b6000602082019050818103600083015261112881610f85565b9050919050565b6000602082019050818103600083015261114881610fa8565b9050919050565b6000602082019050818103600083015261116881610fcb565b9050919050565b6000602082019050818103600083015261118881610fee565b9050919050565b600060208201905081810360008301526111a881611011565b9050919050565b60006020820190506111c46000830184611034565b92915050565b60006020820190506111df6000830184611043565b92915050565b600081519050919050565b600082825260208201905092915050565b600061120c82611460565b915061121783611460565b9250827fffffffffffffffffffffffffffffffffffffffffffffffffffffffffffffffff0382111561124c5761124b6114dc565b5b828201905092915050565b6000808291508390505b60018511156112a15780860481111561127d5761127c6114dc565b5b600185161561128c5780820291505b808102905061129a8561154b565b9450611261565b94509492505050565b60006112b582611460565b91506112c08361146a565b92506112ed7fffffffffffffffffffffffffffffffffffffffffffffffffffffffffffffffff84846112f5565b905092915050565b60008261130557600190506113c1565b8161131357600090506113c1565b8160018114611329576002811461133357611362565b60019150506113c1565b60ff841115611345576113446114dc565b5b8360020a91508482111561135c5761135b6114dc565b5b506113c1565b5060208310610133831016604e8410600b84101617156113975782820a905083811115611392576113916114dc565b5b6113c1565b6113a48484846001611257565b925090508184048111156113bb576113ba6114dc565b5b81810290505b9392505050565b60006113d382611460565b91506113de83611460565b9250817fffffffffffffffffffffffffffffffffffffffffffffffffffffffffffffffff0483118215151615611417576114166114dc565b5b828202905092915050565b600061142d82611440565b9050919050565b60008115159050919050565b600073ffffffffffffffffffffffffffffffffffffffff82169050919050565b6000819050919050565b600060ff82169050919050565b60005b8381101561149557808201518184015260208101905061147a565b838111156114a4576000848401525b50505050565b600060028204905060018216806114c257607f821691505b602082108114156114d6576114d561150b565b5b50919050565b7f4e487b7100000000000000000000000000000000000000000000000000000000600052601160045260246000fd5b7f4e487b7100000000000000000000000000000000000000000000000000000000600052602260045260246000fd5b6000601f19601f8301169050919050565b60008160011c9050919050565b7f45524332303a207472616e7366657220746f20746865207a65726f206164647260008201527f6573730000000000000000000000000000000000000000000000000000000000602082015250565b7f45524332303a20617070726f766520746f20746865207a65726f20616464726560008201527f7373000000000000000000000000000000000000000000000000000000000000602082015250565b7f45524332303a20696e73756666696369656e7420616c6c6f77616e6365000000600082015250565b7f45524332303a207472616e7366657220616d6f756e742065786365656473206260008201527f616c616e63650000000000000000000000000000000000000000000000000000602082015250565b7f45524332303a207472616e736665722066726f6d20746865207a65726f20616460008201527f6472657373000000000000000000000000000000000000000000000000000000602082015250565b7f45524332303a20617070726f76652066726f6d20746865207a65726f2061646460008201527f7265737300000000000000000000000000000000000000000000000000000000602082015250565b7f4e6f7420656e6f75676820746f6b656e73000000000000000000000000000000600082015250565b7f45524332303a2064656372656173656420616c6c6f77616e63652062656c6f7760008201527f207a65726f000000000000000000000000000000000000000000000000000000602082015250565b7f45524332303a206d696e7420746f20746865207a65726f206164647265737300600082015250565b6117b681611422565b81146117c157600080fd5b50565b6117cd81611460565b81146117d857600080fd5b5056fea2646970667358221220f550dfd8370fcf2d9d08cd80df0c9cf9f14d7c50e0076a351efbf2427176f91b64736f6c63430008040033",
  "linkReferences": {},
  "deployedLinkReferences": {}
}