{
  "_format": "hh-sol-artifact-1",
  "contractName": "PIRATE",
  "sourceName": "src/backend/contracts/PIRATE.sol",
  "abi": [
    {
      "inputs": [],
      "stateMutability": "nonpayable",
      "type": "constructor"
    },
    {
      "anonymous": false,
      "inputs": [
        {
          "indexed": true,
          "internalType": "address",
          "name": "owner",
          "type": "address"
        },
        {
          "indexed": true,
          "internalType": "address",
          "name": "spender",
          "type": "address"
        },
        {
          "indexed": false,
          "internalType": "uint256",
          "name": "value",
          "type": "uint256"
        }
      ],
      "name": "Approval",
      "type": "event"
    },
    {
      "anonymous": false,
      "inputs": [
        {
          "indexed": true,
          "internalType": "address",
          "name": "from",
          "type": "address"
        },
        {
          "indexed": true,
          "internalType": "address",
          "name": "to",
          "type": "address"
        },
        {
          "indexed": false,
          "internalType": "uint256",
          "name": "value",
          "type": "uint256"
        }
      ],
      "name": "Transfer",
      "type": "event"
    },
    {
      "inputs": [
        {
          "internalType": "address",
          "name": "owner",
          "type": "address"
        },
        {
          "internalType": "address",
          "name": "delegate",
          "type": "address"
        }
      ],
      "name": "allowance",
      "outputs": [
        {
          "internalType": "uint256",
          "name": "",
          "type": "uint256"
        }
      ],
      "stateMutability": "view",
      "type": "function"
    },
    {
      "inputs": [
        {
          "internalType": "address",
          "name": "delegate",
          "type": "address"
        },
        {
          "internalType": "uint256",
          "name": "numTokens",
          "type": "uint256"
        }
      ],
      "name": "approve",
      "outputs": [
        {
          "internalType": "bool",
          "name": "",
          "type": "bool"
        }
      ],
      "stateMutability": "nonpayable",
      "type": "function"
    },
    {
      "inputs": [
        {
          "internalType": "address",
          "name": "account",
          "type": "address"
        }
      ],
      "name": "balanceOf",
      "outputs": [
        {
          "internalType": "uint256",
          "name": "",
          "type": "uint256"
        }
      ],
      "stateMutability": "view",
      "type": "function"
    },
    {
      "inputs": [],
      "name": "buyCoin",
      "outputs": [],
      "stateMutability": "payable",
      "type": "function"
    },
    {
      "inputs": [],
      "name": "checkBalance",
      "outputs": [
        {
          "internalType": "uint256",
          "name": "",
          "type": "uint256"
        }
      ],
      "stateMutability": "payable",
      "type": "function"
    },
    {
      "inputs": [],
      "name": "decimals",
      "outputs": [
        {
          "internalType": "uint8",
          "name": "",
          "type": "uint8"
        }
      ],
      "stateMutability": "view",
      "type": "function"
    },
    {
      "inputs": [
        {
          "internalType": "address",
          "name": "spender",
          "type": "address"
        },
        {
          "internalType": "uint256",
          "name": "subtractedValue",
          "type": "uint256"
        }
      ],
      "name": "decreaseAllowance",
      "outputs": [
        {
          "internalType": "bool",
          "name": "",
          "type": "bool"
        }
      ],
      "stateMutability": "nonpayable",
      "type": "function"
    },
    {
      "inputs": [
        {
          "internalType": "address",
          "name": "spender",
          "type": "address"
        },
        {
          "internalType": "uint256",
          "name": "addedValue",
          "type": "uint256"
        }
      ],
      "name": "increaseAllowance",
      "outputs": [
        {
          "internalType": "bool",
          "name": "",
          "type": "bool"
        }
      ],
      "stateMutability": "nonpayable",
      "type": "function"
    },
    {
      "inputs": [],
      "name": "mint",
      "outputs": [
        {
          "internalType": "bool",
          "name": "",
          "type": "bool"
        }
      ],
      "stateMutability": "nonpayable",
      "type": "function"
    },
    {
      "inputs": [],
      "name": "name",
      "outputs": [
        {
          "internalType": "string",
          "name": "",
          "type": "string"
        }
      ],
      "stateMutability": "view",
      "type": "function"
    },
    {
      "inputs": [],
      "name": "symbol",
      "outputs": [
        {
          "internalType": "string",
          "name": "",
          "type": "string"
        }
      ],
      "stateMutability": "view",
      "type": "function"
    },
    {
      "inputs": [],
      "name": "totalSupply",
      "outputs": [
        {
          "internalType": "uint256",
          "name": "",
          "type": "uint256"
        }
      ],
      "stateMutability": "view",
      "type": "function"
    },
    {
      "inputs": [
        {
          "internalType": "address",
          "name": "to",
          "type": "address"
        },
        {
          "internalType": "uint256",
          "name": "amount",
          "type": "uint256"
        }
      ],
      "name": "transfer",
      "outputs": [
        {
          "internalType": "bool",
          "name": "",
          "type": "bool"
        }
      ],
      "stateMutability": "nonpayable",
      "type": "function"
    },
    {
      "inputs": [
        {
          "internalType": "address",
          "name": "from",
          "type": "address"
        },
        {
          "internalType": "address",
          "name": "to",
          "type": "address"
        },
        {
          "internalType": "uint256",
          "name": "amount",
          "type": "uint256"
        }
      ],
      "name": "transferFrom",
      "outputs": [
        {
          "internalType": "bool",
          "name": "",
          "type": "bool"
        }
      ],
      "stateMutability": "nonpayable",
      "type": "function"
    }
  ],
  "bytecode": "0x60806040523480156200001157600080fd5b506040518060400160405280600c81526020017f54686542697450697261746500000000000000000000000000000000000000008152506040518060400160405280600681526020017f504952415445000000000000000000000000000000000000000000000000000081525081600390805190602001906200009692919062000283565b508060049080519060200190620000af92919062000283565b505050620000f130620000c7620000f760201b60201c565b600a620000d5919062000473565b620186a0620000e59190620005b0565b6200010060201b60201c565b620006f2565b60006012905090565b600073ffffffffffffffffffffffffffffffffffffffff168273ffffffffffffffffffffffffffffffffffffffff16141562000173576040517f08c379a00000000000000000000000000000000000000000000000000000000081526004016200016a906200036b565b60405180910390fd5b62000187600083836200027960201b60201c565b80600260008282546200019b9190620003bb565b92505081905550806000808473ffffffffffffffffffffffffffffffffffffffff1673ffffffffffffffffffffffffffffffffffffffff1681526020019081526020016000206000828254620001f29190620003bb565b925050819055508173ffffffffffffffffffffffffffffffffffffffff16600073ffffffffffffffffffffffffffffffffffffffff167fddf252ad1be2c89b69c2b068fc378daa952ba7f163c4a11628f55a4df523b3ef836040516200025991906200038d565b60405180910390a362000275600083836200027e60201b60201c565b5050565b505050565b505050565b828054620002919062000628565b90600052602060002090601f016020900481019282620002b5576000855562000301565b82601f10620002d057805160ff191683800117855562000301565b8280016001018555821562000301579182015b8281111562000300578251825591602001919060010190620002e3565b5b50905062000310919062000314565b5090565b5b808211156200032f57600081600090555060010162000315565b5090565b600062000342601f83620003aa565b91506200034f82620006c9565b602082019050919050565b620003658162000611565b82525050565b60006020820190508181036000830152620003868162000333565b9050919050565b6000602082019050620003a460008301846200035a565b92915050565b600082825260208201905092915050565b6000620003c88262000611565b9150620003d58362000611565b9250827fffffffffffffffffffffffffffffffffffffffffffffffffffffffffffffffff038211156200040d576200040c6200065e565b5b828201905092915050565b6000808291508390505b60018511156200046a578086048111156200044257620004416200065e565b5b6001851615620004525780820291505b80810290506200046285620006bc565b945062000422565b94509492505050565b6000620004808262000611565b91506200048d836200061b565b9250620004bc7fffffffffffffffffffffffffffffffffffffffffffffffffffffffffffffffff8484620004c4565b905092915050565b600082620004d65760019050620005a9565b81620004e65760009050620005a9565b8160018114620004ff57600281146200050a5762000540565b6001915050620005a9565b60ff8411156200051f576200051e6200065e565b5b8360020a9150848211156200053957620005386200065e565b5b50620005a9565b5060208310610133831016604e8410600b84101617156200057a5782820a9050838111156200057457620005736200065e565b5b620005a9565b62000589848484600162000418565b92509050818404811115620005a357620005a26200065e565b5b81810290505b9392505050565b6000620005bd8262000611565b9150620005ca8362000611565b9250817fffffffffffffffffffffffffffffffffffffffffffffffffffffffffffffffff04831182151516156200060657620006056200065e565b5b828202905092915050565b6000819050919050565b600060ff82169050919050565b600060028204905060018216806200064157607f821691505b602082108114156200065857620006576200068d565b5b50919050565b7f4e487b7100000000000000000000000000000000000000000000000000000000600052601160045260246000fd5b7f4e487b7100000000000000000000000000000000000000000000000000000000600052602260045260246000fd5b60008160011c9050919050565b7f45524332303a206d696e7420746f20746865207a65726f206164647265737300600082015250565b6118e080620007026000396000f3fe6080604052600436106100dd5760003560e01c8063395093511161007f578063a457c2d711610059578063a457c2d7146102b7578063a9059cbb146102f4578063c71daccb14610331578063dd62ed3e1461034f576100dd565b8063395093511461021257806370a082311461024f57806395d89b411461028c576100dd565b80631249c58b116100bb5780631249c58b1461015457806318160ddd1461017f57806323b872dd146101aa578063313ce567146101e7576100dd565b806306fdde03146100e2578063091e9a601461010d578063095ea7b314610117575b600080fd5b3480156100ee57600080fd5b506100f761038c565b604051610104919061113c565b60405180910390f35b61011561041e565b005b34801561012357600080fd5b5061013e60048036038101906101399190610f44565b610475565b60405161014b9190611121565b60405180910390f35b34801561016057600080fd5b50610169610567565b6040516101769190611121565b60405180910390f35b34801561018b57600080fd5b5061019461059b565b6040516101a1919061127e565b60405180910390f35b3480156101b657600080fd5b506101d160048036038101906101cc9190610ef5565b6105a5565b6040516101de9190611121565b60405180910390f35b3480156101f357600080fd5b506101fc6105d4565b6040516102099190611299565b60405180910390f35b34801561021e57600080fd5b5061023960048036038101906102349190610f44565b6105dd565b6040516102469190611121565b60405180910390f35b34801561025b57600080fd5b5061027660048036038101906102719190610e90565b610614565b604051610283919061127e565b60405180910390f35b34801561029857600080fd5b506102a161065c565b6040516102ae919061113c565b60405180910390f35b3480156102c357600080fd5b506102de60048036038101906102d99190610f44565b6106ee565b6040516102eb9190611121565b60405180910390f35b34801561030057600080fd5b5061031b60048036038101906103169190610f44565b610765565b6040516103289190611121565b60405180910390f35b610339610788565b604051610346919061127e565b60405180910390f35b34801561035b57600080fd5b5061037660048036038101906103719190610eb9565b610795565b604051610383919061127e565b60405180910390f35b60606003805461039b90611579565b80601f01602080910402602001604051908101604052809291908181526020018280546103c790611579565b80156104145780601f106103e957610100808354040283529160200191610414565b820191906000526020600020905b8154815290600101906020018083116103f757829003601f168201915b5050505050905090565b3461042830610614565b11610468576040517f08c379a000000000000000000000000000000000000000000000000000000000815260040161045f9061121e565b60405180910390fd5b61047330333461081c565b565b600081600560003373ffffffffffffffffffffffffffffffffffffffff1673ffffffffffffffffffffffffffffffffffffffff16815260200190815260200160002060008573ffffffffffffffffffffffffffffffffffffffff1673ffffffffffffffffffffffffffffffffffffffff168152602001908152602001600020819055508273ffffffffffffffffffffffffffffffffffffffff163373ffffffffffffffffffffffffffffffffffffffff167f8c5be1e5ebec7d5bd14f71427d1e84f3dd0314c0f7b2291e5b200ac8c7c3b92584604051610555919061127e565b60405180910390a36001905092915050565b6000610594336105756105d4565b600a6105819190611379565b620186a061058f9190611497565b610a9d565b6001905090565b6000600254905090565b6000806105b0610bfd565b90506105bd858285610c05565b6105c885858561081c565b60019150509392505050565b60006012905090565b6000806105e8610bfd565b90506106098185856105fa8589610795565b61060491906112d0565b610c91565b600191505092915050565b60008060008373ffffffffffffffffffffffffffffffffffffffff1673ffffffffffffffffffffffffffffffffffffffff168152602001908152602001600020549050919050565b60606004805461066b90611579565b80601f016020809104026020016040519081016040528092919081815260200182805461069790611579565b80156106e45780601f106106b9576101008083540402835291602001916106e4565b820191906000526020600020905b8154815290600101906020018083116106c757829003601f168201915b5050505050905090565b6000806106f9610bfd565b905060006107078286610795565b90508381101561074c576040517f08c379a00000000000000000000000000000000000000000000000000000000081526004016107439061123e565b60405180910390fd5b6107598286868403610c91565b60019250505092915050565b600080610770610bfd565b905061077d81858561081c565b600191505092915050565b6000803490508091505090565b6000600560008473ffffffffffffffffffffffffffffffffffffffff1673ffffffffffffffffffffffffffffffffffffffff16815260200190815260200160002060008373ffffffffffffffffffffffffffffffffffffffff1673ffffffffffffffffffffffffffffffffffffffff16815260200190815260200160002054905092915050565b600073ffffffffffffffffffffffffffffffffffffffff168373ffffffffffffffffffffffffffffffffffffffff16141561088c576040517f08c379a0000000000000000000000000000000000000000000000000000000008152600401610883906111de565b60405180910390fd5b600073ffffffffffffffffffffffffffffffffffffffff168273ffffffffffffffffffffffffffffffffffffffff1614156108fc576040517f08c379a00000000000000000000000000000000000000000000000000000000081526004016108f39061115e565b60405180910390fd5b610907838383610e5c565b60008060008573ffffffffffffffffffffffffffffffffffffffff1673ffffffffffffffffffffffffffffffffffffffff1681526020019081526020016000205490508181101561098d576040517f08c379a0000000000000000000000000000000000000000000000000000000008152600401610984906111be565b60405180910390fd5b8181036000808673ffffffffffffffffffffffffffffffffffffffff1673ffffffffffffffffffffffffffffffffffffffff16815260200190815260200160002081905550816000808573ffffffffffffffffffffffffffffffffffffffff1673ffffffffffffffffffffffffffffffffffffffff1681526020019081526020016000206000828254610a2091906112d0565b925050819055508273ffffffffffffffffffffffffffffffffffffffff168473ffffffffffffffffffffffffffffffffffffffff167fddf252ad1be2c89b69c2b068fc378daa952ba7f163c4a11628f55a4df523b3ef84604051610a84919061127e565b60405180910390a3610a97848484610e61565b50505050565b600073ffffffffffffffffffffffffffffffffffffffff168273ffffffffffffffffffffffffffffffffffffffff161415610b0d576040517f08c379a0000000000000000000000000000000000000000000000000000000008152600401610b049061125e565b60405180910390fd5b610b1960008383610e5c565b8060026000828254610b2b91906112d0565b92505081905550806000808473ffffffffffffffffffffffffffffffffffffffff1673ffffffffffffffffffffffffffffffffffffffff1681526020019081526020016000206000828254610b8091906112d0565b925050819055508173ffffffffffffffffffffffffffffffffffffffff16600073ffffffffffffffffffffffffffffffffffffffff167fddf252ad1be2c89b69c2b068fc378daa952ba7f163c4a11628f55a4df523b3ef83604051610be5919061127e565b60405180910390a3610bf960008383610e61565b5050565b600033905090565b6000610c118484610795565b90507fffffffffffffffffffffffffffffffffffffffffffffffffffffffffffffffff8114610c8b5781811015610c7d576040517f08c379a0000000000000000000000000000000000000000000000000000000008152600401610c749061119e565b60405180910390fd5b610c8a8484848403610c91565b5b50505050565b600073ffffffffffffffffffffffffffffffffffffffff168373ffffffffffffffffffffffffffffffffffffffff161415610d01576040517f08c379a0000000000000000000000000000000000000000000000000000000008152600401610cf8906111fe565b60405180910390fd5b600073ffffffffffffffffffffffffffffffffffffffff168273ffffffffffffffffffffffffffffffffffffffff161415610d71576040517f08c379a0000000000000000000000000000000000000000000000000000000008152600401610d689061117e565b60405180910390fd5b80600160008573ffffffffffffffffffffffffffffffffffffffff1673ffffffffffffffffffffffffffffffffffffffff16815260200190815260200160002060008473ffffffffffffffffffffffffffffffffffffffff1673ffffffffffffffffffffffffffffffffffffffff168152602001908152602001600020819055508173ffffffffffffffffffffffffffffffffffffffff168373ffffffffffffffffffffffffffffffffffffffff167f8c5be1e5ebec7d5bd14f71427d1e84f3dd0314c0f7b2291e5b200ac8c7c3b92583604051610e4f919061127e565b60405180910390a3505050565b505050565b505050565b600081359050610e758161187c565b92915050565b600081359050610e8a81611893565b92915050565b600060208284031215610ea257600080fd5b6000610eb084828501610e66565b91505092915050565b60008060408385031215610ecc57600080fd5b6000610eda85828601610e66565b9250506020610eeb85828601610e66565b9150509250929050565b600080600060608486031215610f0a57600080fd5b6000610f1886828701610e66565b9350506020610f2986828701610e66565b9250506040610f3a86828701610e7b565b9150509250925092565b60008060408385031215610f5757600080fd5b6000610f6585828601610e66565b9250506020610f7685828601610e7b565b9150509250929050565b610f8981611503565b82525050565b6000610f9a826112b4565b610fa481856112bf565b9350610fb4818560208601611546565b610fbd81611609565b840191505092915050565b6000610fd56023836112bf565b9150610fe082611627565b604082019050919050565b6000610ff86022836112bf565b915061100382611676565b604082019050919050565b600061101b601d836112bf565b9150611026826116c5565b602082019050919050565b600061103e6026836112bf565b9150611049826116ee565b604082019050919050565b60006110616025836112bf565b915061106c8261173d565b604082019050919050565b60006110846024836112bf565b915061108f8261178c565b604082019050919050565b60006110a76011836112bf565b91506110b2826117db565b602082019050919050565b60006110ca6025836112bf565b91506110d582611804565b604082019050919050565b60006110ed601f836112bf565b91506110f882611853565b602082019050919050565b61110c8161152f565b82525050565b61111b81611539565b82525050565b60006020820190506111366000830184610f80565b92915050565b600060208201905081810360008301526111568184610f8f565b905092915050565b6000602082019050818103600083015261117781610fc8565b9050919050565b6000602082019050818103600083015261119781610feb565b9050919050565b600060208201905081810360008301526111b78161100e565b9050919050565b600060208201905081810360008301526111d781611031565b9050919050565b600060208201905081810360008301526111f781611054565b9050919050565b6000602082019050818103600083015261121781611077565b9050919050565b600060208201905081810360008301526112378161109a565b9050919050565b60006020820190508181036000830152611257816110bd565b9050919050565b60006020820190508181036000830152611277816110e0565b9050919050565b60006020820190506112936000830184611103565b92915050565b60006020820190506112ae6000830184611112565b92915050565b600081519050919050565b600082825260208201905092915050565b60006112db8261152f565b91506112e68361152f565b9250827fffffffffffffffffffffffffffffffffffffffffffffffffffffffffffffffff0382111561131b5761131a6115ab565b5b828201905092915050565b6000808291508390505b60018511156113705780860481111561134c5761134b6115ab565b5b600185161561135b5780820291505b80810290506113698561161a565b9450611330565b94509492505050565b60006113848261152f565b915061138f83611539565b92506113bc7fffffffffffffffffffffffffffffffffffffffffffffffffffffffffffffffff84846113c4565b905092915050565b6000826113d45760019050611490565b816113e25760009050611490565b81600181146113f8576002811461140257611431565b6001915050611490565b60ff841115611414576114136115ab565b5b8360020a91508482111561142b5761142a6115ab565b5b50611490565b5060208310610133831016604e8410600b84101617156114665782820a905083811115611461576114606115ab565b5b611490565b6114738484846001611326565b9250905081840481111561148a576114896115ab565b5b81810290505b9392505050565b60006114a28261152f565b91506114ad8361152f565b9250817fffffffffffffffffffffffffffffffffffffffffffffffffffffffffffffffff04831182151516156114e6576114e56115ab565b5b828202905092915050565b60006114fc8261150f565b9050919050565b60008115159050919050565b600073ffffffffffffffffffffffffffffffffffffffff82169050919050565b6000819050919050565b600060ff82169050919050565b60005b83811015611564578082015181840152602081019050611549565b83811115611573576000848401525b50505050565b6000600282049050600182168061159157607f821691505b602082108114156115a5576115a46115da565b5b50919050565b7f4e487b7100000000000000000000000000000000000000000000000000000000600052601160045260246000fd5b7f4e487b7100000000000000000000000000000000000000000000000000000000600052602260045260246000fd5b6000601f19601f8301169050919050565b60008160011c9050919050565b7f45524332303a207472616e7366657220746f20746865207a65726f206164647260008201527f6573730000000000000000000000000000000000000000000000000000000000602082015250565b7f45524332303a20617070726f766520746f20746865207a65726f20616464726560008201527f7373000000000000000000000000000000000000000000000000000000000000602082015250565b7f45524332303a20696e73756666696369656e7420616c6c6f77616e6365000000600082015250565b7f45524332303a207472616e7366657220616d6f756e742065786365656473206260008201527f616c616e63650000000000000000000000000000000000000000000000000000602082015250565b7f45524332303a207472616e736665722066726f6d20746865207a65726f20616460008201527f6472657373000000000000000000000000000000000000000000000000000000602082015250565b7f45524332303a20617070726f76652066726f6d20746865207a65726f2061646460008201527f7265737300000000000000000000000000000000000000000000000000000000602082015250565b7f4e6f7420656e6f75676820746f6b656e73000000000000000000000000000000600082015250565b7f45524332303a2064656372656173656420616c6c6f77616e63652062656c6f7760008201527f207a65726f000000000000000000000000000000000000000000000000000000602082015250565b7f45524332303a206d696e7420746f20746865207a65726f206164647265737300600082015250565b611885816114f1565b811461189057600080fd5b50565b61189c8161152f565b81146118a757600080fd5b5056fea264697066735822122082404a4d80b219c29993808c7ab87ad0e180c6373aac33e050e5f2b7d66b5ad864736f6c63430008040033",
  "linkReferences": {},
  "deployedLinkReferences": {}
}