{
  "_format": "hh-sol-artifact-1",
  "contractName": "PIRATE",
  "sourceName": "src/backend/contracts/PIRATE.sol",
  "abi": [
    {
      "inputs": [],
      "stateMutability": "nonpayable",
      "type": "constructor"
    },
    {
      "anonymous": false,
      "inputs": [
        {
          "indexed": true,
          "internalType": "address",
          "name": "owner",
          "type": "address"
        },
        {
          "indexed": true,
          "internalType": "address",
          "name": "spender",
          "type": "address"
        },
        {
          "indexed": false,
          "internalType": "uint256",
          "name": "value",
          "type": "uint256"
        }
      ],
      "name": "Approval",
      "type": "event"
    },
    {
      "anonymous": false,
      "inputs": [
        {
          "indexed": true,
          "internalType": "address",
          "name": "from",
          "type": "address"
        },
        {
          "indexed": true,
          "internalType": "address",
          "name": "to",
          "type": "address"
        },
        {
          "indexed": false,
          "internalType": "uint256",
          "name": "value",
          "type": "uint256"
        }
      ],
      "name": "Transfer",
      "type": "event"
    },
    {
      "inputs": [
        {
          "internalType": "address",
          "name": "owner",
          "type": "address"
        },
        {
          "internalType": "address",
          "name": "spender",
          "type": "address"
        }
      ],
      "name": "allowance",
      "outputs": [
        {
          "internalType": "uint256",
          "name": "",
          "type": "uint256"
        }
      ],
      "stateMutability": "view",
      "type": "function"
    },
    {
      "inputs": [
        {
          "internalType": "address",
          "name": "spender",
          "type": "address"
        },
        {
          "internalType": "uint256",
          "name": "amount",
          "type": "uint256"
        }
      ],
      "name": "approve",
      "outputs": [
        {
          "internalType": "bool",
          "name": "",
          "type": "bool"
        }
      ],
      "stateMutability": "nonpayable",
      "type": "function"
    },
    {
      "inputs": [
        {
          "internalType": "address",
          "name": "account",
          "type": "address"
        }
      ],
      "name": "balanceOf",
      "outputs": [
        {
          "internalType": "uint256",
          "name": "",
          "type": "uint256"
        }
      ],
      "stateMutability": "view",
      "type": "function"
    },
    {
      "inputs": [],
      "name": "buyCoin",
      "outputs": [],
      "stateMutability": "payable",
      "type": "function"
    },
    {
      "inputs": [],
      "name": "checkBalance",
      "outputs": [
        {
          "internalType": "uint256",
          "name": "",
          "type": "uint256"
        }
      ],
      "stateMutability": "payable",
      "type": "function"
    },
    {
      "inputs": [],
      "name": "contractOwner",
      "outputs": [
        {
          "internalType": "address payable",
          "name": "",
          "type": "address"
        }
      ],
      "stateMutability": "view",
      "type": "function"
    },
    {
      "inputs": [],
      "name": "decimals",
      "outputs": [
        {
          "internalType": "uint8",
          "name": "",
          "type": "uint8"
        }
      ],
      "stateMutability": "view",
      "type": "function"
    },
    {
      "inputs": [
        {
          "internalType": "address",
          "name": "spender",
          "type": "address"
        },
        {
          "internalType": "uint256",
          "name": "subtractedValue",
          "type": "uint256"
        }
      ],
      "name": "decreaseAllowance",
      "outputs": [
        {
          "internalType": "bool",
          "name": "",
          "type": "bool"
        }
      ],
      "stateMutability": "nonpayable",
      "type": "function"
    },
    {
      "inputs": [
        {
          "internalType": "address",
          "name": "spender",
          "type": "address"
        },
        {
          "internalType": "uint256",
          "name": "addedValue",
          "type": "uint256"
        }
      ],
      "name": "increaseAllowance",
      "outputs": [
        {
          "internalType": "bool",
          "name": "",
          "type": "bool"
        }
      ],
      "stateMutability": "nonpayable",
      "type": "function"
    },
    {
      "inputs": [],
      "name": "mint",
      "outputs": [
        {
          "internalType": "bool",
          "name": "",
          "type": "bool"
        }
      ],
      "stateMutability": "nonpayable",
      "type": "function"
    },
    {
      "inputs": [],
      "name": "name",
      "outputs": [
        {
          "internalType": "string",
          "name": "",
          "type": "string"
        }
      ],
      "stateMutability": "view",
      "type": "function"
    },
    {
      "inputs": [],
      "name": "symbol",
      "outputs": [
        {
          "internalType": "string",
          "name": "",
          "type": "string"
        }
      ],
      "stateMutability": "view",
      "type": "function"
    },
    {
      "inputs": [],
      "name": "totalSupply",
      "outputs": [
        {
          "internalType": "uint256",
          "name": "",
          "type": "uint256"
        }
      ],
      "stateMutability": "view",
      "type": "function"
    },
    {
      "inputs": [
        {
          "internalType": "address",
          "name": "to",
          "type": "address"
        },
        {
          "internalType": "uint256",
          "name": "amount",
          "type": "uint256"
        }
      ],
      "name": "transfer",
      "outputs": [
        {
          "internalType": "bool",
          "name": "",
          "type": "bool"
        }
      ],
      "stateMutability": "nonpayable",
      "type": "function"
    },
    {
      "inputs": [
        {
          "internalType": "address",
          "name": "from",
          "type": "address"
        },
        {
          "internalType": "address",
          "name": "to",
          "type": "address"
        },
        {
          "internalType": "uint256",
          "name": "amount",
          "type": "uint256"
        }
      ],
      "name": "transferFrom",
      "outputs": [
        {
          "internalType": "bool",
          "name": "",
          "type": "bool"
        }
      ],
      "stateMutability": "nonpayable",
      "type": "function"
    }
  ],
  "bytecode": "0x60a06040523480156200001157600080fd5b506040518060400160405280600c81526020017f54686542697450697261746500000000000000000000000000000000000000008152506040518060400160405280600681526020017f5049524154450000000000000000000000000000000000000000000000000000815250816003908051906020019062000096929190620002ba565b508060049080519060200190620000af929190620002ba565b5050503373ffffffffffffffffffffffffffffffffffffffff1660808173ffffffffffffffffffffffffffffffffffffffff1660601b815250506200012833620000fe6200012e60201b60201c565b600a6200010c9190620004aa565b620186a06200011c9190620005e7565b6200013760201b60201c565b62000729565b60006012905090565b600073ffffffffffffffffffffffffffffffffffffffff168273ffffffffffffffffffffffffffffffffffffffff161415620001aa576040517f08c379a0000000000000000000000000000000000000000000000000000000008152600401620001a190620003a2565b60405180910390fd5b620001be60008383620002b060201b60201c565b8060026000828254620001d29190620003f2565b92505081905550806000808473ffffffffffffffffffffffffffffffffffffffff1673ffffffffffffffffffffffffffffffffffffffff1681526020019081526020016000206000828254620002299190620003f2565b925050819055508173ffffffffffffffffffffffffffffffffffffffff16600073ffffffffffffffffffffffffffffffffffffffff167fddf252ad1be2c89b69c2b068fc378daa952ba7f163c4a11628f55a4df523b3ef83604051620002909190620003c4565b60405180910390a3620002ac60008383620002b560201b60201c565b5050565b505050565b505050565b828054620002c8906200065f565b90600052602060002090601f016020900481019282620002ec576000855562000338565b82601f106200030757805160ff191683800117855562000338565b8280016001018555821562000338579182015b82811115620003375782518255916020019190600101906200031a565b5b5090506200034791906200034b565b5090565b5b80821115620003665760008160009055506001016200034c565b5090565b600062000379601f83620003e1565b9150620003868262000700565b602082019050919050565b6200039c8162000648565b82525050565b60006020820190508181036000830152620003bd816200036a565b9050919050565b6000602082019050620003db600083018462000391565b92915050565b600082825260208201905092915050565b6000620003ff8262000648565b91506200040c8362000648565b9250827fffffffffffffffffffffffffffffffffffffffffffffffffffffffffffffffff0382111562000444576200044362000695565b5b828201905092915050565b6000808291508390505b6001851115620004a15780860481111562000479576200047862000695565b5b6001851615620004895780820291505b80810290506200049985620006f3565b945062000459565b94509492505050565b6000620004b78262000648565b9150620004c48362000652565b9250620004f37fffffffffffffffffffffffffffffffffffffffffffffffffffffffffffffffff8484620004fb565b905092915050565b6000826200050d5760019050620005e0565b816200051d5760009050620005e0565b8160018114620005365760028114620005415762000577565b6001915050620005e0565b60ff84111562000556576200055562000695565b5b8360020a91508482111562000570576200056f62000695565b5b50620005e0565b5060208310610133831016604e8410600b8410161715620005b15782820a905083811115620005ab57620005aa62000695565b5b620005e0565b620005c084848460016200044f565b92509050818404811115620005da57620005d962000695565b5b81810290505b9392505050565b6000620005f48262000648565b9150620006018362000648565b9250817fffffffffffffffffffffffffffffffffffffffffffffffffffffffffffffffff04831182151516156200063d576200063c62000695565b5b828202905092915050565b6000819050919050565b600060ff82169050919050565b600060028204905060018216806200067857607f821691505b602082108114156200068f576200068e620006c4565b5b50919050565b7f4e487b7100000000000000000000000000000000000000000000000000000000600052601160045260246000fd5b7f4e487b7100000000000000000000000000000000000000000000000000000000600052602260045260246000fd5b60008160011c9050919050565b7f45524332303a206d696e7420746f20746865207a65726f206164647265737300600082015250565b60805160601c6118a76200074860003960006106fe01526118a76000f3fe6080604052600436106100e85760003560e01c8063395093511161008a578063a9059cbb11610059578063a9059cbb146102ff578063c71daccb1461033c578063ce606ee01461035a578063dd62ed3e14610385576100e8565b8063395093511461021d57806370a082311461025a57806395d89b4114610297578063a457c2d7146102c2576100e8565b80631249c58b116100c65780631249c58b1461015f57806318160ddd1461018a57806323b872dd146101b5578063313ce567146101f2576100e8565b806306fdde03146100ed578063091e9a6014610118578063095ea7b314610122575b600080fd5b3480156100f957600080fd5b506101026103c2565b60405161010f91906110f1565b60405180910390f35b610120610454565b005b34801561012e57600080fd5b5061014960048036038101906101449190610ecf565b6104ab565b60405161015691906110d6565b60405180910390f35b34801561016b57600080fd5b506101746104ce565b60405161018191906110d6565b60405180910390f35b34801561019657600080fd5b5061019f610502565b6040516101ac9190611233565b60405180910390f35b3480156101c157600080fd5b506101dc60048036038101906101d79190610e80565b61050c565b6040516101e991906110d6565b60405180910390f35b3480156101fe57600080fd5b5061020761053b565b604051610214919061124e565b60405180910390f35b34801561022957600080fd5b50610244600480360381019061023f9190610ecf565b610544565b60405161025191906110d6565b60405180910390f35b34801561026657600080fd5b50610281600480360381019061027c9190610e1b565b61057b565b60405161028e9190611233565b60405180910390f35b3480156102a357600080fd5b506102ac6105c3565b6040516102b991906110f1565b60405180910390f35b3480156102ce57600080fd5b506102e960048036038101906102e49190610ecf565b610655565b6040516102f691906110d6565b60405180910390f35b34801561030b57600080fd5b5061032660048036038101906103219190610ecf565b6106cc565b60405161033391906110d6565b60405180910390f35b6103446106ef565b6040516103519190611233565b60405180910390f35b34801561036657600080fd5b5061036f6106fc565b60405161037c91906110bb565b60405180910390f35b34801561039157600080fd5b506103ac60048036038101906103a79190610e44565b610720565b6040516103b99190611233565b60405180910390f35b6060600380546103d190611540565b80601f01602080910402602001604051908101604052809291908181526020018280546103fd90611540565b801561044a5780601f1061041f5761010080835404028352916020019161044a565b820191906000526020600020905b81548152906001019060200180831161042d57829003601f168201915b5050505050905090565b3461045e3061057b565b1161049e576040517f08c379a0000000000000000000000000000000000000000000000000000000008152600401610495906111d3565b60405180910390fd5b6104a93033346107a7565b565b6000806104b6610a28565b90506104c3818585610a30565b600191505092915050565b60006104fb336104dc61053b565b600a6104e8919061132e565b620186a06104f6919061144c565b610bfb565b6001905090565b6000600254905090565b600080610517610a28565b9050610524858285610d5b565b61052f8585856107a7565b60019150509392505050565b60006012905090565b60008061054f610a28565b90506105708185856105618589610720565b61056b9190611285565b610a30565b600191505092915050565b60008060008373ffffffffffffffffffffffffffffffffffffffff1673ffffffffffffffffffffffffffffffffffffffff168152602001908152602001600020549050919050565b6060600480546105d290611540565b80601f01602080910402602001604051908101604052809291908181526020018280546105fe90611540565b801561064b5780601f106106205761010080835404028352916020019161064b565b820191906000526020600020905b81548152906001019060200180831161062e57829003601f168201915b5050505050905090565b600080610660610a28565b9050600061066e8286610720565b9050838110156106b3576040517f08c379a00000000000000000000000000000000000000000000000000000000081526004016106aa906111f3565b60405180910390fd5b6106c08286868403610a30565b60019250505092915050565b6000806106d7610a28565b90506106e48185856107a7565b600191505092915050565b6000803490508091505090565b7f000000000000000000000000000000000000000000000000000000000000000081565b6000600160008473ffffffffffffffffffffffffffffffffffffffff1673ffffffffffffffffffffffffffffffffffffffff16815260200190815260200160002060008373ffffffffffffffffffffffffffffffffffffffff1673ffffffffffffffffffffffffffffffffffffffff16815260200190815260200160002054905092915050565b600073ffffffffffffffffffffffffffffffffffffffff168373ffffffffffffffffffffffffffffffffffffffff161415610817576040517f08c379a000000000000000000000000000000000000000000000000000000000815260040161080e90611193565b60405180910390fd5b600073ffffffffffffffffffffffffffffffffffffffff168273ffffffffffffffffffffffffffffffffffffffff161415610887576040517f08c379a000000000000000000000000000000000000000000000000000000000815260040161087e90611113565b60405180910390fd5b610892838383610de7565b60008060008573ffffffffffffffffffffffffffffffffffffffff1673ffffffffffffffffffffffffffffffffffffffff16815260200190815260200160002054905081811015610918576040517f08c379a000000000000000000000000000000000000000000000000000000000815260040161090f90611173565b60405180910390fd5b8181036000808673ffffffffffffffffffffffffffffffffffffffff1673ffffffffffffffffffffffffffffffffffffffff16815260200190815260200160002081905550816000808573ffffffffffffffffffffffffffffffffffffffff1673ffffffffffffffffffffffffffffffffffffffff16815260200190815260200160002060008282546109ab9190611285565b925050819055508273ffffffffffffffffffffffffffffffffffffffff168473ffffffffffffffffffffffffffffffffffffffff167fddf252ad1be2c89b69c2b068fc378daa952ba7f163c4a11628f55a4df523b3ef84604051610a0f9190611233565b60405180910390a3610a22848484610dec565b50505050565b600033905090565b600073ffffffffffffffffffffffffffffffffffffffff168373ffffffffffffffffffffffffffffffffffffffff161415610aa0576040517f08c379a0000000000000000000000000000000000000000000000000000000008152600401610a97906111b3565b60405180910390fd5b600073ffffffffffffffffffffffffffffffffffffffff168273ffffffffffffffffffffffffffffffffffffffff161415610b10576040517f08c379a0000000000000000000000000000000000000000000000000000000008152600401610b0790611133565b60405180910390fd5b80600160008573ffffffffffffffffffffffffffffffffffffffff1673ffffffffffffffffffffffffffffffffffffffff16815260200190815260200160002060008473ffffffffffffffffffffffffffffffffffffffff1673ffffffffffffffffffffffffffffffffffffffff168152602001908152602001600020819055508173ffffffffffffffffffffffffffffffffffffffff168373ffffffffffffffffffffffffffffffffffffffff167f8c5be1e5ebec7d5bd14f71427d1e84f3dd0314c0f7b2291e5b200ac8c7c3b92583604051610bee9190611233565b60405180910390a3505050565b600073ffffffffffffffffffffffffffffffffffffffff168273ffffffffffffffffffffffffffffffffffffffff161415610c6b576040517f08c379a0000000000000000000000000000000000000000000000000000000008152600401610c6290611213565b60405180910390fd5b610c7760008383610de7565b8060026000828254610c899190611285565b92505081905550806000808473ffffffffffffffffffffffffffffffffffffffff1673ffffffffffffffffffffffffffffffffffffffff1681526020019081526020016000206000828254610cde9190611285565b925050819055508173ffffffffffffffffffffffffffffffffffffffff16600073ffffffffffffffffffffffffffffffffffffffff167fddf252ad1be2c89b69c2b068fc378daa952ba7f163c4a11628f55a4df523b3ef83604051610d439190611233565b60405180910390a3610d5760008383610dec565b5050565b6000610d678484610720565b90507fffffffffffffffffffffffffffffffffffffffffffffffffffffffffffffffff8114610de15781811015610dd3576040517f08c379a0000000000000000000000000000000000000000000000000000000008152600401610dca90611153565b60405180910390fd5b610de08484848403610a30565b5b50505050565b505050565b505050565b600081359050610e0081611843565b92915050565b600081359050610e158161185a565b92915050565b600060208284031215610e2d57600080fd5b6000610e3b84828501610df1565b91505092915050565b60008060408385031215610e5757600080fd5b6000610e6585828601610df1565b9250506020610e7685828601610df1565b9150509250929050565b600080600060608486031215610e9557600080fd5b6000610ea386828701610df1565b9350506020610eb486828701610df1565b9250506040610ec586828701610e06565b9150509250925092565b60008060408385031215610ee257600080fd5b6000610ef085828601610df1565b9250506020610f0185828601610e06565b9150509250929050565b610f14816114b8565b82525050565b610f23816114ca565b82525050565b6000610f3482611269565b610f3e8185611274565b9350610f4e81856020860161150d565b610f57816115d0565b840191505092915050565b6000610f6f602383611274565b9150610f7a826115ee565b604082019050919050565b6000610f92602283611274565b9150610f9d8261163d565b604082019050919050565b6000610fb5601d83611274565b9150610fc08261168c565b602082019050919050565b6000610fd8602683611274565b9150610fe3826116b5565b604082019050919050565b6000610ffb602583611274565b915061100682611704565b604082019050919050565b600061101e602483611274565b915061102982611753565b604082019050919050565b6000611041601183611274565b915061104c826117a2565b602082019050919050565b6000611064602583611274565b915061106f826117cb565b604082019050919050565b6000611087601f83611274565b91506110928261181a565b602082019050919050565b6110a6816114f6565b82525050565b6110b581611500565b82525050565b60006020820190506110d06000830184610f0b565b92915050565b60006020820190506110eb6000830184610f1a565b92915050565b6000602082019050818103600083015261110b8184610f29565b905092915050565b6000602082019050818103600083015261112c81610f62565b9050919050565b6000602082019050818103600083015261114c81610f85565b9050919050565b6000602082019050818103600083015261116c81610fa8565b9050919050565b6000602082019050818103600083015261118c81610fcb565b9050919050565b600060208201905081810360008301526111ac81610fee565b9050919050565b600060208201905081810360008301526111cc81611011565b9050919050565b600060208201905081810360008301526111ec81611034565b9050919050565b6000602082019050818103600083015261120c81611057565b9050919050565b6000602082019050818103600083015261122c8161107a565b9050919050565b6000602082019050611248600083018461109d565b92915050565b600060208201905061126360008301846110ac565b92915050565b600081519050919050565b600082825260208201905092915050565b6000611290826114f6565b915061129b836114f6565b9250827fffffffffffffffffffffffffffffffffffffffffffffffffffffffffffffffff038211156112d0576112cf611572565b5b828201905092915050565b6000808291508390505b60018511156113255780860481111561130157611300611572565b5b60018516156113105780820291505b808102905061131e856115e1565b94506112e5565b94509492505050565b6000611339826114f6565b915061134483611500565b92506113717fffffffffffffffffffffffffffffffffffffffffffffffffffffffffffffffff8484611379565b905092915050565b6000826113895760019050611445565b816113975760009050611445565b81600181146113ad57600281146113b7576113e6565b6001915050611445565b60ff8411156113c9576113c8611572565b5b8360020a9150848211156113e0576113df611572565b5b50611445565b5060208310610133831016604e8410600b841016171561141b5782820a90508381111561141657611415611572565b5b611445565b61142884848460016112db565b9250905081840481111561143f5761143e611572565b5b81810290505b9392505050565b6000611457826114f6565b9150611462836114f6565b9250817fffffffffffffffffffffffffffffffffffffffffffffffffffffffffffffffff048311821515161561149b5761149a611572565b5b828202905092915050565b60006114b1826114d6565b9050919050565b60006114c3826114d6565b9050919050565b60008115159050919050565b600073ffffffffffffffffffffffffffffffffffffffff82169050919050565b6000819050919050565b600060ff82169050919050565b60005b8381101561152b578082015181840152602081019050611510565b8381111561153a576000848401525b50505050565b6000600282049050600182168061155857607f821691505b6020821081141561156c5761156b6115a1565b5b50919050565b7f4e487b7100000000000000000000000000000000000000000000000000000000600052601160045260246000fd5b7f4e487b7100000000000000000000000000000000000000000000000000000000600052602260045260246000fd5b6000601f19601f8301169050919050565b60008160011c9050919050565b7f45524332303a207472616e7366657220746f20746865207a65726f206164647260008201527f6573730000000000000000000000000000000000000000000000000000000000602082015250565b7f45524332303a20617070726f766520746f20746865207a65726f20616464726560008201527f7373000000000000000000000000000000000000000000000000000000000000602082015250565b7f45524332303a20696e73756666696369656e7420616c6c6f77616e6365000000600082015250565b7f45524332303a207472616e7366657220616d6f756e742065786365656473206260008201527f616c616e63650000000000000000000000000000000000000000000000000000602082015250565b7f45524332303a207472616e736665722066726f6d20746865207a65726f20616460008201527f6472657373000000000000000000000000000000000000000000000000000000602082015250565b7f45524332303a20617070726f76652066726f6d20746865207a65726f2061646460008201527f7265737300000000000000000000000000000000000000000000000000000000602082015250565b7f4e6f7420656e6f75676820746f6b656e73000000000000000000000000000000600082015250565b7f45524332303a2064656372656173656420616c6c6f77616e63652062656c6f7760008201527f207a65726f000000000000000000000000000000000000000000000000000000602082015250565b7f45524332303a206d696e7420746f20746865207a65726f206164647265737300600082015250565b61184c816114a6565b811461185757600080fd5b50565b611863816114f6565b811461186e57600080fd5b5056fea26469706673582212200ed5ed9332c7300dd2c1b21bab7bad8a57f598823c480ebe8dd7ccc8ced1103164736f6c63430008040033",
  "linkReferences": {},
  "deployedLinkReferences": {}
}