{
  "_format": "hh-sol-artifact-1",
  "contractName": "PIRATE",
  "sourceName": "src/backend/contracts/PIRATE.sol",
  "abi": [
    {
      "inputs": [],
      "stateMutability": "nonpayable",
      "type": "constructor"
    },
    {
      "anonymous": false,
      "inputs": [
        {
          "indexed": true,
          "internalType": "address",
          "name": "owner",
          "type": "address"
        },
        {
          "indexed": true,
          "internalType": "address",
          "name": "spender",
          "type": "address"
        },
        {
          "indexed": false,
          "internalType": "uint256",
          "name": "value",
          "type": "uint256"
        }
      ],
      "name": "Approval",
      "type": "event"
    },
    {
      "anonymous": false,
      "inputs": [
        {
          "indexed": true,
          "internalType": "address",
          "name": "from",
          "type": "address"
        },
        {
          "indexed": true,
          "internalType": "address",
          "name": "to",
          "type": "address"
        },
        {
          "indexed": false,
          "internalType": "uint256",
          "name": "value",
          "type": "uint256"
        }
      ],
      "name": "Transfer",
      "type": "event"
    },
    {
      "inputs": [
        {
          "internalType": "address",
          "name": "owner",
          "type": "address"
        },
        {
          "internalType": "address",
          "name": "delegate",
          "type": "address"
        }
      ],
      "name": "allowance",
      "outputs": [
        {
          "internalType": "uint256",
          "name": "",
          "type": "uint256"
        }
      ],
      "stateMutability": "view",
      "type": "function"
    },
    {
      "inputs": [
        {
          "internalType": "address",
          "name": "spender",
          "type": "address"
        },
        {
          "internalType": "uint256",
          "name": "amount",
          "type": "uint256"
        }
      ],
      "name": "approve",
      "outputs": [
        {
          "internalType": "bool",
          "name": "",
          "type": "bool"
        }
      ],
      "stateMutability": "nonpayable",
      "type": "function"
    },
    {
      "inputs": [
        {
          "internalType": "uint256",
          "name": "numTokens",
          "type": "uint256"
        }
      ],
      "name": "approve",
      "outputs": [
        {
          "internalType": "bool",
          "name": "",
          "type": "bool"
        }
      ],
      "stateMutability": "nonpayable",
      "type": "function"
    },
    {
      "inputs": [
        {
          "internalType": "address",
          "name": "account",
          "type": "address"
        }
      ],
      "name": "balanceOf",
      "outputs": [
        {
          "internalType": "uint256",
          "name": "",
          "type": "uint256"
        }
      ],
      "stateMutability": "view",
      "type": "function"
    },
    {
      "inputs": [],
      "name": "buyCoin",
      "outputs": [],
      "stateMutability": "payable",
      "type": "function"
    },
    {
      "inputs": [],
      "name": "checkBalance",
      "outputs": [
        {
          "internalType": "uint256",
          "name": "",
          "type": "uint256"
        }
      ],
      "stateMutability": "payable",
      "type": "function"
    },
    {
      "inputs": [],
      "name": "decimals",
      "outputs": [
        {
          "internalType": "uint8",
          "name": "",
          "type": "uint8"
        }
      ],
      "stateMutability": "view",
      "type": "function"
    },
    {
      "inputs": [
        {
          "internalType": "address",
          "name": "spender",
          "type": "address"
        },
        {
          "internalType": "uint256",
          "name": "subtractedValue",
          "type": "uint256"
        }
      ],
      "name": "decreaseAllowance",
      "outputs": [
        {
          "internalType": "bool",
          "name": "",
          "type": "bool"
        }
      ],
      "stateMutability": "nonpayable",
      "type": "function"
    },
    {
      "inputs": [
        {
          "internalType": "address",
          "name": "spender",
          "type": "address"
        },
        {
          "internalType": "uint256",
          "name": "addedValue",
          "type": "uint256"
        }
      ],
      "name": "increaseAllowance",
      "outputs": [
        {
          "internalType": "bool",
          "name": "",
          "type": "bool"
        }
      ],
      "stateMutability": "nonpayable",
      "type": "function"
    },
    {
      "inputs": [],
      "name": "mint",
      "outputs": [
        {
          "internalType": "bool",
          "name": "",
          "type": "bool"
        }
      ],
      "stateMutability": "nonpayable",
      "type": "function"
    },
    {
      "inputs": [],
      "name": "name",
      "outputs": [
        {
          "internalType": "string",
          "name": "",
          "type": "string"
        }
      ],
      "stateMutability": "view",
      "type": "function"
    },
    {
      "inputs": [],
      "name": "symbol",
      "outputs": [
        {
          "internalType": "string",
          "name": "",
          "type": "string"
        }
      ],
      "stateMutability": "view",
      "type": "function"
    },
    {
      "inputs": [],
      "name": "totalSupply",
      "outputs": [
        {
          "internalType": "uint256",
          "name": "",
          "type": "uint256"
        }
      ],
      "stateMutability": "view",
      "type": "function"
    },
    {
      "inputs": [
        {
          "internalType": "address",
          "name": "to",
          "type": "address"
        },
        {
          "internalType": "uint256",
          "name": "amount",
          "type": "uint256"
        }
      ],
      "name": "transfer",
      "outputs": [
        {
          "internalType": "bool",
          "name": "",
          "type": "bool"
        }
      ],
      "stateMutability": "nonpayable",
      "type": "function"
    },
    {
      "inputs": [
        {
          "internalType": "address",
          "name": "from",
          "type": "address"
        },
        {
          "internalType": "address",
          "name": "to",
          "type": "address"
        },
        {
          "internalType": "uint256",
          "name": "amount",
          "type": "uint256"
        }
      ],
      "name": "transferFrom",
      "outputs": [
        {
          "internalType": "bool",
          "name": "",
          "type": "bool"
        }
      ],
      "stateMutability": "nonpayable",
      "type": "function"
    }
  ],
  "bytecode": "0x60806040523480156200001157600080fd5b506040518060400160405280600c81526020017f54686542697450697261746500000000000000000000000000000000000000008152506040518060400160405280600681526020017f504952415445000000000000000000000000000000000000000000000000000081525081600390805190602001906200009692919062000283565b508060049080519060200190620000af92919062000283565b505050620000f130620000c7620000f760201b60201c565b600a620000d5919062000473565b620186a0620000e59190620005b0565b6200010060201b60201c565b620006f2565b60006012905090565b600073ffffffffffffffffffffffffffffffffffffffff168273ffffffffffffffffffffffffffffffffffffffff16141562000173576040517f08c379a00000000000000000000000000000000000000000000000000000000081526004016200016a906200036b565b60405180910390fd5b62000187600083836200027960201b60201c565b80600260008282546200019b9190620003bb565b92505081905550806000808473ffffffffffffffffffffffffffffffffffffffff1673ffffffffffffffffffffffffffffffffffffffff1681526020019081526020016000206000828254620001f29190620003bb565b925050819055508173ffffffffffffffffffffffffffffffffffffffff16600073ffffffffffffffffffffffffffffffffffffffff167fddf252ad1be2c89b69c2b068fc378daa952ba7f163c4a11628f55a4df523b3ef836040516200025991906200038d565b60405180910390a362000275600083836200027e60201b60201c565b5050565b505050565b505050565b828054620002919062000628565b90600052602060002090601f016020900481019282620002b5576000855562000301565b82601f10620002d057805160ff191683800117855562000301565b8280016001018555821562000301579182015b8281111562000300578251825591602001919060010190620002e3565b5b50905062000310919062000314565b5090565b5b808211156200032f57600081600090555060010162000315565b5090565b600062000342601f83620003aa565b91506200034f82620006c9565b602082019050919050565b620003658162000611565b82525050565b60006020820190508181036000830152620003868162000333565b9050919050565b6000602082019050620003a460008301846200035a565b92915050565b600082825260208201905092915050565b6000620003c88262000611565b9150620003d58362000611565b9250827fffffffffffffffffffffffffffffffffffffffffffffffffffffffffffffffff038211156200040d576200040c6200065e565b5b828201905092915050565b6000808291508390505b60018511156200046a578086048111156200044257620004416200065e565b5b6001851615620004525780820291505b80810290506200046285620006bc565b945062000422565b94509492505050565b6000620004808262000611565b91506200048d836200061b565b9250620004bc7fffffffffffffffffffffffffffffffffffffffffffffffffffffffffffffffff8484620004c4565b905092915050565b600082620004d65760019050620005a9565b81620004e65760009050620005a9565b8160018114620004ff57600281146200050a5762000540565b6001915050620005a9565b60ff8411156200051f576200051e6200065e565b5b8360020a9150848211156200053957620005386200065e565b5b50620005a9565b5060208310610133831016604e8410600b84101617156200057a5782820a9050838111156200057457620005736200065e565b5b620005a9565b62000589848484600162000418565b92509050818404811115620005a357620005a26200065e565b5b81810290505b9392505050565b6000620005bd8262000611565b9150620005ca8362000611565b9250817fffffffffffffffffffffffffffffffffffffffffffffffffffffffffffffffff04831182151516156200060657620006056200065e565b5b828202905092915050565b6000819050919050565b600060ff82169050919050565b600060028204905060018216806200064157607f821691505b602082108114156200065857620006576200068d565b5b50919050565b7f4e487b7100000000000000000000000000000000000000000000000000000000600052601160045260246000fd5b7f4e487b7100000000000000000000000000000000000000000000000000000000600052602260045260246000fd5b60008160011c9050919050565b7f45524332303a206d696e7420746f20746865207a65726f206164647265737300600082015250565b61198c80620007026000396000f3fe6080604052600436106100e85760003560e01c8063395093511161008a578063a9059cbb11610059578063a9059cbb146102ff578063b759f9541461033c578063c71daccb14610379578063dd62ed3e14610397576100e8565b8063395093511461021d57806370a082311461025a57806395d89b4114610297578063a457c2d7146102c2576100e8565b80631249c58b116100c65780631249c58b1461015f57806318160ddd1461018a57806323b872dd146101b5578063313ce567146101f2576100e8565b806306fdde03146100ed578063091e9a6014610118578063095ea7b314610122575b600080fd5b3480156100f957600080fd5b506101026103d4565b60405161010f91906111e8565b60405180910390f35b610120610466565b005b34801561012e57600080fd5b5061014960048036038101906101449190610fc7565b6104bd565b60405161015691906111cd565b60405180910390f35b34801561016b57600080fd5b506101746104e0565b60405161018191906111cd565b60405180910390f35b34801561019657600080fd5b5061019f610514565b6040516101ac919061132a565b60405180910390f35b3480156101c157600080fd5b506101dc60048036038101906101d79190610f78565b61051e565b6040516101e991906111cd565b60405180910390f35b3480156101fe57600080fd5b5061020761054d565b6040516102149190611345565b60405180910390f35b34801561022957600080fd5b50610244600480360381019061023f9190610fc7565b610556565b60405161025191906111cd565b60405180910390f35b34801561026657600080fd5b50610281600480360381019061027c9190610f13565b61058d565b60405161028e919061132a565b60405180910390f35b3480156102a357600080fd5b506102ac6105d5565b6040516102b991906111e8565b60405180910390f35b3480156102ce57600080fd5b506102e960048036038101906102e49190610fc7565b610667565b6040516102f691906111cd565b60405180910390f35b34801561030b57600080fd5b5061032660048036038101906103219190610fc7565b6106de565b60405161033391906111cd565b60405180910390f35b34801561034857600080fd5b50610363600480360381019061035e9190611003565b610701565b60405161037091906111cd565b60405180910390f35b61038161080b565b60405161038e919061132a565b60405180910390f35b3480156103a357600080fd5b506103be60048036038101906103b99190610f3c565b610818565b6040516103cb919061132a565b60405180910390f35b6060600380546103e390611625565b80601f016020809104026020016040519081016040528092919081815260200182805461040f90611625565b801561045c5780601f106104315761010080835404028352916020019161045c565b820191906000526020600020905b81548152906001019060200180831161043f57829003601f168201915b5050505050905090565b346104703061058d565b116104b0576040517f08c379a00000000000000000000000000000000000000000000000000000000081526004016104a7906112ca565b60405180910390fd5b6104bb30333461089f565b565b6000806104c8610b20565b90506104d5818585610b28565b600191505092915050565b600061050d336104ee61054d565b600a6104fa9190611425565b620186a06105089190611543565b610cf3565b6001905090565b6000600254905090565b600080610529610b20565b9050610536858285610e53565b61054185858561089f565b60019150509392505050565b60006012905090565b600080610561610b20565b90506105828185856105738589610818565b61057d919061137c565b610b28565b600191505092915050565b60008060008373ffffffffffffffffffffffffffffffffffffffff1673ffffffffffffffffffffffffffffffffffffffff168152602001908152602001600020549050919050565b6060600480546105e490611625565b80601f016020809104026020016040519081016040528092919081815260200182805461061090611625565b801561065d5780601f106106325761010080835404028352916020019161065d565b820191906000526020600020905b81548152906001019060200180831161064057829003601f168201915b5050505050905090565b600080610672610b20565b905060006106808286610818565b9050838110156106c5576040517f08c379a00000000000000000000000000000000000000000000000000000000081526004016106bc906112ea565b60405180910390fd5b6106d28286868403610b28565b60019250505092915050565b6000806106e9610b20565b90506106f681858561089f565b600191505092915050565b600080739fe46736679d2d9a65f0992f2272de9f3c7fa6e0905082600560003373ffffffffffffffffffffffffffffffffffffffff1673ffffffffffffffffffffffffffffffffffffffff16815260200190815260200160002060008373ffffffffffffffffffffffffffffffffffffffff1673ffffffffffffffffffffffffffffffffffffffff168152602001908152602001600020819055508073ffffffffffffffffffffffffffffffffffffffff163373ffffffffffffffffffffffffffffffffffffffff167f8c5be1e5ebec7d5bd14f71427d1e84f3dd0314c0f7b2291e5b200ac8c7c3b925856040516107f9919061132a565b60405180910390a36001915050919050565b6000803490508091505090565b6000600560008473ffffffffffffffffffffffffffffffffffffffff1673ffffffffffffffffffffffffffffffffffffffff16815260200190815260200160002060008373ffffffffffffffffffffffffffffffffffffffff1673ffffffffffffffffffffffffffffffffffffffff16815260200190815260200160002054905092915050565b600073ffffffffffffffffffffffffffffffffffffffff168373ffffffffffffffffffffffffffffffffffffffff16141561090f576040517f08c379a00000000000000000000000000000000000000000000000000000000081526004016109069061128a565b60405180910390fd5b600073ffffffffffffffffffffffffffffffffffffffff168273ffffffffffffffffffffffffffffffffffffffff16141561097f576040517f08c379a00000000000000000000000000000000000000000000000000000000081526004016109769061120a565b60405180910390fd5b61098a838383610edf565b60008060008573ffffffffffffffffffffffffffffffffffffffff1673ffffffffffffffffffffffffffffffffffffffff16815260200190815260200160002054905081811015610a10576040517f08c379a0000000000000000000000000000000000000000000000000000000008152600401610a079061126a565b60405180910390fd5b8181036000808673ffffffffffffffffffffffffffffffffffffffff1673ffffffffffffffffffffffffffffffffffffffff16815260200190815260200160002081905550816000808573ffffffffffffffffffffffffffffffffffffffff1673ffffffffffffffffffffffffffffffffffffffff1681526020019081526020016000206000828254610aa3919061137c565b925050819055508273ffffffffffffffffffffffffffffffffffffffff168473ffffffffffffffffffffffffffffffffffffffff167fddf252ad1be2c89b69c2b068fc378daa952ba7f163c4a11628f55a4df523b3ef84604051610b07919061132a565b60405180910390a3610b1a848484610ee4565b50505050565b600033905090565b600073ffffffffffffffffffffffffffffffffffffffff168373ffffffffffffffffffffffffffffffffffffffff161415610b98576040517f08c379a0000000000000000000000000000000000000000000000000000000008152600401610b8f906112aa565b60405180910390fd5b600073ffffffffffffffffffffffffffffffffffffffff168273ffffffffffffffffffffffffffffffffffffffff161415610c08576040517f08c379a0000000000000000000000000000000000000000000000000000000008152600401610bff9061122a565b60405180910390fd5b80600160008573ffffffffffffffffffffffffffffffffffffffff1673ffffffffffffffffffffffffffffffffffffffff16815260200190815260200160002060008473ffffffffffffffffffffffffffffffffffffffff1673ffffffffffffffffffffffffffffffffffffffff168152602001908152602001600020819055508173ffffffffffffffffffffffffffffffffffffffff168373ffffffffffffffffffffffffffffffffffffffff167f8c5be1e5ebec7d5bd14f71427d1e84f3dd0314c0f7b2291e5b200ac8c7c3b92583604051610ce6919061132a565b60405180910390a3505050565b600073ffffffffffffffffffffffffffffffffffffffff168273ffffffffffffffffffffffffffffffffffffffff161415610d63576040517f08c379a0000000000000000000000000000000000000000000000000000000008152600401610d5a9061130a565b60405180910390fd5b610d6f60008383610edf565b8060026000828254610d81919061137c565b92505081905550806000808473ffffffffffffffffffffffffffffffffffffffff1673ffffffffffffffffffffffffffffffffffffffff1681526020019081526020016000206000828254610dd6919061137c565b925050819055508173ffffffffffffffffffffffffffffffffffffffff16600073ffffffffffffffffffffffffffffffffffffffff167fddf252ad1be2c89b69c2b068fc378daa952ba7f163c4a11628f55a4df523b3ef83604051610e3b919061132a565b60405180910390a3610e4f60008383610ee4565b5050565b6000610e5f8484610818565b90507fffffffffffffffffffffffffffffffffffffffffffffffffffffffffffffffff8114610ed95781811015610ecb576040517f08c379a0000000000000000000000000000000000000000000000000000000008152600401610ec29061124a565b60405180910390fd5b610ed88484848403610b28565b5b50505050565b505050565b505050565b600081359050610ef881611928565b92915050565b600081359050610f0d8161193f565b92915050565b600060208284031215610f2557600080fd5b6000610f3384828501610ee9565b91505092915050565b60008060408385031215610f4f57600080fd5b6000610f5d85828601610ee9565b9250506020610f6e85828601610ee9565b9150509250929050565b600080600060608486031215610f8d57600080fd5b6000610f9b86828701610ee9565b9350506020610fac86828701610ee9565b9250506040610fbd86828701610efe565b9150509250925092565b60008060408385031215610fda57600080fd5b6000610fe885828601610ee9565b9250506020610ff985828601610efe565b9150509250929050565b60006020828403121561101557600080fd5b600061102384828501610efe565b91505092915050565b611035816115af565b82525050565b600061104682611360565b611050818561136b565b93506110608185602086016115f2565b611069816116b5565b840191505092915050565b600061108160238361136b565b915061108c826116d3565b604082019050919050565b60006110a460228361136b565b91506110af82611722565b604082019050919050565b60006110c7601d8361136b565b91506110d282611771565b602082019050919050565b60006110ea60268361136b565b91506110f58261179a565b604082019050919050565b600061110d60258361136b565b9150611118826117e9565b604082019050919050565b600061113060248361136b565b915061113b82611838565b604082019050919050565b600061115360118361136b565b915061115e82611887565b602082019050919050565b600061117660258361136b565b9150611181826118b0565b604082019050919050565b6000611199601f8361136b565b91506111a4826118ff565b602082019050919050565b6111b8816115db565b82525050565b6111c7816115e5565b82525050565b60006020820190506111e2600083018461102c565b92915050565b60006020820190508181036000830152611202818461103b565b905092915050565b6000602082019050818103600083015261122381611074565b9050919050565b6000602082019050818103600083015261124381611097565b9050919050565b60006020820190508181036000830152611263816110ba565b9050919050565b60006020820190508181036000830152611283816110dd565b9050919050565b600060208201905081810360008301526112a381611100565b9050919050565b600060208201905081810360008301526112c381611123565b9050919050565b600060208201905081810360008301526112e381611146565b9050919050565b6000602082019050818103600083015261130381611169565b9050919050565b600060208201905081810360008301526113238161118c565b9050919050565b600060208201905061133f60008301846111af565b92915050565b600060208201905061135a60008301846111be565b92915050565b600081519050919050565b600082825260208201905092915050565b6000611387826115db565b9150611392836115db565b9250827fffffffffffffffffffffffffffffffffffffffffffffffffffffffffffffffff038211156113c7576113c6611657565b5b828201905092915050565b6000808291508390505b600185111561141c578086048111156113f8576113f7611657565b5b60018516156114075780820291505b8081029050611415856116c6565b94506113dc565b94509492505050565b6000611430826115db565b915061143b836115e5565b92506114687fffffffffffffffffffffffffffffffffffffffffffffffffffffffffffffffff8484611470565b905092915050565b600082611480576001905061153c565b8161148e576000905061153c565b81600181146114a457600281146114ae576114dd565b600191505061153c565b60ff8411156114c0576114bf611657565b5b8360020a9150848211156114d7576114d6611657565b5b5061153c565b5060208310610133831016604e8410600b84101617156115125782820a90508381111561150d5761150c611657565b5b61153c565b61151f84848460016113d2565b9250905081840481111561153657611535611657565b5b81810290505b9392505050565b600061154e826115db565b9150611559836115db565b9250817fffffffffffffffffffffffffffffffffffffffffffffffffffffffffffffffff048311821515161561159257611591611657565b5b828202905092915050565b60006115a8826115bb565b9050919050565b60008115159050919050565b600073ffffffffffffffffffffffffffffffffffffffff82169050919050565b6000819050919050565b600060ff82169050919050565b60005b838110156116105780820151818401526020810190506115f5565b8381111561161f576000848401525b50505050565b6000600282049050600182168061163d57607f821691505b6020821081141561165157611650611686565b5b50919050565b7f4e487b7100000000000000000000000000000000000000000000000000000000600052601160045260246000fd5b7f4e487b7100000000000000000000000000000000000000000000000000000000600052602260045260246000fd5b6000601f19601f8301169050919050565b60008160011c9050919050565b7f45524332303a207472616e7366657220746f20746865207a65726f206164647260008201527f6573730000000000000000000000000000000000000000000000000000000000602082015250565b7f45524332303a20617070726f766520746f20746865207a65726f20616464726560008201527f7373000000000000000000000000000000000000000000000000000000000000602082015250565b7f45524332303a20696e73756666696369656e7420616c6c6f77616e6365000000600082015250565b7f45524332303a207472616e7366657220616d6f756e742065786365656473206260008201527f616c616e63650000000000000000000000000000000000000000000000000000602082015250565b7f45524332303a207472616e736665722066726f6d20746865207a65726f20616460008201527f6472657373000000000000000000000000000000000000000000000000000000602082015250565b7f45524332303a20617070726f76652066726f6d20746865207a65726f2061646460008201527f7265737300000000000000000000000000000000000000000000000000000000602082015250565b7f4e6f7420656e6f75676820746f6b656e73000000000000000000000000000000600082015250565b7f45524332303a2064656372656173656420616c6c6f77616e63652062656c6f7760008201527f207a65726f000000000000000000000000000000000000000000000000000000602082015250565b7f45524332303a206d696e7420746f20746865207a65726f206164647265737300600082015250565b6119318161159d565b811461193c57600080fd5b50565b611948816115db565b811461195357600080fd5b5056fea26469706673582212201a02b617070ff9936d6e323ab101d5f0aeb05fe0f4a4fbb4d117f55242ac691764736f6c63430008040033",
  "linkReferences": {},
  "deployedLinkReferences": {}
}